{
	"contract-3fcecc4c62.sol": {
		"RichCoin": {
			"abi": [
				{
					"inputs": [],
					"stateMutability": "nonpayable",
					"type": "constructor"
				},
				{
					"anonymous": false,
					"inputs": [
						{
							"indexed": true,
							"internalType": "address",
							"name": "owner",
							"type": "address"
						},
						{
							"indexed": true,
							"internalType": "address",
							"name": "spender",
							"type": "address"
						},
						{
							"indexed": false,
							"internalType": "uint256",
							"name": "value",
							"type": "uint256"
						}
					],
					"name": "Approval",
					"type": "event"
				},
				{
					"anonymous": false,
					"inputs": [
						{
							"indexed": true,
							"internalType": "address",
							"name": "previousOwner",
							"type": "address"
						},
						{
							"indexed": true,
							"internalType": "address",
							"name": "newOwner",
							"type": "address"
						}
					],
					"name": "OwnershipTransferred",
					"type": "event"
				},
				{
					"anonymous": false,
					"inputs": [
						{
							"indexed": true,
							"internalType": "address",
							"name": "from",
							"type": "address"
						},
						{
							"indexed": true,
							"internalType": "address",
							"name": "to",
							"type": "address"
						},
						{
							"indexed": false,
							"internalType": "uint256",
							"name": "value",
							"type": "uint256"
						}
					],
					"name": "Transfer",
					"type": "event"
				},
				{
					"inputs": [
						{
							"internalType": "address",
							"name": "owner",
							"type": "address"
						},
						{
							"internalType": "address",
							"name": "spender",
							"type": "address"
						}
					],
					"name": "allowance",
					"outputs": [
						{
							"internalType": "uint256",
							"name": "",
							"type": "uint256"
						}
					],
					"stateMutability": "view",
					"type": "function"
				},
				{
					"inputs": [
						{
							"internalType": "address",
							"name": "spender",
							"type": "address"
						},
						{
							"internalType": "uint256",
							"name": "amount",
							"type": "uint256"
						}
					],
					"name": "approve",
					"outputs": [
						{
							"internalType": "bool",
							"name": "",
							"type": "bool"
						}
					],
					"stateMutability": "nonpayable",
					"type": "function"
				},
				{
					"inputs": [
						{
							"internalType": "address",
							"name": "account",
							"type": "address"
						}
					],
					"name": "balanceOf",
					"outputs": [
						{
							"internalType": "uint256",
							"name": "",
							"type": "uint256"
						}
					],
					"stateMutability": "view",
					"type": "function"
				},
				{
					"inputs": [
						{
							"internalType": "address",
							"name": "receiver",
							"type": "address"
						}
					],
					"name": "buyToken",
					"outputs": [
						{
							"internalType": "uint256",
							"name": "",
							"type": "uint256"
						}
					],
					"stateMutability": "payable",
					"type": "function"
				},
				{
					"inputs": [],
					"name": "decimals",
					"outputs": [
						{
							"internalType": "uint8",
							"name": "",
							"type": "uint8"
						}
					],
					"stateMutability": "view",
					"type": "function"
				},
				{
					"inputs": [
						{
							"internalType": "address",
							"name": "spender",
							"type": "address"
						},
						{
							"internalType": "uint256",
							"name": "subtractedValue",
							"type": "uint256"
						}
					],
					"name": "decreaseAllowance",
					"outputs": [
						{
							"internalType": "bool",
							"name": "",
							"type": "bool"
						}
					],
					"stateMutability": "nonpayable",
					"type": "function"
				},
				{
					"inputs": [
						{
							"internalType": "address",
							"name": "spender",
							"type": "address"
						},
						{
							"internalType": "uint256",
							"name": "addedValue",
							"type": "uint256"
						}
					],
					"name": "increaseAllowance",
					"outputs": [
						{
							"internalType": "bool",
							"name": "",
							"type": "bool"
						}
					],
					"stateMutability": "nonpayable",
					"type": "function"
				},
				{
					"inputs": [
						{
							"internalType": "address",
							"name": "to",
							"type": "address"
						},
						{
							"internalType": "uint256",
							"name": "amount",
							"type": "uint256"
						}
					],
					"name": "mint",
					"outputs": [],
					"stateMutability": "nonpayable",
					"type": "function"
				},
				{
					"inputs": [],
					"name": "name",
					"outputs": [
						{
							"internalType": "string",
							"name": "",
							"type": "string"
						}
					],
					"stateMutability": "view",
					"type": "function"
				},
				{
					"inputs": [],
					"name": "owner",
					"outputs": [
						{
							"internalType": "address",
							"name": "",
							"type": "address"
						}
					],
					"stateMutability": "view",
					"type": "function"
				},
				{
					"inputs": [],
					"name": "renounceOwnership",
					"outputs": [],
					"stateMutability": "nonpayable",
					"type": "function"
				},
				{
					"inputs": [],
					"name": "symbol",
					"outputs": [
						{
							"internalType": "string",
							"name": "",
							"type": "string"
						}
					],
					"stateMutability": "view",
					"type": "function"
				},
				{
					"inputs": [],
					"name": "totalSupply",
					"outputs": [
						{
							"internalType": "uint256",
							"name": "",
							"type": "uint256"
						}
					],
					"stateMutability": "view",
					"type": "function"
				},
				{
					"inputs": [
						{
							"internalType": "address",
							"name": "to",
							"type": "address"
						},
						{
							"internalType": "uint256",
							"name": "amount",
							"type": "uint256"
						}
					],
					"name": "transfer",
					"outputs": [
						{
							"internalType": "bool",
							"name": "",
							"type": "bool"
						}
					],
					"stateMutability": "nonpayable",
					"type": "function"
				},
				{
					"inputs": [
						{
							"internalType": "address",
							"name": "from",
							"type": "address"
						},
						{
							"internalType": "address",
							"name": "to",
							"type": "address"
						},
						{
							"internalType": "uint256",
							"name": "amount",
							"type": "uint256"
						}
					],
					"name": "transferFrom",
					"outputs": [
						{
							"internalType": "bool",
							"name": "",
							"type": "bool"
						}
					],
					"stateMutability": "nonpayable",
					"type": "function"
				},
				{
					"inputs": [
						{
							"internalType": "address",
							"name": "newOwner",
							"type": "address"
						}
					],
					"name": "transferOwnership",
					"outputs": [],
					"stateMutability": "nonpayable",
					"type": "function"
				}
			],
			"devdoc": {
				"kind": "dev",
				"methods": {
					"allowance(address,address)": {
						"details": "See {IERC20-allowance}."
					},
					"approve(address,uint256)": {
						"details": "See {IERC20-approve}. NOTE: If `amount` is the maximum `uint256`, the allowance is not updated on `transferFrom`. This is semantically equivalent to an infinite approval. Requirements: - `spender` cannot be the zero address."
					},
					"balanceOf(address)": {
						"details": "See {IERC20-balanceOf}."
					},
					"decimals()": {
						"details": "Returns the number of decimals used to get its user representation. For example, if `decimals` equals `2`, a balance of `505` tokens should be displayed to a user as `5.05` (`505 / 10 ** 2`). Tokens usually opt for a value of 18, imitating the relationship between Ether and Wei. This is the value {ERC20} uses, unless this function is overridden; NOTE: This information is only used for _display_ purposes: it in no way affects any of the arithmetic of the contract, including {IERC20-balanceOf} and {IERC20-transfer}."
					},
					"decreaseAllowance(address,uint256)": {
						"details": "Atomically decreases the allowance granted to `spender` by the caller. This is an alternative to {approve} that can be used as a mitigation for problems described in {IERC20-approve}. Emits an {Approval} event indicating the updated allowance. Requirements: - `spender` cannot be the zero address. - `spender` must have allowance for the caller of at least `subtractedValue`."
					},
					"increaseAllowance(address,uint256)": {
						"details": "Atomically increases the allowance granted to `spender` by the caller. This is an alternative to {approve} that can be used as a mitigation for problems described in {IERC20-approve}. Emits an {Approval} event indicating the updated allowance. Requirements: - `spender` cannot be the zero address."
					},
					"name()": {
						"details": "Returns the name of the token."
					},
					"owner()": {
						"details": "Returns the address of the current owner."
					},
					"renounceOwnership()": {
						"details": "Leaves the contract without owner. It will not be possible to call `onlyOwner` functions anymore. Can only be called by the current owner. NOTE: Renouncing ownership will leave the contract without an owner, thereby removing any functionality that is only available to the owner."
					},
					"symbol()": {
						"details": "Returns the symbol of the token, usually a shorter version of the name."
					},
					"totalSupply()": {
						"details": "See {IERC20-totalSupply}."
					},
					"transfer(address,uint256)": {
						"details": "See {IERC20-transfer}. Requirements: - `to` cannot be the zero address. - the caller must have a balance of at least `amount`."
					},
					"transferFrom(address,address,uint256)": {
						"details": "See {IERC20-transferFrom}. Emits an {Approval} event indicating the updated allowance. This is not required by the EIP. See the note at the beginning of {ERC20}. NOTE: Does not update the allowance if the current allowance is the maximum `uint256`. Requirements: - `from` and `to` cannot be the zero address. - `from` must have a balance of at least `amount`. - the caller must have allowance for ``from``'s tokens of at least `amount`."
					},
					"transferOwnership(address)": {
						"details": "Transfers ownership of the contract to a new account (`newOwner`). Can only be called by the current owner."
					}
				},
				"version": 1
			},
			"evm": {
				"assembly": "    /* \"contract-3fcecc4c62.sol\":203:687  contract RichCoin is ERC20, Ownable {... */\n  mstore(0x40, 0x80)\n    /* \"contract-3fcecc4c62.sol\":245:346  constructor() ERC20(\"RichCoin\", \"RCN\") {... */\n  callvalue\n  dup1\n  iszero\n  tag_1\n  jumpi\n  0x00\n  dup1\n  revert\ntag_1:\n  pop\n    /* \"@openzeppelin/contracts@4.5.0/token/ERC20/ERC20.sol\":1978:2091  constructor(string memory name_, string memory symbol_) {... */\n  mload(0x40)\n  dup1\n  0x40\n  add\n  0x40\n  mstore\n  dup1\n  0x08\n  dup2\n  mstore\n  0x20\n  add\n  0x52696368436f696e000000000000000000000000000000000000000000000000\n  dup2\n  mstore\n  pop\n  mload(0x40)\n  dup1\n  0x40\n  add\n  0x40\n  mstore\n  dup1\n  0x03\n  dup2\n  mstore\n  0x20\n  add\n  0x52434e0000000000000000000000000000000000000000000000000000000000\n  dup2\n  mstore\n  pop\n    /* \"@openzeppelin/contracts@4.5.0/token/ERC20/ERC20.sol\":2052:2057  name_ */\n  dup2\n    /* \"@openzeppelin/contracts@4.5.0/token/ERC20/ERC20.sol\":2044:2049  _name */\n  0x03\n    /* \"@openzeppelin/contracts@4.5.0/token/ERC20/ERC20.sol\":2044:2057  _name = name_ */\n  swap1\n  dup1\n  mload\n  swap1\n  0x20\n  add\n  swap1\n  tag_6\n  swap3\n  swap2\n  swap1\n  tag_7\n  jump\t// in\ntag_6:\n  pop\n    /* \"@openzeppelin/contracts@4.5.0/token/ERC20/ERC20.sol\":2077:2084  symbol_ */\n  dup1\n    /* \"@openzeppelin/contracts@4.5.0/token/ERC20/ERC20.sol\":2067:2074  _symbol */\n  0x04\n    /* \"@openzeppelin/contracts@4.5.0/token/ERC20/ERC20.sol\":2067:2084  _symbol = symbol_ */\n  swap1\n  dup1\n  mload\n  swap1\n  0x20\n  add\n  swap1\n  tag_8\n  swap3\n  swap2\n  swap1\n  tag_7\n  jump\t// in\ntag_8:\n  pop\n    /* \"@openzeppelin/contracts@4.5.0/token/ERC20/ERC20.sol\":1978:2091  constructor(string memory name_, string memory symbol_) {... */\n  pop\n  pop\n    /* \"@openzeppelin/contracts@4.5.0/access/Ownable.sol\":921:953  _transferOwnership(_msgSender()) */\n  tag_10\n    /* \"@openzeppelin/contracts@4.5.0/access/Ownable.sol\":940:952  _msgSender() */\n  tag_11\n    /* \"@openzeppelin/contracts@4.5.0/access/Ownable.sol\":940:950  _msgSender */\n  shl(0x20, tag_12)\n    /* \"@openzeppelin/contracts@4.5.0/access/Ownable.sol\":940:952  _msgSender() */\n  0x20\n  shr\n  jump\t// in\ntag_11:\n    /* \"@openzeppelin/contracts@4.5.0/access/Ownable.sol\":921:939  _transferOwnership */\n  shl(0x20, tag_13)\n    /* \"@openzeppelin/contracts@4.5.0/access/Ownable.sol\":921:953  _transferOwnership(_msgSender()) */\n  0x20\n  shr\n  jump\t// in\ntag_10:\n    /* \"contract-3fcecc4c62.sol\":294:339  _mint(msg.sender, 1000000 * 10 ** decimals()) */\n  tag_15\n    /* \"contract-3fcecc4c62.sol\":300:310  msg.sender */\n  caller\n    /* \"contract-3fcecc4c62.sol\":328:338  decimals() */\n  tag_16\n    /* \"contract-3fcecc4c62.sol\":328:336  decimals */\n  shl(0x20, tag_17)\n    /* \"contract-3fcecc4c62.sol\":328:338  decimals() */\n  0x20\n  shr\n  jump\t// in\ntag_16:\n    /* \"contract-3fcecc4c62.sol\":322:324  10 */\n  0x0a\n    /* \"contract-3fcecc4c62.sol\":322:338  10 ** decimals() */\n  tag_18\n  swap2\n  swap1\n  tag_19\n  jump\t// in\ntag_18:\n    /* \"contract-3fcecc4c62.sol\":312:319  1000000 */\n  0x0f4240\n    /* \"contract-3fcecc4c62.sol\":312:338  1000000 * 10 ** decimals() */\n  tag_20\n  swap2\n  swap1\n  tag_21\n  jump\t// in\ntag_20:\n    /* \"contract-3fcecc4c62.sol\":294:299  _mint */\n  shl(0x20, tag_22)\n    /* \"contract-3fcecc4c62.sol\":294:339  _mint(msg.sender, 1000000 * 10 ** decimals()) */\n  0x20\n  shr\n  jump\t// in\ntag_15:\n    /* \"contract-3fcecc4c62.sol\":203:687  contract RichCoin is ERC20, Ownable {... */\n  jump(tag_23)\n    /* \"@openzeppelin/contracts@4.5.0/utils/Context.sol\":640:736  function _msgSender() internal view virtual returns (address) {... */\ntag_12:\n    /* \"@openzeppelin/contracts@4.5.0/utils/Context.sol\":693:700  address */\n  0x00\n    /* \"@openzeppelin/contracts@4.5.0/utils/Context.sol\":719:729  msg.sender */\n  caller\n    /* \"@openzeppelin/contracts@4.5.0/utils/Context.sol\":712:729  return msg.sender */\n  swap1\n  pop\n    /* \"@openzeppelin/contracts@4.5.0/utils/Context.sol\":640:736  function _msgSender() internal view virtual returns (address) {... */\n  swap1\n  jump\t// out\n    /* \"@openzeppelin/contracts@4.5.0/access/Ownable.sol\":2270:2457  function _transferOwnership(address newOwner) internal virtual {... */\ntag_13:\n    /* \"@openzeppelin/contracts@4.5.0/access/Ownable.sol\":2343:2359  address oldOwner */\n  0x00\n    /* \"@openzeppelin/contracts@4.5.0/access/Ownable.sol\":2362:2368  _owner */\n  0x05\n  0x00\n  swap1\n  sload\n  swap1\n  0x0100\n  exp\n  swap1\n  div\n  0xffffffffffffffffffffffffffffffffffffffff\n  and\n    /* \"@openzeppelin/contracts@4.5.0/access/Ownable.sol\":2343:2368  address oldOwner = _owner */\n  swap1\n  pop\n    /* \"@openzeppelin/contracts@4.5.0/access/Ownable.sol\":2387:2395  newOwner */\n  dup2\n    /* \"@openzeppelin/contracts@4.5.0/access/Ownable.sol\":2378:2384  _owner */\n  0x05\n  0x00\n    /* \"@openzeppelin/contracts@4.5.0/access/Ownable.sol\":2378:2395  _owner = newOwner */\n  0x0100\n  exp\n  dup2\n  sload\n  dup2\n  0xffffffffffffffffffffffffffffffffffffffff\n  mul\n  not\n  and\n  swap1\n  dup4\n  0xffffffffffffffffffffffffffffffffffffffff\n  and\n  mul\n  or\n  swap1\n  sstore\n  pop\n    /* \"@openzeppelin/contracts@4.5.0/access/Ownable.sol\":2441:2449  newOwner */\n  dup2\n    /* \"@openzeppelin/contracts@4.5.0/access/Ownable.sol\":2410:2450  OwnershipTransferred(oldOwner, newOwner) */\n  0xffffffffffffffffffffffffffffffffffffffff\n  and\n    /* \"@openzeppelin/contracts@4.5.0/access/Ownable.sol\":2431:2439  oldOwner */\n  dup2\n    /* \"@openzeppelin/contracts@4.5.0/access/Ownable.sol\":2410:2450  OwnershipTransferred(oldOwner, newOwner) */\n  0xffffffffffffffffffffffffffffffffffffffff\n  and\n  0x8be0079c531659141344cd1fd0a4f28419497f9722a3daafe3b4186f6b6457e0\n  mload(0x40)\n  mload(0x40)\n  dup1\n  swap2\n  sub\n  swap1\n  log3\n    /* \"@openzeppelin/contracts@4.5.0/access/Ownable.sol\":2270:2457  function _transferOwnership(address newOwner) internal virtual {... */\n  pop\n  pop\n  jump\t// out\n    /* \"@openzeppelin/contracts@4.5.0/token/ERC20/ERC20.sol\":3093:3184  function decimals() public view virtual override returns (uint8) {... */\ntag_17:\n    /* \"@openzeppelin/contracts@4.5.0/token/ERC20/ERC20.sol\":3151:3156  uint8 */\n  0x00\n    /* \"@openzeppelin/contracts@4.5.0/token/ERC20/ERC20.sol\":3175:3177  18 */\n  0x12\n    /* \"@openzeppelin/contracts@4.5.0/token/ERC20/ERC20.sol\":3168:3177  return 18 */\n  swap1\n  pop\n    /* \"@openzeppelin/contracts@4.5.0/token/ERC20/ERC20.sol\":3093:3184  function decimals() public view virtual override returns (uint8) {... */\n  swap1\n  jump\t// out\n    /* \"@openzeppelin/contracts@4.5.0/token/ERC20/ERC20.sol\":8415:8804  function _mint(address account, uint256 amount) internal virtual {... */\ntag_22:\n    /* \"@openzeppelin/contracts@4.5.0/token/ERC20/ERC20.sol\":8517:8518  0 */\n  0x00\n    /* \"@openzeppelin/contracts@4.5.0/token/ERC20/ERC20.sol\":8498:8519  account != address(0) */\n  0xffffffffffffffffffffffffffffffffffffffff\n  and\n    /* \"@openzeppelin/contracts@4.5.0/token/ERC20/ERC20.sol\":8498:8505  account */\n  dup3\n    /* \"@openzeppelin/contracts@4.5.0/token/ERC20/ERC20.sol\":8498:8519  account != address(0) */\n  0xffffffffffffffffffffffffffffffffffffffff\n  and\n  eq\n  iszero\n    /* \"@openzeppelin/contracts@4.5.0/token/ERC20/ERC20.sol\":8490:8555  require(account != address(0), \"ERC20: mint to the zero address\") */\n  tag_28\n  jumpi\n  mload(0x40)\n  0x08c379a000000000000000000000000000000000000000000000000000000000\n  dup2\n  mstore\n  0x04\n  add\n  tag_29\n  swap1\n  tag_30\n  jump\t// in\ntag_29:\n  mload(0x40)\n  dup1\n  swap2\n  sub\n  swap1\n  revert\ntag_28:\n    /* \"@openzeppelin/contracts@4.5.0/token/ERC20/ERC20.sol\":8566:8615  _beforeTokenTransfer(address(0), account, amount) */\n  tag_31\n    /* \"@openzeppelin/contracts@4.5.0/token/ERC20/ERC20.sol\":8595:8596  0 */\n  0x00\n    /* \"@openzeppelin/contracts@4.5.0/token/ERC20/ERC20.sol\":8599:8606  account */\n  dup4\n    /* \"@openzeppelin/contracts@4.5.0/token/ERC20/ERC20.sol\":8608:8614  amount */\n  dup4\n    /* \"@openzeppelin/contracts@4.5.0/token/ERC20/ERC20.sol\":8566:8586  _beforeTokenTransfer */\n  shl(0x20, tag_32)\n    /* \"@openzeppelin/contracts@4.5.0/token/ERC20/ERC20.sol\":8566:8615  _beforeTokenTransfer(address(0), account, amount) */\n  0x20\n  shr\n  jump\t// in\ntag_31:\n    /* \"@openzeppelin/contracts@4.5.0/token/ERC20/ERC20.sol\":8642:8648  amount */\n  dup1\n    /* \"@openzeppelin/contracts@4.5.0/token/ERC20/ERC20.sol\":8626:8638  _totalSupply */\n  0x02\n  0x00\n    /* \"@openzeppelin/contracts@4.5.0/token/ERC20/ERC20.sol\":8626:8648  _totalSupply += amount */\n  dup3\n  dup3\n  sload\n  tag_33\n  swap2\n  swap1\n  tag_34\n  jump\t// in\ntag_33:\n  swap3\n  pop\n  pop\n  dup2\n  swap1\n  sstore\n  pop\n    /* \"@openzeppelin/contracts@4.5.0/token/ERC20/ERC20.sol\":8680:8686  amount */\n  dup1\n    /* \"@openzeppelin/contracts@4.5.0/token/ERC20/ERC20.sol\":8658:8667  _balances */\n  0x00\n    /* \"@openzeppelin/contracts@4.5.0/token/ERC20/ERC20.sol\":8658:8676  _balances[account] */\n  dup1\n    /* \"@openzeppelin/contracts@4.5.0/token/ERC20/ERC20.sol\":8668:8675  account */\n  dup5\n    /* \"@openzeppelin/contracts@4.5.0/token/ERC20/ERC20.sol\":8658:8676  _balances[account] */\n  0xffffffffffffffffffffffffffffffffffffffff\n  and\n  0xffffffffffffffffffffffffffffffffffffffff\n  and\n  dup2\n  mstore\n  0x20\n  add\n  swap1\n  dup2\n  mstore\n  0x20\n  add\n  0x00\n  keccak256\n  0x00\n    /* \"@openzeppelin/contracts@4.5.0/token/ERC20/ERC20.sol\":8658:8686  _balances[account] += amount */\n  dup3\n  dup3\n  sload\n  tag_35\n  swap2\n  swap1\n  tag_34\n  jump\t// in\ntag_35:\n  swap3\n  pop\n  pop\n  dup2\n  swap1\n  sstore\n  pop\n    /* \"@openzeppelin/contracts@4.5.0/token/ERC20/ERC20.sol\":8722:8729  account */\n  dup2\n    /* \"@openzeppelin/contracts@4.5.0/token/ERC20/ERC20.sol\":8701:8738  Transfer(address(0), account, amount) */\n  0xffffffffffffffffffffffffffffffffffffffff\n  and\n    /* \"@openzeppelin/contracts@4.5.0/token/ERC20/ERC20.sol\":8718:8719  0 */\n  0x00\n    /* \"@openzeppelin/contracts@4.5.0/token/ERC20/ERC20.sol\":8701:8738  Transfer(address(0), account, amount) */\n  0xffffffffffffffffffffffffffffffffffffffff\n  and\n  0xddf252ad1be2c89b69c2b068fc378daa952ba7f163c4a11628f55a4df523b3ef\n    /* \"@openzeppelin/contracts@4.5.0/token/ERC20/ERC20.sol\":8731:8737  amount */\n  dup4\n    /* \"@openzeppelin/contracts@4.5.0/token/ERC20/ERC20.sol\":8701:8738  Transfer(address(0), account, amount) */\n  mload(0x40)\n  tag_36\n  swap2\n  swap1\n  tag_37\n  jump\t// in\ntag_36:\n  mload(0x40)\n  dup1\n  swap2\n  sub\n  swap1\n  log3\n    /* \"@openzeppelin/contracts@4.5.0/token/ERC20/ERC20.sol\":8749:8797  _afterTokenTransfer(address(0), account, amount) */\n  tag_38\n    /* \"@openzeppelin/contracts@4.5.0/token/ERC20/ERC20.sol\":8777:8778  0 */\n  0x00\n    /* \"@openzeppelin/contracts@4.5.0/token/ERC20/ERC20.sol\":8781:8788  account */\n  dup4\n    /* \"@openzeppelin/contracts@4.5.0/token/ERC20/ERC20.sol\":8790:8796  amount */\n  dup4\n    /* \"@openzeppelin/contracts@4.5.0/token/ERC20/ERC20.sol\":8749:8768  _afterTokenTransfer */\n  shl(0x20, tag_39)\n    /* \"@openzeppelin/contracts@4.5.0/token/ERC20/ERC20.sol\":8749:8797  _afterTokenTransfer(address(0), account, amount) */\n  0x20\n  shr\n  jump\t// in\ntag_38:\n    /* \"@openzeppelin/contracts@4.5.0/token/ERC20/ERC20.sol\":8415:8804  function _mint(address account, uint256 amount) internal virtual {... */\n  pop\n  pop\n  jump\t// out\n    /* \"@openzeppelin/contracts@4.5.0/token/ERC20/ERC20.sol\":11795:11916  function _beforeTokenTransfer(... */\ntag_32:\n  pop\n  pop\n  pop\n  jump\t// out\n    /* \"@openzeppelin/contracts@4.5.0/token/ERC20/ERC20.sol\":12504:12624  function _afterTokenTransfer(... */\ntag_39:\n  pop\n  pop\n  pop\n  jump\t// out\n    /* \"contract-3fcecc4c62.sol\":203:687  contract RichCoin is ERC20, Ownable {... */\ntag_7:\n  dup3\n  dup1\n  sload\n  tag_42\n  swap1\n  tag_43\n  jump\t// in\ntag_42:\n  swap1\n  0x00\n  mstore\n  keccak256(0x00, 0x20)\n  swap1\n  0x1f\n  add\n  0x20\n  swap1\n  div\n  dup2\n  add\n  swap3\n  dup3\n  tag_45\n  jumpi\n  0x00\n  dup6\n  sstore\n  jump(tag_44)\ntag_45:\n  dup3\n  0x1f\n  lt\n  tag_46\n  jumpi\n  dup1\n  mload\n  not(0xff)\n  and\n  dup4\n  dup1\n  add\n  or\n  dup6\n  sstore\n  jump(tag_44)\ntag_46:\n  dup3\n  dup1\n  add\n  0x01\n  add\n  dup6\n  sstore\n  dup3\n  iszero\n  tag_44\n  jumpi\n  swap2\n  dup3\n  add\ntag_47:\n  dup3\n  dup2\n  gt\n  iszero\n  tag_48\n  jumpi\n  dup3\n  mload\n  dup3\n  sstore\n  swap2\n  0x20\n  add\n  swap2\n  swap1\n  0x01\n  add\n  swap1\n  jump(tag_47)\ntag_48:\ntag_44:\n  pop\n  swap1\n  pop\n  tag_49\n  swap2\n  swap1\n  tag_50\n  jump\t// in\ntag_49:\n  pop\n  swap1\n  jump\t// out\ntag_50:\ntag_51:\n  dup1\n  dup3\n  gt\n  iszero\n  tag_52\n  jumpi\n  0x00\n  dup2\n  0x00\n  swap1\n  sstore\n  pop\n  0x01\n  add\n  jump(tag_51)\ntag_52:\n  pop\n  swap1\n  jump\t// out\n    /* \"#utility.yul\":7:373   */\ntag_54:\n    /* \"#utility.yul\":149:152   */\n  0x00\n    /* \"#utility.yul\":170:237   */\n  tag_56\n    /* \"#utility.yul\":234:236   */\n  0x1f\n    /* \"#utility.yul\":229:232   */\n  dup4\n    /* \"#utility.yul\":170:237   */\n  tag_57\n  jump\t// in\ntag_56:\n    /* \"#utility.yul\":163:237   */\n  swap2\n  pop\n    /* \"#utility.yul\":246:339   */\n  tag_58\n    /* \"#utility.yul\":335:338   */\n  dup3\n    /* \"#utility.yul\":246:339   */\n  tag_59\n  jump\t// in\ntag_58:\n    /* \"#utility.yul\":364:366   */\n  0x20\n    /* \"#utility.yul\":359:362   */\n  dup3\n    /* \"#utility.yul\":355:367   */\n  add\n    /* \"#utility.yul\":348:367   */\n  swap1\n  pop\n    /* \"#utility.yul\":153:373   */\n  swap2\n  swap1\n  pop\n  jump\t// out\n    /* \"#utility.yul\":379:497   */\ntag_60:\n    /* \"#utility.yul\":466:490   */\n  tag_62\n    /* \"#utility.yul\":484:489   */\n  dup2\n    /* \"#utility.yul\":466:490   */\n  tag_63\n  jump\t// in\ntag_62:\n    /* \"#utility.yul\":461:464   */\n  dup3\n    /* \"#utility.yul\":454:491   */\n  mstore\n    /* \"#utility.yul\":444:497   */\n  pop\n  pop\n  jump\t// out\n    /* \"#utility.yul\":503:922   */\ntag_30:\n    /* \"#utility.yul\":669:673   */\n  0x00\n    /* \"#utility.yul\":707:709   */\n  0x20\n    /* \"#utility.yul\":696:705   */\n  dup3\n    /* \"#utility.yul\":692:710   */\n  add\n    /* \"#utility.yul\":684:710   */\n  swap1\n  pop\n    /* \"#utility.yul\":756:765   */\n  dup2\n    /* \"#utility.yul\":750:754   */\n  dup2\n    /* \"#utility.yul\":746:766   */\n  sub\n    /* \"#utility.yul\":742:743   */\n  0x00\n    /* \"#utility.yul\":731:740   */\n  dup4\n    /* \"#utility.yul\":727:744   */\n  add\n    /* \"#utility.yul\":720:767   */\n  mstore\n    /* \"#utility.yul\":784:915   */\n  tag_65\n    /* \"#utility.yul\":910:914   */\n  dup2\n    /* \"#utility.yul\":784:915   */\n  tag_54\n  jump\t// in\ntag_65:\n    /* \"#utility.yul\":776:915   */\n  swap1\n  pop\n    /* \"#utility.yul\":674:922   */\n  swap2\n  swap1\n  pop\n  jump\t// out\n    /* \"#utility.yul\":928:1150   */\ntag_37:\n    /* \"#utility.yul\":1021:1025   */\n  0x00\n    /* \"#utility.yul\":1059:1061   */\n  0x20\n    /* \"#utility.yul\":1048:1057   */\n  dup3\n    /* \"#utility.yul\":1044:1062   */\n  add\n    /* \"#utility.yul\":1036:1062   */\n  swap1\n  pop\n    /* \"#utility.yul\":1072:1143   */\n  tag_67\n    /* \"#utility.yul\":1140:1141   */\n  0x00\n    /* \"#utility.yul\":1129:1138   */\n  dup4\n    /* \"#utility.yul\":1125:1142   */\n  add\n    /* \"#utility.yul\":1116:1122   */\n  dup5\n    /* \"#utility.yul\":1072:1143   */\n  tag_60\n  jump\t// in\ntag_67:\n    /* \"#utility.yul\":1026:1150   */\n  swap3\n  swap2\n  pop\n  pop\n  jump\t// out\n    /* \"#utility.yul\":1156:1325   */\ntag_57:\n    /* \"#utility.yul\":1240:1251   */\n  0x00\n    /* \"#utility.yul\":1274:1280   */\n  dup3\n    /* \"#utility.yul\":1269:1272   */\n  dup3\n    /* \"#utility.yul\":1262:1281   */\n  mstore\n    /* \"#utility.yul\":1314:1318   */\n  0x20\n    /* \"#utility.yul\":1309:1312   */\n  dup3\n    /* \"#utility.yul\":1305:1319   */\n  add\n    /* \"#utility.yul\":1290:1319   */\n  swap1\n  pop\n    /* \"#utility.yul\":1252:1325   */\n  swap3\n  swap2\n  pop\n  pop\n  jump\t// out\n    /* \"#utility.yul\":1331:1636   */\ntag_34:\n    /* \"#utility.yul\":1371:1374   */\n  0x00\n    /* \"#utility.yul\":1390:1410   */\n  tag_70\n    /* \"#utility.yul\":1408:1409   */\n  dup3\n    /* \"#utility.yul\":1390:1410   */\n  tag_63\n  jump\t// in\ntag_70:\n    /* \"#utility.yul\":1385:1410   */\n  swap2\n  pop\n    /* \"#utility.yul\":1424:1444   */\n  tag_71\n    /* \"#utility.yul\":1442:1443   */\n  dup4\n    /* \"#utility.yul\":1424:1444   */\n  tag_63\n  jump\t// in\ntag_71:\n    /* \"#utility.yul\":1419:1444   */\n  swap3\n  pop\n    /* \"#utility.yul\":1578:1579   */\n  dup3\n    /* \"#utility.yul\":1510:1576   */\n  0xffffffffffffffffffffffffffffffffffffffffffffffffffffffffffffffff\n    /* \"#utility.yul\":1506:1580   */\n  sub\n    /* \"#utility.yul\":1503:1504   */\n  dup3\n    /* \"#utility.yul\":1500:1581   */\n  gt\n    /* \"#utility.yul\":1497:1499   */\n  iszero\n  tag_72\n  jumpi\n    /* \"#utility.yul\":1584:1602   */\n  tag_73\n  tag_74\n  jump\t// in\ntag_73:\n    /* \"#utility.yul\":1497:1499   */\ntag_72:\n    /* \"#utility.yul\":1628:1629   */\n  dup3\n    /* \"#utility.yul\":1625:1626   */\n  dup3\n    /* \"#utility.yul\":1621:1630   */\n  add\n    /* \"#utility.yul\":1614:1630   */\n  swap1\n  pop\n    /* \"#utility.yul\":1375:1636   */\n  swap3\n  swap2\n  pop\n  pop\n  jump\t// out\n    /* \"#utility.yul\":1642:2490   */\ntag_75:\n    /* \"#utility.yul\":1703:1708   */\n  0x00\n    /* \"#utility.yul\":1710:1714   */\n  dup1\n    /* \"#utility.yul\":1734:1740   */\n  dup3\n    /* \"#utility.yul\":1725:1740   */\n  swap2\n  pop\n    /* \"#utility.yul\":1758:1763   */\n  dup4\n    /* \"#utility.yul\":1749:1763   */\n  swap1\n  pop\n    /* \"#utility.yul\":1772:2484   */\ntag_77:\n    /* \"#utility.yul\":1793:1794   */\n  0x01\n    /* \"#utility.yul\":1783:1791   */\n  dup6\n    /* \"#utility.yul\":1780:1795   */\n  gt\n    /* \"#utility.yul\":1772:2484   */\n  iszero\n  tag_79\n  jumpi\n    /* \"#utility.yul\":1888:1892   */\n  dup1\n    /* \"#utility.yul\":1883:1886   */\n  dup7\n    /* \"#utility.yul\":1879:1893   */\n  div\n    /* \"#utility.yul\":1873:1877   */\n  dup2\n    /* \"#utility.yul\":1870:1894   */\n  gt\n    /* \"#utility.yul\":1867:1869   */\n  iszero\n  tag_80\n  jumpi\n    /* \"#utility.yul\":1897:1915   */\n  tag_81\n  tag_74\n  jump\t// in\ntag_81:\n    /* \"#utility.yul\":1867:1869   */\ntag_80:\n    /* \"#utility.yul\":1947:1948   */\n  0x01\n    /* \"#utility.yul\":1937:1945   */\n  dup6\n    /* \"#utility.yul\":1933:1949   */\n  and\n    /* \"#utility.yul\":1930:1932   */\n  iszero\n  tag_82\n  jumpi\n    /* \"#utility.yul\":2362:2366   */\n  dup1\n    /* \"#utility.yul\":2355:2360   */\n  dup3\n    /* \"#utility.yul\":2351:2367   */\n  mul\n    /* \"#utility.yul\":2342:2367   */\n  swap2\n  pop\n    /* \"#utility.yul\":1930:1932   */\ntag_82:\n    /* \"#utility.yul\":2412:2416   */\n  dup1\n    /* \"#utility.yul\":2406:2410   */\n  dup2\n    /* \"#utility.yul\":2402:2417   */\n  mul\n    /* \"#utility.yul\":2394:2417   */\n  swap1\n  pop\n    /* \"#utility.yul\":2442:2474   */\n  tag_83\n    /* \"#utility.yul\":2465:2473   */\n  dup6\n    /* \"#utility.yul\":2442:2474   */\n  tag_84\n  jump\t// in\ntag_83:\n    /* \"#utility.yul\":2430:2474   */\n  swap5\n  pop\n    /* \"#utility.yul\":1772:2484   */\n  jump(tag_77)\ntag_79:\n    /* \"#utility.yul\":1715:2490   */\n  swap5\n  pop\n  swap5\n  swap3\n  pop\n  pop\n  pop\n  jump\t// out\n    /* \"#utility.yul\":2496:2777   */\ntag_19:\n    /* \"#utility.yul\":2554:2559   */\n  0x00\n    /* \"#utility.yul\":2578:2601   */\n  tag_86\n    /* \"#utility.yul\":2596:2600   */\n  dup3\n    /* \"#utility.yul\":2578:2601   */\n  tag_63\n  jump\t// in\ntag_86:\n    /* \"#utility.yul\":2570:2601   */\n  swap2\n  pop\n    /* \"#utility.yul\":2622:2647   */\n  tag_87\n    /* \"#utility.yul\":2638:2646   */\n  dup4\n    /* \"#utility.yul\":2622:2647   */\n  tag_88\n  jump\t// in\ntag_87:\n    /* \"#utility.yul\":2610:2647   */\n  swap3\n  pop\n    /* \"#utility.yul\":2666:2770   */\n  tag_89\n    /* \"#utility.yul\":2703:2769   */\n  0xffffffffffffffffffffffffffffffffffffffffffffffffffffffffffffffff\n    /* \"#utility.yul\":2693:2701   */\n  dup5\n    /* \"#utility.yul\":2687:2691   */\n  dup5\n    /* \"#utility.yul\":2666:2770   */\n  tag_90\n  jump\t// in\ntag_89:\n    /* \"#utility.yul\":2657:2770   */\n  swap1\n  pop\n    /* \"#utility.yul\":2560:2777   */\n  swap3\n  swap2\n  pop\n  pop\n  jump\t// out\n    /* \"#utility.yul\":2783:3856   */\ntag_90:\n    /* \"#utility.yul\":2837:2842   */\n  0x00\n    /* \"#utility.yul\":3028:3036   */\n  dup3\n    /* \"#utility.yul\":3018:3020   */\n  tag_92\n  jumpi\n    /* \"#utility.yul\":3049:3050   */\n  0x01\n    /* \"#utility.yul\":3040:3050   */\n  swap1\n  pop\n    /* \"#utility.yul\":3051:3056   */\n  jump(tag_91)\n    /* \"#utility.yul\":3018:3020   */\ntag_92:\n    /* \"#utility.yul\":3077:3081   */\n  dup2\n    /* \"#utility.yul\":3067:3069   */\n  tag_93\n  jumpi\n    /* \"#utility.yul\":3094:3095   */\n  0x00\n    /* \"#utility.yul\":3085:3095   */\n  swap1\n  pop\n    /* \"#utility.yul\":3096:3101   */\n  jump(tag_91)\n    /* \"#utility.yul\":3067:3069   */\ntag_93:\n    /* \"#utility.yul\":3163:3167   */\n  dup2\n    /* \"#utility.yul\":3211:3212   */\n  0x01\n    /* \"#utility.yul\":3206:3233   */\n  dup2\n  eq\n  tag_95\n  jumpi\n    /* \"#utility.yul\":3247:3248   */\n  0x02\n    /* \"#utility.yul\":3242:3433   */\n  dup2\n  eq\n  tag_96\n  jumpi\n    /* \"#utility.yul\":3156:3433   */\n  jump(tag_94)\n    /* \"#utility.yul\":3206:3233   */\ntag_95:\n    /* \"#utility.yul\":3224:3225   */\n  0x01\n    /* \"#utility.yul\":3215:3225   */\n  swap2\n  pop\n    /* \"#utility.yul\":3226:3231   */\n  pop\n  jump(tag_91)\n    /* \"#utility.yul\":3242:3433   */\ntag_96:\n    /* \"#utility.yul\":3287:3290   */\n  0xff\n    /* \"#utility.yul\":3277:3285   */\n  dup5\n    /* \"#utility.yul\":3274:3291   */\n  gt\n    /* \"#utility.yul\":3271:3273   */\n  iszero\n  tag_97\n  jumpi\n    /* \"#utility.yul\":3294:3312   */\n  tag_98\n  tag_74\n  jump\t// in\ntag_98:\n    /* \"#utility.yul\":3271:3273   */\ntag_97:\n    /* \"#utility.yul\":3343:3351   */\n  dup4\n    /* \"#utility.yul\":3340:3341   */\n  0x02\n    /* \"#utility.yul\":3336:3352   */\n  exp\n    /* \"#utility.yul\":3327:3352   */\n  swap2\n  pop\n    /* \"#utility.yul\":3378:3381   */\n  dup5\n    /* \"#utility.yul\":3371:3376   */\n  dup3\n    /* \"#utility.yul\":3368:3382   */\n  gt\n    /* \"#utility.yul\":3365:3367   */\n  iszero\n  tag_99\n  jumpi\n    /* \"#utility.yul\":3385:3403   */\n  tag_100\n  tag_74\n  jump\t// in\ntag_100:\n    /* \"#utility.yul\":3365:3367   */\ntag_99:\n    /* \"#utility.yul\":3418:3423   */\n  pop\n  jump(tag_91)\n    /* \"#utility.yul\":3156:3433   */\ntag_94:\n  pop\n    /* \"#utility.yul\":3542:3544   */\n  0x20\n    /* \"#utility.yul\":3532:3540   */\n  dup4\n    /* \"#utility.yul\":3529:3545   */\n  lt\n    /* \"#utility.yul\":3523:3526   */\n  0x0133\n    /* \"#utility.yul\":3517:3521   */\n  dup4\n    /* \"#utility.yul\":3514:3527   */\n  lt\n    /* \"#utility.yul\":3510:3546   */\n  and\n    /* \"#utility.yul\":3492:3494   */\n  0x4e\n    /* \"#utility.yul\":3482:3490   */\n  dup5\n    /* \"#utility.yul\":3479:3495   */\n  lt\n    /* \"#utility.yul\":3474:3476   */\n  0x0b\n    /* \"#utility.yul\":3468:3472   */\n  dup5\n    /* \"#utility.yul\":3465:3477   */\n  lt\n    /* \"#utility.yul\":3461:3496   */\n  and\n    /* \"#utility.yul\":3445:3556   */\n  or\n    /* \"#utility.yul\":3442:3444   */\n  iszero\n  tag_101\n  jumpi\n    /* \"#utility.yul\":3598:3606   */\n  dup3\n    /* \"#utility.yul\":3592:3596   */\n  dup3\n    /* \"#utility.yul\":3588:3607   */\n  exp\n    /* \"#utility.yul\":3579:3607   */\n  swap1\n  pop\n    /* \"#utility.yul\":3633:3636   */\n  dup4\n    /* \"#utility.yul\":3626:3631   */\n  dup2\n    /* \"#utility.yul\":3623:3637   */\n  gt\n    /* \"#utility.yul\":3620:3622   */\n  iszero\n  tag_102\n  jumpi\n    /* \"#utility.yul\":3640:3658   */\n  tag_103\n  tag_74\n  jump\t// in\ntag_103:\n    /* \"#utility.yul\":3620:3622   */\ntag_102:\n    /* \"#utility.yul\":3673:3678   */\n  jump(tag_91)\n    /* \"#utility.yul\":3442:3444   */\ntag_101:\n    /* \"#utility.yul\":3713:3755   */\n  tag_104\n    /* \"#utility.yul\":3751:3754   */\n  dup5\n    /* \"#utility.yul\":3741:3749   */\n  dup5\n    /* \"#utility.yul\":3735:3739   */\n  dup5\n    /* \"#utility.yul\":3732:3733   */\n  0x01\n    /* \"#utility.yul\":3713:3755   */\n  tag_75\n  jump\t// in\ntag_104:\n    /* \"#utility.yul\":3698:3755   */\n  swap3\n  pop\n  swap1\n  pop\n    /* \"#utility.yul\":3787:3791   */\n  dup2\n    /* \"#utility.yul\":3782:3785   */\n  dup5\n    /* \"#utility.yul\":3778:3792   */\n  div\n    /* \"#utility.yul\":3771:3776   */\n  dup2\n    /* \"#utility.yul\":3768:3793   */\n  gt\n    /* \"#utility.yul\":3765:3767   */\n  iszero\n  tag_105\n  jumpi\n    /* \"#utility.yul\":3796:3814   */\n  tag_106\n  tag_74\n  jump\t// in\ntag_106:\n    /* \"#utility.yul\":3765:3767   */\ntag_105:\n    /* \"#utility.yul\":3845:3849   */\n  dup2\n    /* \"#utility.yul\":3838:3843   */\n  dup2\n    /* \"#utility.yul\":3834:3850   */\n  mul\n    /* \"#utility.yul\":3825:3850   */\n  swap1\n  pop\n    /* \"#utility.yul\":2843:3856   */\ntag_91:\n  swap4\n  swap3\n  pop\n  pop\n  pop\n  jump\t// out\n    /* \"#utility.yul\":3862:4210   */\ntag_21:\n    /* \"#utility.yul\":3902:3909   */\n  0x00\n    /* \"#utility.yul\":3925:3945   */\n  tag_108\n    /* \"#utility.yul\":3943:3944   */\n  dup3\n    /* \"#utility.yul\":3925:3945   */\n  tag_63\n  jump\t// in\ntag_108:\n    /* \"#utility.yul\":3920:3945   */\n  swap2\n  pop\n    /* \"#utility.yul\":3959:3979   */\n  tag_109\n    /* \"#utility.yul\":3977:3978   */\n  dup4\n    /* \"#utility.yul\":3959:3979   */\n  tag_63\n  jump\t// in\ntag_109:\n    /* \"#utility.yul\":3954:3979   */\n  swap3\n  pop\n    /* \"#utility.yul\":4147:4148   */\n  dup2\n    /* \"#utility.yul\":4079:4145   */\n  0xffffffffffffffffffffffffffffffffffffffffffffffffffffffffffffffff\n    /* \"#utility.yul\":4075:4149   */\n  div\n    /* \"#utility.yul\":4072:4073   */\n  dup4\n    /* \"#utility.yul\":4069:4150   */\n  gt\n    /* \"#utility.yul\":4064:4065   */\n  dup3\n    /* \"#utility.yul\":4057:4066   */\n  iszero\n    /* \"#utility.yul\":4050:4067   */\n  iszero\n    /* \"#utility.yul\":4046:4151   */\n  and\n    /* \"#utility.yul\":4043:4045   */\n  iszero\n  tag_110\n  jumpi\n    /* \"#utility.yul\":4154:4172   */\n  tag_111\n  tag_74\n  jump\t// in\ntag_111:\n    /* \"#utility.yul\":4043:4045   */\ntag_110:\n    /* \"#utility.yul\":4202:4203   */\n  dup3\n    /* \"#utility.yul\":4199:4200   */\n  dup3\n    /* \"#utility.yul\":4195:4204   */\n  mul\n    /* \"#utility.yul\":4184:4204   */\n  swap1\n  pop\n    /* \"#utility.yul\":3910:4210   */\n  swap3\n  swap2\n  pop\n  pop\n  jump\t// out\n    /* \"#utility.yul\":4216:4293   */\ntag_63:\n    /* \"#utility.yul\":4253:4260   */\n  0x00\n    /* \"#utility.yul\":4282:4287   */\n  dup2\n    /* \"#utility.yul\":4271:4287   */\n  swap1\n  pop\n    /* \"#utility.yul\":4261:4293   */\n  swap2\n  swap1\n  pop\n  jump\t// out\n    /* \"#utility.yul\":4299:4385   */\ntag_88:\n    /* \"#utility.yul\":4334:4341   */\n  0x00\n    /* \"#utility.yul\":4374:4378   */\n  0xff\n    /* \"#utility.yul\":4367:4372   */\n  dup3\n    /* \"#utility.yul\":4363:4379   */\n  and\n    /* \"#utility.yul\":4352:4379   */\n  swap1\n  pop\n    /* \"#utility.yul\":4342:4385   */\n  swap2\n  swap1\n  pop\n  jump\t// out\n    /* \"#utility.yul\":4391:4711   */\ntag_43:\n    /* \"#utility.yul\":4435:4441   */\n  0x00\n    /* \"#utility.yul\":4472:4473   */\n  0x02\n    /* \"#utility.yul\":4466:4470   */\n  dup3\n    /* \"#utility.yul\":4462:4474   */\n  div\n    /* \"#utility.yul\":4452:4474   */\n  swap1\n  pop\n    /* \"#utility.yul\":4519:4520   */\n  0x01\n    /* \"#utility.yul\":4513:4517   */\n  dup3\n    /* \"#utility.yul\":4509:4521   */\n  and\n    /* \"#utility.yul\":4540:4558   */\n  dup1\n    /* \"#utility.yul\":4530:4532   */\n  tag_115\n  jumpi\n    /* \"#utility.yul\":4596:4600   */\n  0x7f\n    /* \"#utility.yul\":4588:4594   */\n  dup3\n    /* \"#utility.yul\":4584:4601   */\n  and\n    /* \"#utility.yul\":4574:4601   */\n  swap2\n  pop\n    /* \"#utility.yul\":4530:4532   */\ntag_115:\n    /* \"#utility.yul\":4658:4660   */\n  0x20\n    /* \"#utility.yul\":4650:4656   */\n  dup3\n    /* \"#utility.yul\":4647:4661   */\n  lt\n    /* \"#utility.yul\":4627:4645   */\n  dup2\n    /* \"#utility.yul\":4624:4662   */\n  eq\n    /* \"#utility.yul\":4621:4623   */\n  iszero\n  tag_116\n  jumpi\n    /* \"#utility.yul\":4677:4695   */\n  tag_117\n  tag_118\n  jump\t// in\ntag_117:\n    /* \"#utility.yul\":4621:4623   */\ntag_116:\n    /* \"#utility.yul\":4442:4711   */\n  pop\n  swap2\n  swap1\n  pop\n  jump\t// out\n    /* \"#utility.yul\":4717:4897   */\ntag_74:\n    /* \"#utility.yul\":4765:4842   */\n  0x4e487b7100000000000000000000000000000000000000000000000000000000\n    /* \"#utility.yul\":4762:4763   */\n  0x00\n    /* \"#utility.yul\":4755:4843   */\n  mstore\n    /* \"#utility.yul\":4862:4866   */\n  0x11\n    /* \"#utility.yul\":4859:4860   */\n  0x04\n    /* \"#utility.yul\":4852:4867   */\n  mstore\n    /* \"#utility.yul\":4886:4890   */\n  0x24\n    /* \"#utility.yul\":4883:4884   */\n  0x00\n    /* \"#utility.yul\":4876:4891   */\n  revert\n    /* \"#utility.yul\":4903:5083   */\ntag_118:\n    /* \"#utility.yul\":4951:5028   */\n  0x4e487b7100000000000000000000000000000000000000000000000000000000\n    /* \"#utility.yul\":4948:4949   */\n  0x00\n    /* \"#utility.yul\":4941:5029   */\n  mstore\n    /* \"#utility.yul\":5048:5052   */\n  0x22\n    /* \"#utility.yul\":5045:5046   */\n  0x04\n    /* \"#utility.yul\":5038:5053   */\n  mstore\n    /* \"#utility.yul\":5072:5076   */\n  0x24\n    /* \"#utility.yul\":5069:5070   */\n  0x00\n    /* \"#utility.yul\":5062:5077   */\n  revert\n    /* \"#utility.yul\":5089:5191   */\ntag_84:\n    /* \"#utility.yul\":5131:5139   */\n  0x00\n    /* \"#utility.yul\":5178:5183   */\n  dup2\n    /* \"#utility.yul\":5175:5176   */\n  0x01\n    /* \"#utility.yul\":5171:5184   */\n  shr\n    /* \"#utility.yul\":5150:5184   */\n  swap1\n  pop\n    /* \"#utility.yul\":5140:5191   */\n  swap2\n  swap1\n  pop\n  jump\t// out\n    /* \"#utility.yul\":5197:5378   */\ntag_59:\n    /* \"#utility.yul\":5337:5370   */\n  0x45524332303a206d696e7420746f20746865207a65726f206164647265737300\n    /* \"#utility.yul\":5333:5334   */\n  0x00\n    /* \"#utility.yul\":5325:5331   */\n  dup3\n    /* \"#utility.yul\":5321:5335   */\n  add\n    /* \"#utility.yul\":5314:5371   */\n  mstore\n    /* \"#utility.yul\":5303:5378   */\n  pop\n  jump\t// out\n    /* \"contract-3fcecc4c62.sol\":203:687  contract RichCoin is ERC20, Ownable {... */\ntag_23:\n  dataSize(sub_0)\n  dup1\n  dataOffset(sub_0)\n  0x00\n  codecopy\n  0x00\n  return\nstop\n\nsub_0: assembly {\n        /* \"contract-3fcecc4c62.sol\":203:687  contract RichCoin is ERC20, Ownable {... */\n      mstore(0x40, 0x80)\n      jumpi(tag_1, lt(calldatasize, 0x04))\n      shr(0xe0, calldataload(0x00))\n      dup1\n      0x715018a6\n      gt\n      tag_18\n      jumpi\n      dup1\n      0xa457c2d7\n      gt\n      tag_19\n      jumpi\n      dup1\n      0xa457c2d7\n      eq\n      tag_14\n      jumpi\n      dup1\n      0xa9059cbb\n      eq\n      tag_15\n      jumpi\n      dup1\n      0xdd62ed3e\n      eq\n      tag_16\n      jumpi\n      dup1\n      0xf2fde38b\n      eq\n      tag_17\n      jumpi\n      jump(tag_1)\n    tag_19:\n      dup1\n      0x715018a6\n      eq\n      tag_10\n      jumpi\n      dup1\n      0x7e72fb52\n      eq\n      tag_11\n      jumpi\n      dup1\n      0x8da5cb5b\n      eq\n      tag_12\n      jumpi\n      dup1\n      0x95d89b41\n      eq\n      tag_13\n      jumpi\n      jump(tag_1)\n    tag_18:\n      dup1\n      0x313ce567\n      gt\n      tag_20\n      jumpi\n      dup1\n      0x313ce567\n      eq\n      tag_6\n      jumpi\n      dup1\n      0x39509351\n      eq\n      tag_7\n      jumpi\n      dup1\n      0x40c10f19\n      eq\n      tag_8\n      jumpi\n      dup1\n      0x70a08231\n      eq\n      tag_9\n      jumpi\n      jump(tag_1)\n    tag_20:\n      dup1\n      0x06fdde03\n      eq\n      tag_2\n      jumpi\n      dup1\n      0x095ea7b3\n      eq\n      tag_3\n      jumpi\n      dup1\n      0x18160ddd\n      eq\n      tag_4\n      jumpi\n      dup1\n      0x23b872dd\n      eq\n      tag_5\n      jumpi\n    tag_1:\n      0x00\n      dup1\n      revert\n        /* \"@openzeppelin/contracts@4.5.0/token/ERC20/ERC20.sol\":2156:2254  function name() public view virtual override returns (string memory) {... */\n    tag_2:\n      callvalue\n      dup1\n      iszero\n      tag_21\n      jumpi\n      0x00\n      dup1\n      revert\n    tag_21:\n      pop\n      tag_22\n      tag_23\n      jump\t// in\n    tag_22:\n      mload(0x40)\n      tag_24\n      swap2\n      swap1\n      tag_25\n      jump\t// in\n    tag_24:\n      mload(0x40)\n      dup1\n      swap2\n      sub\n      swap1\n      return\n        /* \"@openzeppelin/contracts@4.5.0/token/ERC20/ERC20.sol\":4433:4630  function approve(address spender, uint256 amount) public virtual override returns (bool) {... */\n    tag_3:\n      callvalue\n      dup1\n      iszero\n      tag_26\n      jumpi\n      0x00\n      dup1\n      revert\n    tag_26:\n      pop\n      tag_27\n      0x04\n      dup1\n      calldatasize\n      sub\n      dup2\n      add\n      swap1\n      tag_28\n      swap2\n      swap1\n      tag_29\n      jump\t// in\n    tag_28:\n      tag_30\n      jump\t// in\n    tag_27:\n      mload(0x40)\n      tag_31\n      swap2\n      swap1\n      tag_32\n      jump\t// in\n    tag_31:\n      mload(0x40)\n      dup1\n      swap2\n      sub\n      swap1\n      return\n        /* \"@openzeppelin/contracts@4.5.0/token/ERC20/ERC20.sol\":3244:3350  function totalSupply() public view virtual override returns (uint256) {... */\n    tag_4:\n      callvalue\n      dup1\n      iszero\n      tag_33\n      jumpi\n      0x00\n      dup1\n      revert\n    tag_33:\n      pop\n      tag_34\n      tag_35\n      jump\t// in\n    tag_34:\n      mload(0x40)\n      tag_36\n      swap2\n      swap1\n      tag_37\n      jump\t// in\n    tag_36:\n      mload(0x40)\n      dup1\n      swap2\n      sub\n      swap1\n      return\n        /* \"@openzeppelin/contracts@4.5.0/token/ERC20/ERC20.sol\":5192:5478  function transferFrom(... */\n    tag_5:\n      callvalue\n      dup1\n      iszero\n      tag_38\n      jumpi\n      0x00\n      dup1\n      revert\n    tag_38:\n      pop\n      tag_39\n      0x04\n      dup1\n      calldatasize\n      sub\n      dup2\n      add\n      swap1\n      tag_40\n      swap2\n      swap1\n      tag_41\n      jump\t// in\n    tag_40:\n      tag_42\n      jump\t// in\n    tag_39:\n      mload(0x40)\n      tag_43\n      swap2\n      swap1\n      tag_32\n      jump\t// in\n    tag_43:\n      mload(0x40)\n      dup1\n      swap2\n      sub\n      swap1\n      return\n        /* \"@openzeppelin/contracts@4.5.0/token/ERC20/ERC20.sol\":3093:3184  function decimals() public view virtual override returns (uint8) {... */\n    tag_6:\n      callvalue\n      dup1\n      iszero\n      tag_44\n      jumpi\n      0x00\n      dup1\n      revert\n    tag_44:\n      pop\n      tag_45\n      tag_46\n      jump\t// in\n    tag_45:\n      mload(0x40)\n      tag_47\n      swap2\n      swap1\n      tag_48\n      jump\t// in\n    tag_47:\n      mload(0x40)\n      dup1\n      swap2\n      sub\n      swap1\n      return\n        /* \"@openzeppelin/contracts@4.5.0/token/ERC20/ERC20.sol\":5873:6109  function increaseAllowance(address spender, uint256 addedValue) public virtual returns (bool) {... */\n    tag_7:\n      callvalue\n      dup1\n      iszero\n      tag_49\n      jumpi\n      0x00\n      dup1\n      revert\n    tag_49:\n      pop\n      tag_50\n      0x04\n      dup1\n      calldatasize\n      sub\n      dup2\n      add\n      swap1\n      tag_51\n      swap2\n      swap1\n      tag_29\n      jump\t// in\n    tag_51:\n      tag_52\n      jump\t// in\n    tag_50:\n      mload(0x40)\n      tag_53\n      swap2\n      swap1\n      tag_32\n      jump\t// in\n    tag_53:\n      mload(0x40)\n      dup1\n      swap2\n      sub\n      swap1\n      return\n        /* \"contract-3fcecc4c62.sol\":352:445  function mint(address to, uint256 amount) public onlyOwner {... */\n    tag_8:\n      callvalue\n      dup1\n      iszero\n      tag_54\n      jumpi\n      0x00\n      dup1\n      revert\n    tag_54:\n      pop\n      tag_55\n      0x04\n      dup1\n      calldatasize\n      sub\n      dup2\n      add\n      swap1\n      tag_56\n      swap2\n      swap1\n      tag_29\n      jump\t// in\n    tag_56:\n      tag_57\n      jump\t// in\n    tag_55:\n      stop\n        /* \"@openzeppelin/contracts@4.5.0/token/ERC20/ERC20.sol\":3408:3533  function balanceOf(address account) public view virtual override returns (uint256) {... */\n    tag_9:\n      callvalue\n      dup1\n      iszero\n      tag_58\n      jumpi\n      0x00\n      dup1\n      revert\n    tag_58:\n      pop\n      tag_59\n      0x04\n      dup1\n      calldatasize\n      sub\n      dup2\n      add\n      swap1\n      tag_60\n      swap2\n      swap1\n      tag_61\n      jump\t// in\n    tag_60:\n      tag_62\n      jump\t// in\n    tag_59:\n      mload(0x40)\n      tag_63\n      swap2\n      swap1\n      tag_37\n      jump\t// in\n    tag_63:\n      mload(0x40)\n      dup1\n      swap2\n      sub\n      swap1\n      return\n        /* \"@openzeppelin/contracts@4.5.0/access/Ownable.sol\":1668:1769  function renounceOwnership() public virtual onlyOwner {... */\n    tag_10:\n      callvalue\n      dup1\n      iszero\n      tag_64\n      jumpi\n      0x00\n      dup1\n      revert\n    tag_64:\n      pop\n      tag_65\n      tag_66\n      jump\t// in\n    tag_65:\n      stop\n        /* \"contract-3fcecc4c62.sol\":451:685  function buyToken(address receiver) external payable returns (uint256) {... */\n    tag_11:\n      tag_67\n      0x04\n      dup1\n      calldatasize\n      sub\n      dup2\n      add\n      swap1\n      tag_68\n      swap2\n      swap1\n      tag_61\n      jump\t// in\n    tag_68:\n      tag_69\n      jump\t// in\n    tag_67:\n      mload(0x40)\n      tag_70\n      swap2\n      swap1\n      tag_37\n      jump\t// in\n    tag_70:\n      mload(0x40)\n      dup1\n      swap2\n      sub\n      swap1\n      return\n        /* \"@openzeppelin/contracts@4.5.0/access/Ownable.sol\":1036:1121  function owner() public view virtual returns (address) {... */\n    tag_12:\n      callvalue\n      dup1\n      iszero\n      tag_71\n      jumpi\n      0x00\n      dup1\n      revert\n    tag_71:\n      pop\n      tag_72\n      tag_73\n      jump\t// in\n    tag_72:\n      mload(0x40)\n      tag_74\n      swap2\n      swap1\n      tag_75\n      jump\t// in\n    tag_74:\n      mload(0x40)\n      dup1\n      swap2\n      sub\n      swap1\n      return\n        /* \"@openzeppelin/contracts@4.5.0/token/ERC20/ERC20.sol\":2367:2469  function symbol() public view virtual override returns (string memory) {... */\n    tag_13:\n      callvalue\n      dup1\n      iszero\n      tag_76\n      jumpi\n      0x00\n      dup1\n      revert\n    tag_76:\n      pop\n      tag_77\n      tag_78\n      jump\t// in\n    tag_77:\n      mload(0x40)\n      tag_79\n      swap2\n      swap1\n      tag_25\n      jump\t// in\n    tag_79:\n      mload(0x40)\n      dup1\n      swap2\n      sub\n      swap1\n      return\n        /* \"@openzeppelin/contracts@4.5.0/token/ERC20/ERC20.sol\":6596:7025  function decreaseAllowance(address spender, uint256 subtractedValue) public virtual returns (bool) {... */\n    tag_14:\n      callvalue\n      dup1\n      iszero\n      tag_80\n      jumpi\n      0x00\n      dup1\n      revert\n    tag_80:\n      pop\n      tag_81\n      0x04\n      dup1\n      calldatasize\n      sub\n      dup2\n      add\n      swap1\n      tag_82\n      swap2\n      swap1\n      tag_29\n      jump\t// in\n    tag_82:\n      tag_83\n      jump\t// in\n    tag_81:\n      mload(0x40)\n      tag_84\n      swap2\n      swap1\n      tag_32\n      jump\t// in\n    tag_84:\n      mload(0x40)\n      dup1\n      swap2\n      sub\n      swap1\n      return\n        /* \"@openzeppelin/contracts@4.5.0/token/ERC20/ERC20.sol\":3729:3918  function transfer(address to, uint256 amount) public virtual override returns (bool) {... */\n    tag_15:\n      callvalue\n      dup1\n      iszero\n      tag_85\n      jumpi\n      0x00\n      dup1\n      revert\n    tag_85:\n      pop\n      tag_86\n      0x04\n      dup1\n      calldatasize\n      sub\n      dup2\n      add\n      swap1\n      tag_87\n      swap2\n      swap1\n      tag_29\n      jump\t// in\n    tag_87:\n      tag_88\n      jump\t// in\n    tag_86:\n      mload(0x40)\n      tag_89\n      swap2\n      swap1\n      tag_32\n      jump\t// in\n    tag_89:\n      mload(0x40)\n      dup1\n      swap2\n      sub\n      swap1\n      return\n        /* \"@openzeppelin/contracts@4.5.0/token/ERC20/ERC20.sol\":3976:4125  function allowance(address owner, address spender) public view virtual override returns (uint256) {... */\n    tag_16:\n      callvalue\n      dup1\n      iszero\n      tag_90\n      jumpi\n      0x00\n      dup1\n      revert\n    tag_90:\n      pop\n      tag_91\n      0x04\n      dup1\n      calldatasize\n      sub\n      dup2\n      add\n      swap1\n      tag_92\n      swap2\n      swap1\n      tag_93\n      jump\t// in\n    tag_92:\n      tag_94\n      jump\t// in\n    tag_91:\n      mload(0x40)\n      tag_95\n      swap2\n      swap1\n      tag_37\n      jump\t// in\n    tag_95:\n      mload(0x40)\n      dup1\n      swap2\n      sub\n      swap1\n      return\n        /* \"@openzeppelin/contracts@4.5.0/access/Ownable.sol\":1918:2116  function transferOwnership(address newOwner) public virtual onlyOwner {... */\n    tag_17:\n      callvalue\n      dup1\n      iszero\n      tag_96\n      jumpi\n      0x00\n      dup1\n      revert\n    tag_96:\n      pop\n      tag_97\n      0x04\n      dup1\n      calldatasize\n      sub\n      dup2\n      add\n      swap1\n      tag_98\n      swap2\n      swap1\n      tag_61\n      jump\t// in\n    tag_98:\n      tag_99\n      jump\t// in\n    tag_97:\n      stop\n        /* \"@openzeppelin/contracts@4.5.0/token/ERC20/ERC20.sol\":2156:2254  function name() public view virtual override returns (string memory) {... */\n    tag_23:\n        /* \"@openzeppelin/contracts@4.5.0/token/ERC20/ERC20.sol\":2210:2223  string memory */\n      0x60\n        /* \"@openzeppelin/contracts@4.5.0/token/ERC20/ERC20.sol\":2242:2247  _name */\n      0x03\n        /* \"@openzeppelin/contracts@4.5.0/token/ERC20/ERC20.sol\":2235:2247  return _name */\n      dup1\n      sload\n      tag_101\n      swap1\n      tag_102\n      jump\t// in\n    tag_101:\n      dup1\n      0x1f\n      add\n      0x20\n      dup1\n      swap2\n      div\n      mul\n      0x20\n      add\n      mload(0x40)\n      swap1\n      dup2\n      add\n      0x40\n      mstore\n      dup1\n      swap3\n      swap2\n      swap1\n      dup2\n      dup2\n      mstore\n      0x20\n      add\n      dup3\n      dup1\n      sload\n      tag_103\n      swap1\n      tag_102\n      jump\t// in\n    tag_103:\n      dup1\n      iszero\n      tag_104\n      jumpi\n      dup1\n      0x1f\n      lt\n      tag_105\n      jumpi\n      0x0100\n      dup1\n      dup4\n      sload\n      div\n      mul\n      dup4\n      mstore\n      swap2\n      0x20\n      add\n      swap2\n      jump(tag_104)\n    tag_105:\n      dup3\n      add\n      swap2\n      swap1\n      0x00\n      mstore\n      keccak256(0x00, 0x20)\n      swap1\n    tag_106:\n      dup2\n      sload\n      dup2\n      mstore\n      swap1\n      0x01\n      add\n      swap1\n      0x20\n      add\n      dup1\n      dup4\n      gt\n      tag_106\n      jumpi\n      dup3\n      swap1\n      sub\n      0x1f\n      and\n      dup3\n      add\n      swap2\n    tag_104:\n      pop\n      pop\n      pop\n      pop\n      pop\n      swap1\n      pop\n        /* \"@openzeppelin/contracts@4.5.0/token/ERC20/ERC20.sol\":2156:2254  function name() public view virtual override returns (string memory) {... */\n      swap1\n      jump\t// out\n        /* \"@openzeppelin/contracts@4.5.0/token/ERC20/ERC20.sol\":4433:4630  function approve(address spender, uint256 amount) public virtual override returns (bool) {... */\n    tag_30:\n        /* \"@openzeppelin/contracts@4.5.0/token/ERC20/ERC20.sol\":4516:4520  bool */\n      0x00\n        /* \"@openzeppelin/contracts@4.5.0/token/ERC20/ERC20.sol\":4532:4545  address owner */\n      dup1\n        /* \"@openzeppelin/contracts@4.5.0/token/ERC20/ERC20.sol\":4548:4560  _msgSender() */\n      tag_108\n        /* \"@openzeppelin/contracts@4.5.0/token/ERC20/ERC20.sol\":4548:4558  _msgSender */\n      tag_109\n        /* \"@openzeppelin/contracts@4.5.0/token/ERC20/ERC20.sol\":4548:4560  _msgSender() */\n      jump\t// in\n    tag_108:\n        /* \"@openzeppelin/contracts@4.5.0/token/ERC20/ERC20.sol\":4532:4560  address owner = _msgSender() */\n      swap1\n      pop\n        /* \"@openzeppelin/contracts@4.5.0/token/ERC20/ERC20.sol\":4570:4602  _approve(owner, spender, amount) */\n      tag_110\n        /* \"@openzeppelin/contracts@4.5.0/token/ERC20/ERC20.sol\":4579:4584  owner */\n      dup2\n        /* \"@openzeppelin/contracts@4.5.0/token/ERC20/ERC20.sol\":4586:4593  spender */\n      dup6\n        /* \"@openzeppelin/contracts@4.5.0/token/ERC20/ERC20.sol\":4595:4601  amount */\n      dup6\n        /* \"@openzeppelin/contracts@4.5.0/token/ERC20/ERC20.sol\":4570:4578  _approve */\n      tag_111\n        /* \"@openzeppelin/contracts@4.5.0/token/ERC20/ERC20.sol\":4570:4602  _approve(owner, spender, amount) */\n      jump\t// in\n    tag_110:\n        /* \"@openzeppelin/contracts@4.5.0/token/ERC20/ERC20.sol\":4619:4623  true */\n      0x01\n        /* \"@openzeppelin/contracts@4.5.0/token/ERC20/ERC20.sol\":4612:4623  return true */\n      swap2\n      pop\n      pop\n        /* \"@openzeppelin/contracts@4.5.0/token/ERC20/ERC20.sol\":4433:4630  function approve(address spender, uint256 amount) public virtual override returns (bool) {... */\n      swap3\n      swap2\n      pop\n      pop\n      jump\t// out\n        /* \"@openzeppelin/contracts@4.5.0/token/ERC20/ERC20.sol\":3244:3350  function totalSupply() public view virtual override returns (uint256) {... */\n    tag_35:\n        /* \"@openzeppelin/contracts@4.5.0/token/ERC20/ERC20.sol\":3305:3312  uint256 */\n      0x00\n        /* \"@openzeppelin/contracts@4.5.0/token/ERC20/ERC20.sol\":3331:3343  _totalSupply */\n      sload(0x02)\n        /* \"@openzeppelin/contracts@4.5.0/token/ERC20/ERC20.sol\":3324:3343  return _totalSupply */\n      swap1\n      pop\n        /* \"@openzeppelin/contracts@4.5.0/token/ERC20/ERC20.sol\":3244:3350  function totalSupply() public view virtual override returns (uint256) {... */\n      swap1\n      jump\t// out\n        /* \"@openzeppelin/contracts@4.5.0/token/ERC20/ERC20.sol\":5192:5478  function transferFrom(... */\n    tag_42:\n        /* \"@openzeppelin/contracts@4.5.0/token/ERC20/ERC20.sol\":5319:5323  bool */\n      0x00\n        /* \"@openzeppelin/contracts@4.5.0/token/ERC20/ERC20.sol\":5335:5350  address spender */\n      dup1\n        /* \"@openzeppelin/contracts@4.5.0/token/ERC20/ERC20.sol\":5353:5365  _msgSender() */\n      tag_114\n        /* \"@openzeppelin/contracts@4.5.0/token/ERC20/ERC20.sol\":5353:5363  _msgSender */\n      tag_109\n        /* \"@openzeppelin/contracts@4.5.0/token/ERC20/ERC20.sol\":5353:5365  _msgSender() */\n      jump\t// in\n    tag_114:\n        /* \"@openzeppelin/contracts@4.5.0/token/ERC20/ERC20.sol\":5335:5365  address spender = _msgSender() */\n      swap1\n      pop\n        /* \"@openzeppelin/contracts@4.5.0/token/ERC20/ERC20.sol\":5375:5413  _spendAllowance(from, spender, amount) */\n      tag_115\n        /* \"@openzeppelin/contracts@4.5.0/token/ERC20/ERC20.sol\":5391:5395  from */\n      dup6\n        /* \"@openzeppelin/contracts@4.5.0/token/ERC20/ERC20.sol\":5397:5404  spender */\n      dup3\n        /* \"@openzeppelin/contracts@4.5.0/token/ERC20/ERC20.sol\":5406:5412  amount */\n      dup6\n        /* \"@openzeppelin/contracts@4.5.0/token/ERC20/ERC20.sol\":5375:5390  _spendAllowance */\n      tag_116\n        /* \"@openzeppelin/contracts@4.5.0/token/ERC20/ERC20.sol\":5375:5413  _spendAllowance(from, spender, amount) */\n      jump\t// in\n    tag_115:\n        /* \"@openzeppelin/contracts@4.5.0/token/ERC20/ERC20.sol\":5423:5450  _transfer(from, to, amount) */\n      tag_117\n        /* \"@openzeppelin/contracts@4.5.0/token/ERC20/ERC20.sol\":5433:5437  from */\n      dup6\n        /* \"@openzeppelin/contracts@4.5.0/token/ERC20/ERC20.sol\":5439:5441  to */\n      dup6\n        /* \"@openzeppelin/contracts@4.5.0/token/ERC20/ERC20.sol\":5443:5449  amount */\n      dup6\n        /* \"@openzeppelin/contracts@4.5.0/token/ERC20/ERC20.sol\":5423:5432  _transfer */\n      tag_118\n        /* \"@openzeppelin/contracts@4.5.0/token/ERC20/ERC20.sol\":5423:5450  _transfer(from, to, amount) */\n      jump\t// in\n    tag_117:\n        /* \"@openzeppelin/contracts@4.5.0/token/ERC20/ERC20.sol\":5467:5471  true */\n      0x01\n        /* \"@openzeppelin/contracts@4.5.0/token/ERC20/ERC20.sol\":5460:5471  return true */\n      swap2\n      pop\n      pop\n        /* \"@openzeppelin/contracts@4.5.0/token/ERC20/ERC20.sol\":5192:5478  function transferFrom(... */\n      swap4\n      swap3\n      pop\n      pop\n      pop\n      jump\t// out\n        /* \"@openzeppelin/contracts@4.5.0/token/ERC20/ERC20.sol\":3093:3184  function decimals() public view virtual override returns (uint8) {... */\n    tag_46:\n        /* \"@openzeppelin/contracts@4.5.0/token/ERC20/ERC20.sol\":3151:3156  uint8 */\n      0x00\n        /* \"@openzeppelin/contracts@4.5.0/token/ERC20/ERC20.sol\":3175:3177  18 */\n      0x12\n        /* \"@openzeppelin/contracts@4.5.0/token/ERC20/ERC20.sol\":3168:3177  return 18 */\n      swap1\n      pop\n        /* \"@openzeppelin/contracts@4.5.0/token/ERC20/ERC20.sol\":3093:3184  function decimals() public view virtual override returns (uint8) {... */\n      swap1\n      jump\t// out\n        /* \"@openzeppelin/contracts@4.5.0/token/ERC20/ERC20.sol\":5873:6109  function increaseAllowance(address spender, uint256 addedValue) public virtual returns (bool) {... */\n    tag_52:\n        /* \"@openzeppelin/contracts@4.5.0/token/ERC20/ERC20.sol\":5961:5965  bool */\n      0x00\n        /* \"@openzeppelin/contracts@4.5.0/token/ERC20/ERC20.sol\":5977:5990  address owner */\n      dup1\n        /* \"@openzeppelin/contracts@4.5.0/token/ERC20/ERC20.sol\":5993:6005  _msgSender() */\n      tag_121\n        /* \"@openzeppelin/contracts@4.5.0/token/ERC20/ERC20.sol\":5993:6003  _msgSender */\n      tag_109\n        /* \"@openzeppelin/contracts@4.5.0/token/ERC20/ERC20.sol\":5993:6005  _msgSender() */\n      jump\t// in\n    tag_121:\n        /* \"@openzeppelin/contracts@4.5.0/token/ERC20/ERC20.sol\":5977:6005  address owner = _msgSender() */\n      swap1\n      pop\n        /* \"@openzeppelin/contracts@4.5.0/token/ERC20/ERC20.sol\":6015:6081  _approve(owner, spender, _allowances[owner][spender] + addedValue) */\n      tag_122\n        /* \"@openzeppelin/contracts@4.5.0/token/ERC20/ERC20.sol\":6024:6029  owner */\n      dup2\n        /* \"@openzeppelin/contracts@4.5.0/token/ERC20/ERC20.sol\":6031:6038  spender */\n      dup6\n        /* \"@openzeppelin/contracts@4.5.0/token/ERC20/ERC20.sol\":6070:6080  addedValue */\n      dup6\n        /* \"@openzeppelin/contracts@4.5.0/token/ERC20/ERC20.sol\":6040:6051  _allowances */\n      0x01\n        /* \"@openzeppelin/contracts@4.5.0/token/ERC20/ERC20.sol\":6040:6058  _allowances[owner] */\n      0x00\n        /* \"@openzeppelin/contracts@4.5.0/token/ERC20/ERC20.sol\":6052:6057  owner */\n      dup7\n        /* \"@openzeppelin/contracts@4.5.0/token/ERC20/ERC20.sol\":6040:6058  _allowances[owner] */\n      0xffffffffffffffffffffffffffffffffffffffff\n      and\n      0xffffffffffffffffffffffffffffffffffffffff\n      and\n      dup2\n      mstore\n      0x20\n      add\n      swap1\n      dup2\n      mstore\n      0x20\n      add\n      0x00\n      keccak256\n        /* \"@openzeppelin/contracts@4.5.0/token/ERC20/ERC20.sol\":6040:6067  _allowances[owner][spender] */\n      0x00\n        /* \"@openzeppelin/contracts@4.5.0/token/ERC20/ERC20.sol\":6059:6066  spender */\n      dup10\n        /* \"@openzeppelin/contracts@4.5.0/token/ERC20/ERC20.sol\":6040:6067  _allowances[owner][spender] */\n      0xffffffffffffffffffffffffffffffffffffffff\n      and\n      0xffffffffffffffffffffffffffffffffffffffff\n      and\n      dup2\n      mstore\n      0x20\n      add\n      swap1\n      dup2\n      mstore\n      0x20\n      add\n      0x00\n      keccak256\n      sload\n        /* \"@openzeppelin/contracts@4.5.0/token/ERC20/ERC20.sol\":6040:6080  _allowances[owner][spender] + addedValue */\n      tag_123\n      swap2\n      swap1\n      tag_124\n      jump\t// in\n    tag_123:\n        /* \"@openzeppelin/contracts@4.5.0/token/ERC20/ERC20.sol\":6015:6023  _approve */\n      tag_111\n        /* \"@openzeppelin/contracts@4.5.0/token/ERC20/ERC20.sol\":6015:6081  _approve(owner, spender, _allowances[owner][spender] + addedValue) */\n      jump\t// in\n    tag_122:\n        /* \"@openzeppelin/contracts@4.5.0/token/ERC20/ERC20.sol\":6098:6102  true */\n      0x01\n        /* \"@openzeppelin/contracts@4.5.0/token/ERC20/ERC20.sol\":6091:6102  return true */\n      swap2\n      pop\n      pop\n        /* \"@openzeppelin/contracts@4.5.0/token/ERC20/ERC20.sol\":5873:6109  function increaseAllowance(address spender, uint256 addedValue) public virtual returns (bool) {... */\n      swap3\n      swap2\n      pop\n      pop\n      jump\t// out\n        /* \"contract-3fcecc4c62.sol\":352:445  function mint(address to, uint256 amount) public onlyOwner {... */\n    tag_57:\n        /* \"@openzeppelin/contracts@4.5.0/access/Ownable.sol\":1259:1271  _msgSender() */\n      tag_126\n        /* \"@openzeppelin/contracts@4.5.0/access/Ownable.sol\":1259:1269  _msgSender */\n      tag_109\n        /* \"@openzeppelin/contracts@4.5.0/access/Ownable.sol\":1259:1271  _msgSender() */\n      jump\t// in\n    tag_126:\n        /* \"@openzeppelin/contracts@4.5.0/access/Ownable.sol\":1248:1271  owner() == _msgSender() */\n      0xffffffffffffffffffffffffffffffffffffffff\n      and\n        /* \"@openzeppelin/contracts@4.5.0/access/Ownable.sol\":1248:1255  owner() */\n      tag_127\n        /* \"@openzeppelin/contracts@4.5.0/access/Ownable.sol\":1248:1253  owner */\n      tag_73\n        /* \"@openzeppelin/contracts@4.5.0/access/Ownable.sol\":1248:1255  owner() */\n      jump\t// in\n    tag_127:\n        /* \"@openzeppelin/contracts@4.5.0/access/Ownable.sol\":1248:1271  owner() == _msgSender() */\n      0xffffffffffffffffffffffffffffffffffffffff\n      and\n      eq\n        /* \"@openzeppelin/contracts@4.5.0/access/Ownable.sol\":1240:1308  require(owner() == _msgSender(), \"Ownable: caller is not the owner\") */\n      tag_128\n      jumpi\n      mload(0x40)\n      0x08c379a000000000000000000000000000000000000000000000000000000000\n      dup2\n      mstore\n      0x04\n      add\n      tag_129\n      swap1\n      tag_130\n      jump\t// in\n    tag_129:\n      mload(0x40)\n      dup1\n      swap2\n      sub\n      swap1\n      revert\n    tag_128:\n        /* \"contract-3fcecc4c62.sol\":421:438  _mint(to, amount) */\n      tag_132\n        /* \"contract-3fcecc4c62.sol\":427:429  to */\n      dup3\n        /* \"contract-3fcecc4c62.sol\":431:437  amount */\n      dup3\n        /* \"contract-3fcecc4c62.sol\":421:426  _mint */\n      tag_133\n        /* \"contract-3fcecc4c62.sol\":421:438  _mint(to, amount) */\n      jump\t// in\n    tag_132:\n        /* \"contract-3fcecc4c62.sol\":352:445  function mint(address to, uint256 amount) public onlyOwner {... */\n      pop\n      pop\n      jump\t// out\n        /* \"@openzeppelin/contracts@4.5.0/token/ERC20/ERC20.sol\":3408:3533  function balanceOf(address account) public view virtual override returns (uint256) {... */\n    tag_62:\n        /* \"@openzeppelin/contracts@4.5.0/token/ERC20/ERC20.sol\":3482:3489  uint256 */\n      0x00\n        /* \"@openzeppelin/contracts@4.5.0/token/ERC20/ERC20.sol\":3508:3517  _balances */\n      dup1\n        /* \"@openzeppelin/contracts@4.5.0/token/ERC20/ERC20.sol\":3508:3526  _balances[account] */\n      0x00\n        /* \"@openzeppelin/contracts@4.5.0/token/ERC20/ERC20.sol\":3518:3525  account */\n      dup4\n        /* \"@openzeppelin/contracts@4.5.0/token/ERC20/ERC20.sol\":3508:3526  _balances[account] */\n      0xffffffffffffffffffffffffffffffffffffffff\n      and\n      0xffffffffffffffffffffffffffffffffffffffff\n      and\n      dup2\n      mstore\n      0x20\n      add\n      swap1\n      dup2\n      mstore\n      0x20\n      add\n      0x00\n      keccak256\n      sload\n        /* \"@openzeppelin/contracts@4.5.0/token/ERC20/ERC20.sol\":3501:3526  return _balances[account] */\n      swap1\n      pop\n        /* \"@openzeppelin/contracts@4.5.0/token/ERC20/ERC20.sol\":3408:3533  function balanceOf(address account) public view virtual override returns (uint256) {... */\n      swap2\n      swap1\n      pop\n      jump\t// out\n        /* \"@openzeppelin/contracts@4.5.0/access/Ownable.sol\":1668:1769  function renounceOwnership() public virtual onlyOwner {... */\n    tag_66:\n        /* \"@openzeppelin/contracts@4.5.0/access/Ownable.sol\":1259:1271  _msgSender() */\n      tag_136\n        /* \"@openzeppelin/contracts@4.5.0/access/Ownable.sol\":1259:1269  _msgSender */\n      tag_109\n        /* \"@openzeppelin/contracts@4.5.0/access/Ownable.sol\":1259:1271  _msgSender() */\n      jump\t// in\n    tag_136:\n        /* \"@openzeppelin/contracts@4.5.0/access/Ownable.sol\":1248:1271  owner() == _msgSender() */\n      0xffffffffffffffffffffffffffffffffffffffff\n      and\n        /* \"@openzeppelin/contracts@4.5.0/access/Ownable.sol\":1248:1255  owner() */\n      tag_137\n        /* \"@openzeppelin/contracts@4.5.0/access/Ownable.sol\":1248:1253  owner */\n      tag_73\n        /* \"@openzeppelin/contracts@4.5.0/access/Ownable.sol\":1248:1255  owner() */\n      jump\t// in\n    tag_137:\n        /* \"@openzeppelin/contracts@4.5.0/access/Ownable.sol\":1248:1271  owner() == _msgSender() */\n      0xffffffffffffffffffffffffffffffffffffffff\n      and\n      eq\n        /* \"@openzeppelin/contracts@4.5.0/access/Ownable.sol\":1240:1308  require(owner() == _msgSender(), \"Ownable: caller is not the owner\") */\n      tag_138\n      jumpi\n      mload(0x40)\n      0x08c379a000000000000000000000000000000000000000000000000000000000\n      dup2\n      mstore\n      0x04\n      add\n      tag_139\n      swap1\n      tag_130\n      jump\t// in\n    tag_139:\n      mload(0x40)\n      dup1\n      swap2\n      sub\n      swap1\n      revert\n    tag_138:\n        /* \"@openzeppelin/contracts@4.5.0/access/Ownable.sol\":1732:1762  _transferOwnership(address(0)) */\n      tag_141\n        /* \"@openzeppelin/contracts@4.5.0/access/Ownable.sol\":1759:1760  0 */\n      0x00\n        /* \"@openzeppelin/contracts@4.5.0/access/Ownable.sol\":1732:1750  _transferOwnership */\n      tag_142\n        /* \"@openzeppelin/contracts@4.5.0/access/Ownable.sol\":1732:1762  _transferOwnership(address(0)) */\n      jump\t// in\n    tag_141:\n        /* \"@openzeppelin/contracts@4.5.0/access/Ownable.sol\":1668:1769  function renounceOwnership() public virtual onlyOwner {... */\n      jump\t// out\n        /* \"contract-3fcecc4c62.sol\":451:685  function buyToken(address receiver) external payable returns (uint256) {... */\n    tag_69:\n        /* \"contract-3fcecc4c62.sol\":513:520  uint256 */\n      0x00\n        /* \"contract-3fcecc4c62.sol\":552:553  0 */\n      dup1\n        /* \"contract-3fcecc4c62.sol\":540:549  msg.value */\n      callvalue\n        /* \"contract-3fcecc4c62.sol\":540:553  msg.value > 0 */\n      gt\n        /* \"contract-3fcecc4c62.sol\":532:591  require(msg.value > 0, \"You cannot mint RCN with zero ETH\") */\n      tag_144\n      jumpi\n      mload(0x40)\n      0x08c379a000000000000000000000000000000000000000000000000000000000\n      dup2\n      mstore\n      0x04\n      add\n      tag_145\n      swap1\n      tag_146\n      jump\t// in\n    tag_145:\n      mload(0x40)\n      dup1\n      swap2\n      sub\n      swap1\n      revert\n    tag_144:\n        /* \"contract-3fcecc4c62.sol\":602:616  uint256 amount */\n      0x00\n        /* \"contract-3fcecc4c62.sol\":637:645  10 ** 18 */\n      0x0de0b6b3a7640000\n        /* \"contract-3fcecc4c62.sol\":631:635  1000 */\n      0x03e8\n        /* \"contract-3fcecc4c62.sol\":619:628  msg.value */\n      callvalue\n        /* \"contract-3fcecc4c62.sol\":619:635  msg.value * 1000 */\n      tag_147\n      swap2\n      swap1\n      tag_148\n      jump\t// in\n    tag_147:\n        /* \"contract-3fcecc4c62.sol\":619:645  msg.value * 1000/ 10 ** 18 */\n      tag_149\n      swap2\n      swap1\n      tag_150\n      jump\t// in\n    tag_149:\n        /* \"contract-3fcecc4c62.sol\":602:645  uint256 amount = msg.value * 1000/ 10 ** 18 */\n      swap1\n      pop\n        /* \"contract-3fcecc4c62.sol\":655:678  _mint(receiver, amount) */\n      tag_151\n        /* \"contract-3fcecc4c62.sol\":661:669  receiver */\n      dup4\n        /* \"contract-3fcecc4c62.sol\":671:677  amount */\n      dup3\n        /* \"contract-3fcecc4c62.sol\":655:660  _mint */\n      tag_133\n        /* \"contract-3fcecc4c62.sol\":655:678  _mint(receiver, amount) */\n      jump\t// in\n    tag_151:\n        /* \"contract-3fcecc4c62.sol\":451:685  function buyToken(address receiver) external payable returns (uint256) {... */\n      pop\n      swap2\n      swap1\n      pop\n      jump\t// out\n        /* \"@openzeppelin/contracts@4.5.0/access/Ownable.sol\":1036:1121  function owner() public view virtual returns (address) {... */\n    tag_73:\n        /* \"@openzeppelin/contracts@4.5.0/access/Ownable.sol\":1082:1089  address */\n      0x00\n        /* \"@openzeppelin/contracts@4.5.0/access/Ownable.sol\":1108:1114  _owner */\n      0x05\n      0x00\n      swap1\n      sload\n      swap1\n      0x0100\n      exp\n      swap1\n      div\n      0xffffffffffffffffffffffffffffffffffffffff\n      and\n        /* \"@openzeppelin/contracts@4.5.0/access/Ownable.sol\":1101:1114  return _owner */\n      swap1\n      pop\n        /* \"@openzeppelin/contracts@4.5.0/access/Ownable.sol\":1036:1121  function owner() public view virtual returns (address) {... */\n      swap1\n      jump\t// out\n        /* \"@openzeppelin/contracts@4.5.0/token/ERC20/ERC20.sol\":2367:2469  function symbol() public view virtual override returns (string memory) {... */\n    tag_78:\n        /* \"@openzeppelin/contracts@4.5.0/token/ERC20/ERC20.sol\":2423:2436  string memory */\n      0x60\n        /* \"@openzeppelin/contracts@4.5.0/token/ERC20/ERC20.sol\":2455:2462  _symbol */\n      0x04\n        /* \"@openzeppelin/contracts@4.5.0/token/ERC20/ERC20.sol\":2448:2462  return _symbol */\n      dup1\n      sload\n      tag_154\n      swap1\n      tag_102\n      jump\t// in\n    tag_154:\n      dup1\n      0x1f\n      add\n      0x20\n      dup1\n      swap2\n      div\n      mul\n      0x20\n      add\n      mload(0x40)\n      swap1\n      dup2\n      add\n      0x40\n      mstore\n      dup1\n      swap3\n      swap2\n      swap1\n      dup2\n      dup2\n      mstore\n      0x20\n      add\n      dup3\n      dup1\n      sload\n      tag_155\n      swap1\n      tag_102\n      jump\t// in\n    tag_155:\n      dup1\n      iszero\n      tag_156\n      jumpi\n      dup1\n      0x1f\n      lt\n      tag_157\n      jumpi\n      0x0100\n      dup1\n      dup4\n      sload\n      div\n      mul\n      dup4\n      mstore\n      swap2\n      0x20\n      add\n      swap2\n      jump(tag_156)\n    tag_157:\n      dup3\n      add\n      swap2\n      swap1\n      0x00\n      mstore\n      keccak256(0x00, 0x20)\n      swap1\n    tag_158:\n      dup2\n      sload\n      dup2\n      mstore\n      swap1\n      0x01\n      add\n      swap1\n      0x20\n      add\n      dup1\n      dup4\n      gt\n      tag_158\n      jumpi\n      dup3\n      swap1\n      sub\n      0x1f\n      and\n      dup3\n      add\n      swap2\n    tag_156:\n      pop\n      pop\n      pop\n      pop\n      pop\n      swap1\n      pop\n        /* \"@openzeppelin/contracts@4.5.0/token/ERC20/ERC20.sol\":2367:2469  function symbol() public view virtual override returns (string memory) {... */\n      swap1\n      jump\t// out\n        /* \"@openzeppelin/contracts@4.5.0/token/ERC20/ERC20.sol\":6596:7025  function decreaseAllowance(address spender, uint256 subtractedValue) public virtual returns (bool) {... */\n    tag_83:\n        /* \"@openzeppelin/contracts@4.5.0/token/ERC20/ERC20.sol\":6689:6693  bool */\n      0x00\n        /* \"@openzeppelin/contracts@4.5.0/token/ERC20/ERC20.sol\":6705:6718  address owner */\n      dup1\n        /* \"@openzeppelin/contracts@4.5.0/token/ERC20/ERC20.sol\":6721:6733  _msgSender() */\n      tag_160\n        /* \"@openzeppelin/contracts@4.5.0/token/ERC20/ERC20.sol\":6721:6731  _msgSender */\n      tag_109\n        /* \"@openzeppelin/contracts@4.5.0/token/ERC20/ERC20.sol\":6721:6733  _msgSender() */\n      jump\t// in\n    tag_160:\n        /* \"@openzeppelin/contracts@4.5.0/token/ERC20/ERC20.sol\":6705:6733  address owner = _msgSender() */\n      swap1\n      pop\n        /* \"@openzeppelin/contracts@4.5.0/token/ERC20/ERC20.sol\":6743:6767  uint256 currentAllowance */\n      0x00\n        /* \"@openzeppelin/contracts@4.5.0/token/ERC20/ERC20.sol\":6770:6781  _allowances */\n      0x01\n        /* \"@openzeppelin/contracts@4.5.0/token/ERC20/ERC20.sol\":6770:6788  _allowances[owner] */\n      0x00\n        /* \"@openzeppelin/contracts@4.5.0/token/ERC20/ERC20.sol\":6782:6787  owner */\n      dup4\n        /* \"@openzeppelin/contracts@4.5.0/token/ERC20/ERC20.sol\":6770:6788  _allowances[owner] */\n      0xffffffffffffffffffffffffffffffffffffffff\n      and\n      0xffffffffffffffffffffffffffffffffffffffff\n      and\n      dup2\n      mstore\n      0x20\n      add\n      swap1\n      dup2\n      mstore\n      0x20\n      add\n      0x00\n      keccak256\n        /* \"@openzeppelin/contracts@4.5.0/token/ERC20/ERC20.sol\":6770:6797  _allowances[owner][spender] */\n      0x00\n        /* \"@openzeppelin/contracts@4.5.0/token/ERC20/ERC20.sol\":6789:6796  spender */\n      dup7\n        /* \"@openzeppelin/contracts@4.5.0/token/ERC20/ERC20.sol\":6770:6797  _allowances[owner][spender] */\n      0xffffffffffffffffffffffffffffffffffffffff\n      and\n      0xffffffffffffffffffffffffffffffffffffffff\n      and\n      dup2\n      mstore\n      0x20\n      add\n      swap1\n      dup2\n      mstore\n      0x20\n      add\n      0x00\n      keccak256\n      sload\n        /* \"@openzeppelin/contracts@4.5.0/token/ERC20/ERC20.sol\":6743:6797  uint256 currentAllowance = _allowances[owner][spender] */\n      swap1\n      pop\n        /* \"@openzeppelin/contracts@4.5.0/token/ERC20/ERC20.sol\":6835:6850  subtractedValue */\n      dup4\n        /* \"@openzeppelin/contracts@4.5.0/token/ERC20/ERC20.sol\":6815:6831  currentAllowance */\n      dup2\n        /* \"@openzeppelin/contracts@4.5.0/token/ERC20/ERC20.sol\":6815:6850  currentAllowance >= subtractedValue */\n      lt\n      iszero\n        /* \"@openzeppelin/contracts@4.5.0/token/ERC20/ERC20.sol\":6807:6892  require(currentAllowance >= subtractedValue, \"ERC20: decreased allowance below zero\") */\n      tag_161\n      jumpi\n      mload(0x40)\n      0x08c379a000000000000000000000000000000000000000000000000000000000\n      dup2\n      mstore\n      0x04\n      add\n      tag_162\n      swap1\n      tag_163\n      jump\t// in\n    tag_162:\n      mload(0x40)\n      dup1\n      swap2\n      sub\n      swap1\n      revert\n    tag_161:\n        /* \"@openzeppelin/contracts@4.5.0/token/ERC20/ERC20.sol\":6926:6986  _approve(owner, spender, currentAllowance - subtractedValue) */\n      tag_164\n        /* \"@openzeppelin/contracts@4.5.0/token/ERC20/ERC20.sol\":6935:6940  owner */\n      dup3\n        /* \"@openzeppelin/contracts@4.5.0/token/ERC20/ERC20.sol\":6942:6949  spender */\n      dup7\n        /* \"@openzeppelin/contracts@4.5.0/token/ERC20/ERC20.sol\":6970:6985  subtractedValue */\n      dup7\n        /* \"@openzeppelin/contracts@4.5.0/token/ERC20/ERC20.sol\":6951:6967  currentAllowance */\n      dup5\n        /* \"@openzeppelin/contracts@4.5.0/token/ERC20/ERC20.sol\":6951:6985  currentAllowance - subtractedValue */\n      sub\n        /* \"@openzeppelin/contracts@4.5.0/token/ERC20/ERC20.sol\":6926:6934  _approve */\n      tag_111\n        /* \"@openzeppelin/contracts@4.5.0/token/ERC20/ERC20.sol\":6926:6986  _approve(owner, spender, currentAllowance - subtractedValue) */\n      jump\t// in\n    tag_164:\n        /* \"@openzeppelin/contracts@4.5.0/token/ERC20/ERC20.sol\":7014:7018  true */\n      0x01\n        /* \"@openzeppelin/contracts@4.5.0/token/ERC20/ERC20.sol\":7007:7018  return true */\n      swap3\n      pop\n      pop\n      pop\n        /* \"@openzeppelin/contracts@4.5.0/token/ERC20/ERC20.sol\":6596:7025  function decreaseAllowance(address spender, uint256 subtractedValue) public virtual returns (bool) {... */\n      swap3\n      swap2\n      pop\n      pop\n      jump\t// out\n        /* \"@openzeppelin/contracts@4.5.0/token/ERC20/ERC20.sol\":3729:3918  function transfer(address to, uint256 amount) public virtual override returns (bool) {... */\n    tag_88:\n        /* \"@openzeppelin/contracts@4.5.0/token/ERC20/ERC20.sol\":3808:3812  bool */\n      0x00\n        /* \"@openzeppelin/contracts@4.5.0/token/ERC20/ERC20.sol\":3824:3837  address owner */\n      dup1\n        /* \"@openzeppelin/contracts@4.5.0/token/ERC20/ERC20.sol\":3840:3852  _msgSender() */\n      tag_166\n        /* \"@openzeppelin/contracts@4.5.0/token/ERC20/ERC20.sol\":3840:3850  _msgSender */\n      tag_109\n        /* \"@openzeppelin/contracts@4.5.0/token/ERC20/ERC20.sol\":3840:3852  _msgSender() */\n      jump\t// in\n    tag_166:\n        /* \"@openzeppelin/contracts@4.5.0/token/ERC20/ERC20.sol\":3824:3852  address owner = _msgSender() */\n      swap1\n      pop\n        /* \"@openzeppelin/contracts@4.5.0/token/ERC20/ERC20.sol\":3862:3890  _transfer(owner, to, amount) */\n      tag_167\n        /* \"@openzeppelin/contracts@4.5.0/token/ERC20/ERC20.sol\":3872:3877  owner */\n      dup2\n        /* \"@openzeppelin/contracts@4.5.0/token/ERC20/ERC20.sol\":3879:3881  to */\n      dup6\n        /* \"@openzeppelin/contracts@4.5.0/token/ERC20/ERC20.sol\":3883:3889  amount */\n      dup6\n        /* \"@openzeppelin/contracts@4.5.0/token/ERC20/ERC20.sol\":3862:3871  _transfer */\n      tag_118\n        /* \"@openzeppelin/contracts@4.5.0/token/ERC20/ERC20.sol\":3862:3890  _transfer(owner, to, amount) */\n      jump\t// in\n    tag_167:\n        /* \"@openzeppelin/contracts@4.5.0/token/ERC20/ERC20.sol\":3907:3911  true */\n      0x01\n        /* \"@openzeppelin/contracts@4.5.0/token/ERC20/ERC20.sol\":3900:3911  return true */\n      swap2\n      pop\n      pop\n        /* \"@openzeppelin/contracts@4.5.0/token/ERC20/ERC20.sol\":3729:3918  function transfer(address to, uint256 amount) public virtual override returns (bool) {... */\n      swap3\n      swap2\n      pop\n      pop\n      jump\t// out\n        /* \"@openzeppelin/contracts@4.5.0/token/ERC20/ERC20.sol\":3976:4125  function allowance(address owner, address spender) public view virtual override returns (uint256) {... */\n    tag_94:\n        /* \"@openzeppelin/contracts@4.5.0/token/ERC20/ERC20.sol\":4065:4072  uint256 */\n      0x00\n        /* \"@openzeppelin/contracts@4.5.0/token/ERC20/ERC20.sol\":4091:4102  _allowances */\n      0x01\n        /* \"@openzeppelin/contracts@4.5.0/token/ERC20/ERC20.sol\":4091:4109  _allowances[owner] */\n      0x00\n        /* \"@openzeppelin/contracts@4.5.0/token/ERC20/ERC20.sol\":4103:4108  owner */\n      dup5\n        /* \"@openzeppelin/contracts@4.5.0/token/ERC20/ERC20.sol\":4091:4109  _allowances[owner] */\n      0xffffffffffffffffffffffffffffffffffffffff\n      and\n      0xffffffffffffffffffffffffffffffffffffffff\n      and\n      dup2\n      mstore\n      0x20\n      add\n      swap1\n      dup2\n      mstore\n      0x20\n      add\n      0x00\n      keccak256\n        /* \"@openzeppelin/contracts@4.5.0/token/ERC20/ERC20.sol\":4091:4118  _allowances[owner][spender] */\n      0x00\n        /* \"@openzeppelin/contracts@4.5.0/token/ERC20/ERC20.sol\":4110:4117  spender */\n      dup4\n        /* \"@openzeppelin/contracts@4.5.0/token/ERC20/ERC20.sol\":4091:4118  _allowances[owner][spender] */\n      0xffffffffffffffffffffffffffffffffffffffff\n      and\n      0xffffffffffffffffffffffffffffffffffffffff\n      and\n      dup2\n      mstore\n      0x20\n      add\n      swap1\n      dup2\n      mstore\n      0x20\n      add\n      0x00\n      keccak256\n      sload\n        /* \"@openzeppelin/contracts@4.5.0/token/ERC20/ERC20.sol\":4084:4118  return _allowances[owner][spender] */\n      swap1\n      pop\n        /* \"@openzeppelin/contracts@4.5.0/token/ERC20/ERC20.sol\":3976:4125  function allowance(address owner, address spender) public view virtual override returns (uint256) {... */\n      swap3\n      swap2\n      pop\n      pop\n      jump\t// out\n        /* \"@openzeppelin/contracts@4.5.0/access/Ownable.sol\":1918:2116  function transferOwnership(address newOwner) public virtual onlyOwner {... */\n    tag_99:\n        /* \"@openzeppelin/contracts@4.5.0/access/Ownable.sol\":1259:1271  _msgSender() */\n      tag_170\n        /* \"@openzeppelin/contracts@4.5.0/access/Ownable.sol\":1259:1269  _msgSender */\n      tag_109\n        /* \"@openzeppelin/contracts@4.5.0/access/Ownable.sol\":1259:1271  _msgSender() */\n      jump\t// in\n    tag_170:\n        /* \"@openzeppelin/contracts@4.5.0/access/Ownable.sol\":1248:1271  owner() == _msgSender() */\n      0xffffffffffffffffffffffffffffffffffffffff\n      and\n        /* \"@openzeppelin/contracts@4.5.0/access/Ownable.sol\":1248:1255  owner() */\n      tag_171\n        /* \"@openzeppelin/contracts@4.5.0/access/Ownable.sol\":1248:1253  owner */\n      tag_73\n        /* \"@openzeppelin/contracts@4.5.0/access/Ownable.sol\":1248:1255  owner() */\n      jump\t// in\n    tag_171:\n        /* \"@openzeppelin/contracts@4.5.0/access/Ownable.sol\":1248:1271  owner() == _msgSender() */\n      0xffffffffffffffffffffffffffffffffffffffff\n      and\n      eq\n        /* \"@openzeppelin/contracts@4.5.0/access/Ownable.sol\":1240:1308  require(owner() == _msgSender(), \"Ownable: caller is not the owner\") */\n      tag_172\n      jumpi\n      mload(0x40)\n      0x08c379a000000000000000000000000000000000000000000000000000000000\n      dup2\n      mstore\n      0x04\n      add\n      tag_173\n      swap1\n      tag_130\n      jump\t// in\n    tag_173:\n      mload(0x40)\n      dup1\n      swap2\n      sub\n      swap1\n      revert\n    tag_172:\n        /* \"@openzeppelin/contracts@4.5.0/access/Ownable.sol\":2026:2027  0 */\n      0x00\n        /* \"@openzeppelin/contracts@4.5.0/access/Ownable.sol\":2006:2028  newOwner != address(0) */\n      0xffffffffffffffffffffffffffffffffffffffff\n      and\n        /* \"@openzeppelin/contracts@4.5.0/access/Ownable.sol\":2006:2014  newOwner */\n      dup2\n        /* \"@openzeppelin/contracts@4.5.0/access/Ownable.sol\":2006:2028  newOwner != address(0) */\n      0xffffffffffffffffffffffffffffffffffffffff\n      and\n      eq\n      iszero\n        /* \"@openzeppelin/contracts@4.5.0/access/Ownable.sol\":1998:2071  require(newOwner != address(0), \"Ownable: new owner is the zero address\") */\n      tag_175\n      jumpi\n      mload(0x40)\n      0x08c379a000000000000000000000000000000000000000000000000000000000\n      dup2\n      mstore\n      0x04\n      add\n      tag_176\n      swap1\n      tag_177\n      jump\t// in\n    tag_176:\n      mload(0x40)\n      dup1\n      swap2\n      sub\n      swap1\n      revert\n    tag_175:\n        /* \"@openzeppelin/contracts@4.5.0/access/Ownable.sol\":2081:2109  _transferOwnership(newOwner) */\n      tag_178\n        /* \"@openzeppelin/contracts@4.5.0/access/Ownable.sol\":2100:2108  newOwner */\n      dup2\n        /* \"@openzeppelin/contracts@4.5.0/access/Ownable.sol\":2081:2099  _transferOwnership */\n      tag_142\n        /* \"@openzeppelin/contracts@4.5.0/access/Ownable.sol\":2081:2109  _transferOwnership(newOwner) */\n      jump\t// in\n    tag_178:\n        /* \"@openzeppelin/contracts@4.5.0/access/Ownable.sol\":1918:2116  function transferOwnership(address newOwner) public virtual onlyOwner {... */\n      pop\n      jump\t// out\n        /* \"@openzeppelin/contracts@4.5.0/utils/Context.sol\":640:736  function _msgSender() internal view virtual returns (address) {... */\n    tag_109:\n        /* \"@openzeppelin/contracts@4.5.0/utils/Context.sol\":693:700  address */\n      0x00\n        /* \"@openzeppelin/contracts@4.5.0/utils/Context.sol\":719:729  msg.sender */\n      caller\n        /* \"@openzeppelin/contracts@4.5.0/utils/Context.sol\":712:729  return msg.sender */\n      swap1\n      pop\n        /* \"@openzeppelin/contracts@4.5.0/utils/Context.sol\":640:736  function _msgSender() internal view virtual returns (address) {... */\n      swap1\n      jump\t// out\n        /* \"@openzeppelin/contracts@4.5.0/token/ERC20/ERC20.sol\":10123:10493  function _approve(... */\n    tag_111:\n        /* \"@openzeppelin/contracts@4.5.0/token/ERC20/ERC20.sol\":10271:10272  0 */\n      0x00\n        /* \"@openzeppelin/contracts@4.5.0/token/ERC20/ERC20.sol\":10254:10273  owner != address(0) */\n      0xffffffffffffffffffffffffffffffffffffffff\n      and\n        /* \"@openzeppelin/contracts@4.5.0/token/ERC20/ERC20.sol\":10254:10259  owner */\n      dup4\n        /* \"@openzeppelin/contracts@4.5.0/token/ERC20/ERC20.sol\":10254:10273  owner != address(0) */\n      0xffffffffffffffffffffffffffffffffffffffff\n      and\n      eq\n      iszero\n        /* \"@openzeppelin/contracts@4.5.0/token/ERC20/ERC20.sol\":10246:10314  require(owner != address(0), \"ERC20: approve from the zero address\") */\n      tag_181\n      jumpi\n      mload(0x40)\n      0x08c379a000000000000000000000000000000000000000000000000000000000\n      dup2\n      mstore\n      0x04\n      add\n      tag_182\n      swap1\n      tag_183\n      jump\t// in\n    tag_182:\n      mload(0x40)\n      dup1\n      swap2\n      sub\n      swap1\n      revert\n    tag_181:\n        /* \"@openzeppelin/contracts@4.5.0/token/ERC20/ERC20.sol\":10351:10352  0 */\n      0x00\n        /* \"@openzeppelin/contracts@4.5.0/token/ERC20/ERC20.sol\":10332:10353  spender != address(0) */\n      0xffffffffffffffffffffffffffffffffffffffff\n      and\n        /* \"@openzeppelin/contracts@4.5.0/token/ERC20/ERC20.sol\":10332:10339  spender */\n      dup3\n        /* \"@openzeppelin/contracts@4.5.0/token/ERC20/ERC20.sol\":10332:10353  spender != address(0) */\n      0xffffffffffffffffffffffffffffffffffffffff\n      and\n      eq\n      iszero\n        /* \"@openzeppelin/contracts@4.5.0/token/ERC20/ERC20.sol\":10324:10392  require(spender != address(0), \"ERC20: approve to the zero address\") */\n      tag_184\n      jumpi\n      mload(0x40)\n      0x08c379a000000000000000000000000000000000000000000000000000000000\n      dup2\n      mstore\n      0x04\n      add\n      tag_185\n      swap1\n      tag_186\n      jump\t// in\n    tag_185:\n      mload(0x40)\n      dup1\n      swap2\n      sub\n      swap1\n      revert\n    tag_184:\n        /* \"@openzeppelin/contracts@4.5.0/token/ERC20/ERC20.sol\":10433:10439  amount */\n      dup1\n        /* \"@openzeppelin/contracts@4.5.0/token/ERC20/ERC20.sol\":10403:10414  _allowances */\n      0x01\n        /* \"@openzeppelin/contracts@4.5.0/token/ERC20/ERC20.sol\":10403:10421  _allowances[owner] */\n      0x00\n        /* \"@openzeppelin/contracts@4.5.0/token/ERC20/ERC20.sol\":10415:10420  owner */\n      dup6\n        /* \"@openzeppelin/contracts@4.5.0/token/ERC20/ERC20.sol\":10403:10421  _allowances[owner] */\n      0xffffffffffffffffffffffffffffffffffffffff\n      and\n      0xffffffffffffffffffffffffffffffffffffffff\n      and\n      dup2\n      mstore\n      0x20\n      add\n      swap1\n      dup2\n      mstore\n      0x20\n      add\n      0x00\n      keccak256\n        /* \"@openzeppelin/contracts@4.5.0/token/ERC20/ERC20.sol\":10403:10430  _allowances[owner][spender] */\n      0x00\n        /* \"@openzeppelin/contracts@4.5.0/token/ERC20/ERC20.sol\":10422:10429  spender */\n      dup5\n        /* \"@openzeppelin/contracts@4.5.0/token/ERC20/ERC20.sol\":10403:10430  _allowances[owner][spender] */\n      0xffffffffffffffffffffffffffffffffffffffff\n      and\n      0xffffffffffffffffffffffffffffffffffffffff\n      and\n      dup2\n      mstore\n      0x20\n      add\n      swap1\n      dup2\n      mstore\n      0x20\n      add\n      0x00\n      keccak256\n        /* \"@openzeppelin/contracts@4.5.0/token/ERC20/ERC20.sol\":10403:10439  _allowances[owner][spender] = amount */\n      dup2\n      swap1\n      sstore\n      pop\n        /* \"@openzeppelin/contracts@4.5.0/token/ERC20/ERC20.sol\":10470:10477  spender */\n      dup2\n        /* \"@openzeppelin/contracts@4.5.0/token/ERC20/ERC20.sol\":10454:10486  Approval(owner, spender, amount) */\n      0xffffffffffffffffffffffffffffffffffffffff\n      and\n        /* \"@openzeppelin/contracts@4.5.0/token/ERC20/ERC20.sol\":10463:10468  owner */\n      dup4\n        /* \"@openzeppelin/contracts@4.5.0/token/ERC20/ERC20.sol\":10454:10486  Approval(owner, spender, amount) */\n      0xffffffffffffffffffffffffffffffffffffffff\n      and\n      0x8c5be1e5ebec7d5bd14f71427d1e84f3dd0314c0f7b2291e5b200ac8c7c3b925\n        /* \"@openzeppelin/contracts@4.5.0/token/ERC20/ERC20.sol\":10479:10485  amount */\n      dup4\n        /* \"@openzeppelin/contracts@4.5.0/token/ERC20/ERC20.sol\":10454:10486  Approval(owner, spender, amount) */\n      mload(0x40)\n      tag_187\n      swap2\n      swap1\n      tag_37\n      jump\t// in\n    tag_187:\n      mload(0x40)\n      dup1\n      swap2\n      sub\n      swap1\n      log3\n        /* \"@openzeppelin/contracts@4.5.0/token/ERC20/ERC20.sol\":10123:10493  function _approve(... */\n      pop\n      pop\n      pop\n      jump\t// out\n        /* \"@openzeppelin/contracts@4.5.0/token/ERC20/ERC20.sol\":10770:11211  function _spendAllowance(... */\n    tag_116:\n        /* \"@openzeppelin/contracts@4.5.0/token/ERC20/ERC20.sol\":10900:10924  uint256 currentAllowance */\n      0x00\n        /* \"@openzeppelin/contracts@4.5.0/token/ERC20/ERC20.sol\":10927:10952  allowance(owner, spender) */\n      tag_189\n        /* \"@openzeppelin/contracts@4.5.0/token/ERC20/ERC20.sol\":10937:10942  owner */\n      dup5\n        /* \"@openzeppelin/contracts@4.5.0/token/ERC20/ERC20.sol\":10944:10951  spender */\n      dup5\n        /* \"@openzeppelin/contracts@4.5.0/token/ERC20/ERC20.sol\":10927:10936  allowance */\n      tag_94\n        /* \"@openzeppelin/contracts@4.5.0/token/ERC20/ERC20.sol\":10927:10952  allowance(owner, spender) */\n      jump\t// in\n    tag_189:\n        /* \"@openzeppelin/contracts@4.5.0/token/ERC20/ERC20.sol\":10900:10952  uint256 currentAllowance = allowance(owner, spender) */\n      swap1\n      pop\n        /* \"@openzeppelin/contracts@4.5.0/token/ERC20/ERC20.sol\":10986:11003  type(uint256).max */\n      0xffffffffffffffffffffffffffffffffffffffffffffffffffffffffffffffff\n        /* \"@openzeppelin/contracts@4.5.0/token/ERC20/ERC20.sol\":10966:10982  currentAllowance */\n      dup2\n        /* \"@openzeppelin/contracts@4.5.0/token/ERC20/ERC20.sol\":10966:11003  currentAllowance != type(uint256).max */\n      eq\n        /* \"@openzeppelin/contracts@4.5.0/token/ERC20/ERC20.sol\":10962:11205  if (currentAllowance != type(uint256).max) {... */\n      tag_190\n      jumpi\n        /* \"@openzeppelin/contracts@4.5.0/token/ERC20/ERC20.sol\":11047:11053  amount */\n      dup2\n        /* \"@openzeppelin/contracts@4.5.0/token/ERC20/ERC20.sol\":11027:11043  currentAllowance */\n      dup2\n        /* \"@openzeppelin/contracts@4.5.0/token/ERC20/ERC20.sol\":11027:11053  currentAllowance >= amount */\n      lt\n      iszero\n        /* \"@openzeppelin/contracts@4.5.0/token/ERC20/ERC20.sol\":11019:11087  require(currentAllowance >= amount, \"ERC20: insufficient allowance\") */\n      tag_191\n      jumpi\n      mload(0x40)\n      0x08c379a000000000000000000000000000000000000000000000000000000000\n      dup2\n      mstore\n      0x04\n      add\n      tag_192\n      swap1\n      tag_193\n      jump\t// in\n    tag_192:\n      mload(0x40)\n      dup1\n      swap2\n      sub\n      swap1\n      revert\n    tag_191:\n        /* \"@openzeppelin/contracts@4.5.0/token/ERC20/ERC20.sol\":11129:11180  _approve(owner, spender, currentAllowance - amount) */\n      tag_194\n        /* \"@openzeppelin/contracts@4.5.0/token/ERC20/ERC20.sol\":11138:11143  owner */\n      dup5\n        /* \"@openzeppelin/contracts@4.5.0/token/ERC20/ERC20.sol\":11145:11152  spender */\n      dup5\n        /* \"@openzeppelin/contracts@4.5.0/token/ERC20/ERC20.sol\":11173:11179  amount */\n      dup5\n        /* \"@openzeppelin/contracts@4.5.0/token/ERC20/ERC20.sol\":11154:11170  currentAllowance */\n      dup5\n        /* \"@openzeppelin/contracts@4.5.0/token/ERC20/ERC20.sol\":11154:11179  currentAllowance - amount */\n      sub\n        /* \"@openzeppelin/contracts@4.5.0/token/ERC20/ERC20.sol\":11129:11137  _approve */\n      tag_111\n        /* \"@openzeppelin/contracts@4.5.0/token/ERC20/ERC20.sol\":11129:11180  _approve(owner, spender, currentAllowance - amount) */\n      jump\t// in\n    tag_194:\n        /* \"@openzeppelin/contracts@4.5.0/token/ERC20/ERC20.sol\":10962:11205  if (currentAllowance != type(uint256).max) {... */\n    tag_190:\n        /* \"@openzeppelin/contracts@4.5.0/token/ERC20/ERC20.sol\":10770:11211  function _spendAllowance(... */\n      pop\n      pop\n      pop\n      pop\n      jump\t// out\n        /* \"@openzeppelin/contracts@4.5.0/token/ERC20/ERC20.sol\":7488:8139  function _transfer(... */\n    tag_118:\n        /* \"@openzeppelin/contracts@4.5.0/token/ERC20/ERC20.sol\":7630:7631  0 */\n      0x00\n        /* \"@openzeppelin/contracts@4.5.0/token/ERC20/ERC20.sol\":7614:7632  from != address(0) */\n      0xffffffffffffffffffffffffffffffffffffffff\n      and\n        /* \"@openzeppelin/contracts@4.5.0/token/ERC20/ERC20.sol\":7614:7618  from */\n      dup4\n        /* \"@openzeppelin/contracts@4.5.0/token/ERC20/ERC20.sol\":7614:7632  from != address(0) */\n      0xffffffffffffffffffffffffffffffffffffffff\n      and\n      eq\n      iszero\n        /* \"@openzeppelin/contracts@4.5.0/token/ERC20/ERC20.sol\":7606:7674  require(from != address(0), \"ERC20: transfer from the zero address\") */\n      tag_196\n      jumpi\n      mload(0x40)\n      0x08c379a000000000000000000000000000000000000000000000000000000000\n      dup2\n      mstore\n      0x04\n      add\n      tag_197\n      swap1\n      tag_198\n      jump\t// in\n    tag_197:\n      mload(0x40)\n      dup1\n      swap2\n      sub\n      swap1\n      revert\n    tag_196:\n        /* \"@openzeppelin/contracts@4.5.0/token/ERC20/ERC20.sol\":7706:7707  0 */\n      0x00\n        /* \"@openzeppelin/contracts@4.5.0/token/ERC20/ERC20.sol\":7692:7708  to != address(0) */\n      0xffffffffffffffffffffffffffffffffffffffff\n      and\n        /* \"@openzeppelin/contracts@4.5.0/token/ERC20/ERC20.sol\":7692:7694  to */\n      dup3\n        /* \"@openzeppelin/contracts@4.5.0/token/ERC20/ERC20.sol\":7692:7708  to != address(0) */\n      0xffffffffffffffffffffffffffffffffffffffff\n      and\n      eq\n      iszero\n        /* \"@openzeppelin/contracts@4.5.0/token/ERC20/ERC20.sol\":7684:7748  require(to != address(0), \"ERC20: transfer to the zero address\") */\n      tag_199\n      jumpi\n      mload(0x40)\n      0x08c379a000000000000000000000000000000000000000000000000000000000\n      dup2\n      mstore\n      0x04\n      add\n      tag_200\n      swap1\n      tag_201\n      jump\t// in\n    tag_200:\n      mload(0x40)\n      dup1\n      swap2\n      sub\n      swap1\n      revert\n    tag_199:\n        /* \"@openzeppelin/contracts@4.5.0/token/ERC20/ERC20.sol\":7759:7797  _beforeTokenTransfer(from, to, amount) */\n      tag_202\n        /* \"@openzeppelin/contracts@4.5.0/token/ERC20/ERC20.sol\":7780:7784  from */\n      dup4\n        /* \"@openzeppelin/contracts@4.5.0/token/ERC20/ERC20.sol\":7786:7788  to */\n      dup4\n        /* \"@openzeppelin/contracts@4.5.0/token/ERC20/ERC20.sol\":7790:7796  amount */\n      dup4\n        /* \"@openzeppelin/contracts@4.5.0/token/ERC20/ERC20.sol\":7759:7779  _beforeTokenTransfer */\n      tag_203\n        /* \"@openzeppelin/contracts@4.5.0/token/ERC20/ERC20.sol\":7759:7797  _beforeTokenTransfer(from, to, amount) */\n      jump\t// in\n    tag_202:\n        /* \"@openzeppelin/contracts@4.5.0/token/ERC20/ERC20.sol\":7808:7827  uint256 fromBalance */\n      0x00\n        /* \"@openzeppelin/contracts@4.5.0/token/ERC20/ERC20.sol\":7830:7839  _balances */\n      dup1\n        /* \"@openzeppelin/contracts@4.5.0/token/ERC20/ERC20.sol\":7830:7845  _balances[from] */\n      0x00\n        /* \"@openzeppelin/contracts@4.5.0/token/ERC20/ERC20.sol\":7840:7844  from */\n      dup6\n        /* \"@openzeppelin/contracts@4.5.0/token/ERC20/ERC20.sol\":7830:7845  _balances[from] */\n      0xffffffffffffffffffffffffffffffffffffffff\n      and\n      0xffffffffffffffffffffffffffffffffffffffff\n      and\n      dup2\n      mstore\n      0x20\n      add\n      swap1\n      dup2\n      mstore\n      0x20\n      add\n      0x00\n      keccak256\n      sload\n        /* \"@openzeppelin/contracts@4.5.0/token/ERC20/ERC20.sol\":7808:7845  uint256 fromBalance = _balances[from] */\n      swap1\n      pop\n        /* \"@openzeppelin/contracts@4.5.0/token/ERC20/ERC20.sol\":7878:7884  amount */\n      dup2\n        /* \"@openzeppelin/contracts@4.5.0/token/ERC20/ERC20.sol\":7863:7874  fromBalance */\n      dup2\n        /* \"@openzeppelin/contracts@4.5.0/token/ERC20/ERC20.sol\":7863:7884  fromBalance >= amount */\n      lt\n      iszero\n        /* \"@openzeppelin/contracts@4.5.0/token/ERC20/ERC20.sol\":7855:7927  require(fromBalance >= amount, \"ERC20: transfer amount exceeds balance\") */\n      tag_204\n      jumpi\n      mload(0x40)\n      0x08c379a000000000000000000000000000000000000000000000000000000000\n      dup2\n      mstore\n      0x04\n      add\n      tag_205\n      swap1\n      tag_206\n      jump\t// in\n    tag_205:\n      mload(0x40)\n      dup1\n      swap2\n      sub\n      swap1\n      revert\n    tag_204:\n        /* \"@openzeppelin/contracts@4.5.0/token/ERC20/ERC20.sol\":7993:7999  amount */\n      dup2\n        /* \"@openzeppelin/contracts@4.5.0/token/ERC20/ERC20.sol\":7979:7990  fromBalance */\n      dup2\n        /* \"@openzeppelin/contracts@4.5.0/token/ERC20/ERC20.sol\":7979:7999  fromBalance - amount */\n      sub\n        /* \"@openzeppelin/contracts@4.5.0/token/ERC20/ERC20.sol\":7961:7970  _balances */\n      0x00\n        /* \"@openzeppelin/contracts@4.5.0/token/ERC20/ERC20.sol\":7961:7976  _balances[from] */\n      dup1\n        /* \"@openzeppelin/contracts@4.5.0/token/ERC20/ERC20.sol\":7971:7975  from */\n      dup7\n        /* \"@openzeppelin/contracts@4.5.0/token/ERC20/ERC20.sol\":7961:7976  _balances[from] */\n      0xffffffffffffffffffffffffffffffffffffffff\n      and\n      0xffffffffffffffffffffffffffffffffffffffff\n      and\n      dup2\n      mstore\n      0x20\n      add\n      swap1\n      dup2\n      mstore\n      0x20\n      add\n      0x00\n      keccak256\n        /* \"@openzeppelin/contracts@4.5.0/token/ERC20/ERC20.sol\":7961:7999  _balances[from] = fromBalance - amount */\n      dup2\n      swap1\n      sstore\n      pop\n        /* \"@openzeppelin/contracts@4.5.0/token/ERC20/ERC20.sol\":8036:8042  amount */\n      dup2\n        /* \"@openzeppelin/contracts@4.5.0/token/ERC20/ERC20.sol\":8019:8028  _balances */\n      0x00\n        /* \"@openzeppelin/contracts@4.5.0/token/ERC20/ERC20.sol\":8019:8032  _balances[to] */\n      dup1\n        /* \"@openzeppelin/contracts@4.5.0/token/ERC20/ERC20.sol\":8029:8031  to */\n      dup6\n        /* \"@openzeppelin/contracts@4.5.0/token/ERC20/ERC20.sol\":8019:8032  _balances[to] */\n      0xffffffffffffffffffffffffffffffffffffffff\n      and\n      0xffffffffffffffffffffffffffffffffffffffff\n      and\n      dup2\n      mstore\n      0x20\n      add\n      swap1\n      dup2\n      mstore\n      0x20\n      add\n      0x00\n      keccak256\n      0x00\n        /* \"@openzeppelin/contracts@4.5.0/token/ERC20/ERC20.sol\":8019:8042  _balances[to] += amount */\n      dup3\n      dup3\n      sload\n      tag_207\n      swap2\n      swap1\n      tag_124\n      jump\t// in\n    tag_207:\n      swap3\n      pop\n      pop\n      dup2\n      swap1\n      sstore\n      pop\n        /* \"@openzeppelin/contracts@4.5.0/token/ERC20/ERC20.sol\":8073:8075  to */\n      dup3\n        /* \"@openzeppelin/contracts@4.5.0/token/ERC20/ERC20.sol\":8058:8084  Transfer(from, to, amount) */\n      0xffffffffffffffffffffffffffffffffffffffff\n      and\n        /* \"@openzeppelin/contracts@4.5.0/token/ERC20/ERC20.sol\":8067:8071  from */\n      dup5\n        /* \"@openzeppelin/contracts@4.5.0/token/ERC20/ERC20.sol\":8058:8084  Transfer(from, to, amount) */\n      0xffffffffffffffffffffffffffffffffffffffff\n      and\n      0xddf252ad1be2c89b69c2b068fc378daa952ba7f163c4a11628f55a4df523b3ef\n        /* \"@openzeppelin/contracts@4.5.0/token/ERC20/ERC20.sol\":8077:8083  amount */\n      dup5\n        /* \"@openzeppelin/contracts@4.5.0/token/ERC20/ERC20.sol\":8058:8084  Transfer(from, to, amount) */\n      mload(0x40)\n      tag_208\n      swap2\n      swap1\n      tag_37\n      jump\t// in\n    tag_208:\n      mload(0x40)\n      dup1\n      swap2\n      sub\n      swap1\n      log3\n        /* \"@openzeppelin/contracts@4.5.0/token/ERC20/ERC20.sol\":8095:8132  _afterTokenTransfer(from, to, amount) */\n      tag_209\n        /* \"@openzeppelin/contracts@4.5.0/token/ERC20/ERC20.sol\":8115:8119  from */\n      dup5\n        /* \"@openzeppelin/contracts@4.5.0/token/ERC20/ERC20.sol\":8121:8123  to */\n      dup5\n        /* \"@openzeppelin/contracts@4.5.0/token/ERC20/ERC20.sol\":8125:8131  amount */\n      dup5\n        /* \"@openzeppelin/contracts@4.5.0/token/ERC20/ERC20.sol\":8095:8114  _afterTokenTransfer */\n      tag_210\n        /* \"@openzeppelin/contracts@4.5.0/token/ERC20/ERC20.sol\":8095:8132  _afterTokenTransfer(from, to, amount) */\n      jump\t// in\n    tag_209:\n        /* \"@openzeppelin/contracts@4.5.0/token/ERC20/ERC20.sol\":7488:8139  function _transfer(... */\n      pop\n      pop\n      pop\n      pop\n      jump\t// out\n        /* \"@openzeppelin/contracts@4.5.0/token/ERC20/ERC20.sol\":8415:8804  function _mint(address account, uint256 amount) internal virtual {... */\n    tag_133:\n        /* \"@openzeppelin/contracts@4.5.0/token/ERC20/ERC20.sol\":8517:8518  0 */\n      0x00\n        /* \"@openzeppelin/contracts@4.5.0/token/ERC20/ERC20.sol\":8498:8519  account != address(0) */\n      0xffffffffffffffffffffffffffffffffffffffff\n      and\n        /* \"@openzeppelin/contracts@4.5.0/token/ERC20/ERC20.sol\":8498:8505  account */\n      dup3\n        /* \"@openzeppelin/contracts@4.5.0/token/ERC20/ERC20.sol\":8498:8519  account != address(0) */\n      0xffffffffffffffffffffffffffffffffffffffff\n      and\n      eq\n      iszero\n        /* \"@openzeppelin/contracts@4.5.0/token/ERC20/ERC20.sol\":8490:8555  require(account != address(0), \"ERC20: mint to the zero address\") */\n      tag_212\n      jumpi\n      mload(0x40)\n      0x08c379a000000000000000000000000000000000000000000000000000000000\n      dup2\n      mstore\n      0x04\n      add\n      tag_213\n      swap1\n      tag_214\n      jump\t// in\n    tag_213:\n      mload(0x40)\n      dup1\n      swap2\n      sub\n      swap1\n      revert\n    tag_212:\n        /* \"@openzeppelin/contracts@4.5.0/token/ERC20/ERC20.sol\":8566:8615  _beforeTokenTransfer(address(0), account, amount) */\n      tag_215\n        /* \"@openzeppelin/contracts@4.5.0/token/ERC20/ERC20.sol\":8595:8596  0 */\n      0x00\n        /* \"@openzeppelin/contracts@4.5.0/token/ERC20/ERC20.sol\":8599:8606  account */\n      dup4\n        /* \"@openzeppelin/contracts@4.5.0/token/ERC20/ERC20.sol\":8608:8614  amount */\n      dup4\n        /* \"@openzeppelin/contracts@4.5.0/token/ERC20/ERC20.sol\":8566:8586  _beforeTokenTransfer */\n      tag_203\n        /* \"@openzeppelin/contracts@4.5.0/token/ERC20/ERC20.sol\":8566:8615  _beforeTokenTransfer(address(0), account, amount) */\n      jump\t// in\n    tag_215:\n        /* \"@openzeppelin/contracts@4.5.0/token/ERC20/ERC20.sol\":8642:8648  amount */\n      dup1\n        /* \"@openzeppelin/contracts@4.5.0/token/ERC20/ERC20.sol\":8626:8638  _totalSupply */\n      0x02\n      0x00\n        /* \"@openzeppelin/contracts@4.5.0/token/ERC20/ERC20.sol\":8626:8648  _totalSupply += amount */\n      dup3\n      dup3\n      sload\n      tag_216\n      swap2\n      swap1\n      tag_124\n      jump\t// in\n    tag_216:\n      swap3\n      pop\n      pop\n      dup2\n      swap1\n      sstore\n      pop\n        /* \"@openzeppelin/contracts@4.5.0/token/ERC20/ERC20.sol\":8680:8686  amount */\n      dup1\n        /* \"@openzeppelin/contracts@4.5.0/token/ERC20/ERC20.sol\":8658:8667  _balances */\n      0x00\n        /* \"@openzeppelin/contracts@4.5.0/token/ERC20/ERC20.sol\":8658:8676  _balances[account] */\n      dup1\n        /* \"@openzeppelin/contracts@4.5.0/token/ERC20/ERC20.sol\":8668:8675  account */\n      dup5\n        /* \"@openzeppelin/contracts@4.5.0/token/ERC20/ERC20.sol\":8658:8676  _balances[account] */\n      0xffffffffffffffffffffffffffffffffffffffff\n      and\n      0xffffffffffffffffffffffffffffffffffffffff\n      and\n      dup2\n      mstore\n      0x20\n      add\n      swap1\n      dup2\n      mstore\n      0x20\n      add\n      0x00\n      keccak256\n      0x00\n        /* \"@openzeppelin/contracts@4.5.0/token/ERC20/ERC20.sol\":8658:8686  _balances[account] += amount */\n      dup3\n      dup3\n      sload\n      tag_217\n      swap2\n      swap1\n      tag_124\n      jump\t// in\n    tag_217:\n      swap3\n      pop\n      pop\n      dup2\n      swap1\n      sstore\n      pop\n        /* \"@openzeppelin/contracts@4.5.0/token/ERC20/ERC20.sol\":8722:8729  account */\n      dup2\n        /* \"@openzeppelin/contracts@4.5.0/token/ERC20/ERC20.sol\":8701:8738  Transfer(address(0), account, amount) */\n      0xffffffffffffffffffffffffffffffffffffffff\n      and\n        /* \"@openzeppelin/contracts@4.5.0/token/ERC20/ERC20.sol\":8718:8719  0 */\n      0x00\n        /* \"@openzeppelin/contracts@4.5.0/token/ERC20/ERC20.sol\":8701:8738  Transfer(address(0), account, amount) */\n      0xffffffffffffffffffffffffffffffffffffffff\n      and\n      0xddf252ad1be2c89b69c2b068fc378daa952ba7f163c4a11628f55a4df523b3ef\n        /* \"@openzeppelin/contracts@4.5.0/token/ERC20/ERC20.sol\":8731:8737  amount */\n      dup4\n        /* \"@openzeppelin/contracts@4.5.0/token/ERC20/ERC20.sol\":8701:8738  Transfer(address(0), account, amount) */\n      mload(0x40)\n      tag_218\n      swap2\n      swap1\n      tag_37\n      jump\t// in\n    tag_218:\n      mload(0x40)\n      dup1\n      swap2\n      sub\n      swap1\n      log3\n        /* \"@openzeppelin/contracts@4.5.0/token/ERC20/ERC20.sol\":8749:8797  _afterTokenTransfer(address(0), account, amount) */\n      tag_219\n        /* \"@openzeppelin/contracts@4.5.0/token/ERC20/ERC20.sol\":8777:8778  0 */\n      0x00\n        /* \"@openzeppelin/contracts@4.5.0/token/ERC20/ERC20.sol\":8781:8788  account */\n      dup4\n        /* \"@openzeppelin/contracts@4.5.0/token/ERC20/ERC20.sol\":8790:8796  amount */\n      dup4\n        /* \"@openzeppelin/contracts@4.5.0/token/ERC20/ERC20.sol\":8749:8768  _afterTokenTransfer */\n      tag_210\n        /* \"@openzeppelin/contracts@4.5.0/token/ERC20/ERC20.sol\":8749:8797  _afterTokenTransfer(address(0), account, amount) */\n      jump\t// in\n    tag_219:\n        /* \"@openzeppelin/contracts@4.5.0/token/ERC20/ERC20.sol\":8415:8804  function _mint(address account, uint256 amount) internal virtual {... */\n      pop\n      pop\n      jump\t// out\n        /* \"@openzeppelin/contracts@4.5.0/access/Ownable.sol\":2270:2457  function _transferOwnership(address newOwner) internal virtual {... */\n    tag_142:\n        /* \"@openzeppelin/contracts@4.5.0/access/Ownable.sol\":2343:2359  address oldOwner */\n      0x00\n        /* \"@openzeppelin/contracts@4.5.0/access/Ownable.sol\":2362:2368  _owner */\n      0x05\n      0x00\n      swap1\n      sload\n      swap1\n      0x0100\n      exp\n      swap1\n      div\n      0xffffffffffffffffffffffffffffffffffffffff\n      and\n        /* \"@openzeppelin/contracts@4.5.0/access/Ownable.sol\":2343:2368  address oldOwner = _owner */\n      swap1\n      pop\n        /* \"@openzeppelin/contracts@4.5.0/access/Ownable.sol\":2387:2395  newOwner */\n      dup2\n        /* \"@openzeppelin/contracts@4.5.0/access/Ownable.sol\":2378:2384  _owner */\n      0x05\n      0x00\n        /* \"@openzeppelin/contracts@4.5.0/access/Ownable.sol\":2378:2395  _owner = newOwner */\n      0x0100\n      exp\n      dup2\n      sload\n      dup2\n      0xffffffffffffffffffffffffffffffffffffffff\n      mul\n      not\n      and\n      swap1\n      dup4\n      0xffffffffffffffffffffffffffffffffffffffff\n      and\n      mul\n      or\n      swap1\n      sstore\n      pop\n        /* \"@openzeppelin/contracts@4.5.0/access/Ownable.sol\":2441:2449  newOwner */\n      dup2\n        /* \"@openzeppelin/contracts@4.5.0/access/Ownable.sol\":2410:2450  OwnershipTransferred(oldOwner, newOwner) */\n      0xffffffffffffffffffffffffffffffffffffffff\n      and\n        /* \"@openzeppelin/contracts@4.5.0/access/Ownable.sol\":2431:2439  oldOwner */\n      dup2\n        /* \"@openzeppelin/contracts@4.5.0/access/Ownable.sol\":2410:2450  OwnershipTransferred(oldOwner, newOwner) */\n      0xffffffffffffffffffffffffffffffffffffffff\n      and\n      0x8be0079c531659141344cd1fd0a4f28419497f9722a3daafe3b4186f6b6457e0\n      mload(0x40)\n      mload(0x40)\n      dup1\n      swap2\n      sub\n      swap1\n      log3\n        /* \"@openzeppelin/contracts@4.5.0/access/Ownable.sol\":2270:2457  function _transferOwnership(address newOwner) internal virtual {... */\n      pop\n      pop\n      jump\t// out\n        /* \"@openzeppelin/contracts@4.5.0/token/ERC20/ERC20.sol\":11795:11916  function _beforeTokenTransfer(... */\n    tag_203:\n      pop\n      pop\n      pop\n      jump\t// out\n        /* \"@openzeppelin/contracts@4.5.0/token/ERC20/ERC20.sol\":12504:12624  function _afterTokenTransfer(... */\n    tag_210:\n      pop\n      pop\n      pop\n      jump\t// out\n        /* \"#utility.yul\":7:146   */\n    tag_224:\n        /* \"#utility.yul\":53:58   */\n      0x00\n        /* \"#utility.yul\":91:97   */\n      dup2\n        /* \"#utility.yul\":78:98   */\n      calldataload\n        /* \"#utility.yul\":69:98   */\n      swap1\n      pop\n        /* \"#utility.yul\":107:140   */\n      tag_226\n        /* \"#utility.yul\":134:139   */\n      dup2\n        /* \"#utility.yul\":107:140   */\n      tag_227\n      jump\t// in\n    tag_226:\n        /* \"#utility.yul\":59:146   */\n      swap3\n      swap2\n      pop\n      pop\n      jump\t// out\n        /* \"#utility.yul\":152:291   */\n    tag_228:\n        /* \"#utility.yul\":198:203   */\n      0x00\n        /* \"#utility.yul\":236:242   */\n      dup2\n        /* \"#utility.yul\":223:243   */\n      calldataload\n        /* \"#utility.yul\":214:243   */\n      swap1\n      pop\n        /* \"#utility.yul\":252:285   */\n      tag_230\n        /* \"#utility.yul\":279:284   */\n      dup2\n        /* \"#utility.yul\":252:285   */\n      tag_231\n      jump\t// in\n    tag_230:\n        /* \"#utility.yul\":204:291   */\n      swap3\n      swap2\n      pop\n      pop\n      jump\t// out\n        /* \"#utility.yul\":297:559   */\n    tag_61:\n        /* \"#utility.yul\":356:362   */\n      0x00\n        /* \"#utility.yul\":405:407   */\n      0x20\n        /* \"#utility.yul\":393:402   */\n      dup3\n        /* \"#utility.yul\":384:391   */\n      dup5\n        /* \"#utility.yul\":380:403   */\n      sub\n        /* \"#utility.yul\":376:408   */\n      slt\n        /* \"#utility.yul\":373:375   */\n      iszero\n      tag_233\n      jumpi\n        /* \"#utility.yul\":421:422   */\n      0x00\n        /* \"#utility.yul\":418:419   */\n      dup1\n        /* \"#utility.yul\":411:423   */\n      revert\n        /* \"#utility.yul\":373:375   */\n    tag_233:\n        /* \"#utility.yul\":464:465   */\n      0x00\n        /* \"#utility.yul\":489:542   */\n      tag_234\n        /* \"#utility.yul\":534:541   */\n      dup5\n        /* \"#utility.yul\":525:531   */\n      dup3\n        /* \"#utility.yul\":514:523   */\n      dup6\n        /* \"#utility.yul\":510:532   */\n      add\n        /* \"#utility.yul\":489:542   */\n      tag_224\n      jump\t// in\n    tag_234:\n        /* \"#utility.yul\":479:542   */\n      swap2\n      pop\n        /* \"#utility.yul\":435:552   */\n      pop\n        /* \"#utility.yul\":363:559   */\n      swap3\n      swap2\n      pop\n      pop\n      jump\t// out\n        /* \"#utility.yul\":565:972   */\n    tag_93:\n        /* \"#utility.yul\":633:639   */\n      0x00\n        /* \"#utility.yul\":641:647   */\n      dup1\n        /* \"#utility.yul\":690:692   */\n      0x40\n        /* \"#utility.yul\":678:687   */\n      dup4\n        /* \"#utility.yul\":669:676   */\n      dup6\n        /* \"#utility.yul\":665:688   */\n      sub\n        /* \"#utility.yul\":661:693   */\n      slt\n        /* \"#utility.yul\":658:660   */\n      iszero\n      tag_236\n      jumpi\n        /* \"#utility.yul\":706:707   */\n      0x00\n        /* \"#utility.yul\":703:704   */\n      dup1\n        /* \"#utility.yul\":696:708   */\n      revert\n        /* \"#utility.yul\":658:660   */\n    tag_236:\n        /* \"#utility.yul\":749:750   */\n      0x00\n        /* \"#utility.yul\":774:827   */\n      tag_237\n        /* \"#utility.yul\":819:826   */\n      dup6\n        /* \"#utility.yul\":810:816   */\n      dup3\n        /* \"#utility.yul\":799:808   */\n      dup7\n        /* \"#utility.yul\":795:817   */\n      add\n        /* \"#utility.yul\":774:827   */\n      tag_224\n      jump\t// in\n    tag_237:\n        /* \"#utility.yul\":764:827   */\n      swap3\n      pop\n        /* \"#utility.yul\":720:837   */\n      pop\n        /* \"#utility.yul\":876:878   */\n      0x20\n        /* \"#utility.yul\":902:955   */\n      tag_238\n        /* \"#utility.yul\":947:954   */\n      dup6\n        /* \"#utility.yul\":938:944   */\n      dup3\n        /* \"#utility.yul\":927:936   */\n      dup7\n        /* \"#utility.yul\":923:945   */\n      add\n        /* \"#utility.yul\":902:955   */\n      tag_224\n      jump\t// in\n    tag_238:\n        /* \"#utility.yul\":892:955   */\n      swap2\n      pop\n        /* \"#utility.yul\":847:965   */\n      pop\n        /* \"#utility.yul\":648:972   */\n      swap3\n      pop\n      swap3\n      swap1\n      pop\n      jump\t// out\n        /* \"#utility.yul\":978:1530   */\n    tag_41:\n        /* \"#utility.yul\":1055:1061   */\n      0x00\n        /* \"#utility.yul\":1063:1069   */\n      dup1\n        /* \"#utility.yul\":1071:1077   */\n      0x00\n        /* \"#utility.yul\":1120:1122   */\n      0x60\n        /* \"#utility.yul\":1108:1117   */\n      dup5\n        /* \"#utility.yul\":1099:1106   */\n      dup7\n        /* \"#utility.yul\":1095:1118   */\n      sub\n        /* \"#utility.yul\":1091:1123   */\n      slt\n        /* \"#utility.yul\":1088:1090   */\n      iszero\n      tag_240\n      jumpi\n        /* \"#utility.yul\":1136:1137   */\n      0x00\n        /* \"#utility.yul\":1133:1134   */\n      dup1\n        /* \"#utility.yul\":1126:1138   */\n      revert\n        /* \"#utility.yul\":1088:1090   */\n    tag_240:\n        /* \"#utility.yul\":1179:1180   */\n      0x00\n        /* \"#utility.yul\":1204:1257   */\n      tag_241\n        /* \"#utility.yul\":1249:1256   */\n      dup7\n        /* \"#utility.yul\":1240:1246   */\n      dup3\n        /* \"#utility.yul\":1229:1238   */\n      dup8\n        /* \"#utility.yul\":1225:1247   */\n      add\n        /* \"#utility.yul\":1204:1257   */\n      tag_224\n      jump\t// in\n    tag_241:\n        /* \"#utility.yul\":1194:1257   */\n      swap4\n      pop\n        /* \"#utility.yul\":1150:1267   */\n      pop\n        /* \"#utility.yul\":1306:1308   */\n      0x20\n        /* \"#utility.yul\":1332:1385   */\n      tag_242\n        /* \"#utility.yul\":1377:1384   */\n      dup7\n        /* \"#utility.yul\":1368:1374   */\n      dup3\n        /* \"#utility.yul\":1357:1366   */\n      dup8\n        /* \"#utility.yul\":1353:1375   */\n      add\n        /* \"#utility.yul\":1332:1385   */\n      tag_224\n      jump\t// in\n    tag_242:\n        /* \"#utility.yul\":1322:1385   */\n      swap3\n      pop\n        /* \"#utility.yul\":1277:1395   */\n      pop\n        /* \"#utility.yul\":1434:1436   */\n      0x40\n        /* \"#utility.yul\":1460:1513   */\n      tag_243\n        /* \"#utility.yul\":1505:1512   */\n      dup7\n        /* \"#utility.yul\":1496:1502   */\n      dup3\n        /* \"#utility.yul\":1485:1494   */\n      dup8\n        /* \"#utility.yul\":1481:1503   */\n      add\n        /* \"#utility.yul\":1460:1513   */\n      tag_228\n      jump\t// in\n    tag_243:\n        /* \"#utility.yul\":1450:1513   */\n      swap2\n      pop\n        /* \"#utility.yul\":1405:1523   */\n      pop\n        /* \"#utility.yul\":1078:1530   */\n      swap3\n      pop\n      swap3\n      pop\n      swap3\n      jump\t// out\n        /* \"#utility.yul\":1536:1943   */\n    tag_29:\n        /* \"#utility.yul\":1604:1610   */\n      0x00\n        /* \"#utility.yul\":1612:1618   */\n      dup1\n        /* \"#utility.yul\":1661:1663   */\n      0x40\n        /* \"#utility.yul\":1649:1658   */\n      dup4\n        /* \"#utility.yul\":1640:1647   */\n      dup6\n        /* \"#utility.yul\":1636:1659   */\n      sub\n        /* \"#utility.yul\":1632:1664   */\n      slt\n        /* \"#utility.yul\":1629:1631   */\n      iszero\n      tag_245\n      jumpi\n        /* \"#utility.yul\":1677:1678   */\n      0x00\n        /* \"#utility.yul\":1674:1675   */\n      dup1\n        /* \"#utility.yul\":1667:1679   */\n      revert\n        /* \"#utility.yul\":1629:1631   */\n    tag_245:\n        /* \"#utility.yul\":1720:1721   */\n      0x00\n        /* \"#utility.yul\":1745:1798   */\n      tag_246\n        /* \"#utility.yul\":1790:1797   */\n      dup6\n        /* \"#utility.yul\":1781:1787   */\n      dup3\n        /* \"#utility.yul\":1770:1779   */\n      dup7\n        /* \"#utility.yul\":1766:1788   */\n      add\n        /* \"#utility.yul\":1745:1798   */\n      tag_224\n      jump\t// in\n    tag_246:\n        /* \"#utility.yul\":1735:1798   */\n      swap3\n      pop\n        /* \"#utility.yul\":1691:1808   */\n      pop\n        /* \"#utility.yul\":1847:1849   */\n      0x20\n        /* \"#utility.yul\":1873:1926   */\n      tag_247\n        /* \"#utility.yul\":1918:1925   */\n      dup6\n        /* \"#utility.yul\":1909:1915   */\n      dup3\n        /* \"#utility.yul\":1898:1907   */\n      dup7\n        /* \"#utility.yul\":1894:1916   */\n      add\n        /* \"#utility.yul\":1873:1926   */\n      tag_228\n      jump\t// in\n    tag_247:\n        /* \"#utility.yul\":1863:1926   */\n      swap2\n      pop\n        /* \"#utility.yul\":1818:1936   */\n      pop\n        /* \"#utility.yul\":1619:1943   */\n      swap3\n      pop\n      swap3\n      swap1\n      pop\n      jump\t// out\n        /* \"#utility.yul\":1949:2067   */\n    tag_248:\n        /* \"#utility.yul\":2036:2060   */\n      tag_250\n        /* \"#utility.yul\":2054:2059   */\n      dup2\n        /* \"#utility.yul\":2036:2060   */\n      tag_251\n      jump\t// in\n    tag_250:\n        /* \"#utility.yul\":2031:2034   */\n      dup3\n        /* \"#utility.yul\":2024:2061   */\n      mstore\n        /* \"#utility.yul\":2014:2067   */\n      pop\n      pop\n      jump\t// out\n        /* \"#utility.yul\":2073:2182   */\n    tag_252:\n        /* \"#utility.yul\":2154:2175   */\n      tag_254\n        /* \"#utility.yul\":2169:2174   */\n      dup2\n        /* \"#utility.yul\":2154:2175   */\n      tag_255\n      jump\t// in\n    tag_254:\n        /* \"#utility.yul\":2149:2152   */\n      dup3\n        /* \"#utility.yul\":2142:2176   */\n      mstore\n        /* \"#utility.yul\":2132:2182   */\n      pop\n      pop\n      jump\t// out\n        /* \"#utility.yul\":2188:2552   */\n    tag_256:\n        /* \"#utility.yul\":2276:2279   */\n      0x00\n        /* \"#utility.yul\":2304:2343   */\n      tag_258\n        /* \"#utility.yul\":2337:2342   */\n      dup3\n        /* \"#utility.yul\":2304:2343   */\n      tag_259\n      jump\t// in\n    tag_258:\n        /* \"#utility.yul\":2359:2430   */\n      tag_260\n        /* \"#utility.yul\":2423:2429   */\n      dup2\n        /* \"#utility.yul\":2418:2421   */\n      dup6\n        /* \"#utility.yul\":2359:2430   */\n      tag_261\n      jump\t// in\n    tag_260:\n        /* \"#utility.yul\":2352:2430   */\n      swap4\n      pop\n        /* \"#utility.yul\":2439:2491   */\n      tag_262\n        /* \"#utility.yul\":2484:2490   */\n      dup2\n        /* \"#utility.yul\":2479:2482   */\n      dup6\n        /* \"#utility.yul\":2472:2476   */\n      0x20\n        /* \"#utility.yul\":2465:2470   */\n      dup7\n        /* \"#utility.yul\":2461:2477   */\n      add\n        /* \"#utility.yul\":2439:2491   */\n      tag_263\n      jump\t// in\n    tag_262:\n        /* \"#utility.yul\":2516:2545   */\n      tag_264\n        /* \"#utility.yul\":2538:2544   */\n      dup2\n        /* \"#utility.yul\":2516:2545   */\n      tag_265\n      jump\t// in\n    tag_264:\n        /* \"#utility.yul\":2511:2514   */\n      dup5\n        /* \"#utility.yul\":2507:2546   */\n      add\n        /* \"#utility.yul\":2500:2546   */\n      swap2\n      pop\n        /* \"#utility.yul\":2280:2552   */\n      pop\n      swap3\n      swap2\n      pop\n      pop\n      jump\t// out\n        /* \"#utility.yul\":2558:2924   */\n    tag_266:\n        /* \"#utility.yul\":2700:2703   */\n      0x00\n        /* \"#utility.yul\":2721:2788   */\n      tag_268\n        /* \"#utility.yul\":2785:2787   */\n      0x23\n        /* \"#utility.yul\":2780:2783   */\n      dup4\n        /* \"#utility.yul\":2721:2788   */\n      tag_261\n      jump\t// in\n    tag_268:\n        /* \"#utility.yul\":2714:2788   */\n      swap2\n      pop\n        /* \"#utility.yul\":2797:2890   */\n      tag_269\n        /* \"#utility.yul\":2886:2889   */\n      dup3\n        /* \"#utility.yul\":2797:2890   */\n      tag_270\n      jump\t// in\n    tag_269:\n        /* \"#utility.yul\":2915:2917   */\n      0x40\n        /* \"#utility.yul\":2910:2913   */\n      dup3\n        /* \"#utility.yul\":2906:2918   */\n      add\n        /* \"#utility.yul\":2899:2918   */\n      swap1\n      pop\n        /* \"#utility.yul\":2704:2924   */\n      swap2\n      swap1\n      pop\n      jump\t// out\n        /* \"#utility.yul\":2930:3296   */\n    tag_271:\n        /* \"#utility.yul\":3072:3075   */\n      0x00\n        /* \"#utility.yul\":3093:3160   */\n      tag_273\n        /* \"#utility.yul\":3157:3159   */\n      0x21\n        /* \"#utility.yul\":3152:3155   */\n      dup4\n        /* \"#utility.yul\":3093:3160   */\n      tag_261\n      jump\t// in\n    tag_273:\n        /* \"#utility.yul\":3086:3160   */\n      swap2\n      pop\n        /* \"#utility.yul\":3169:3262   */\n      tag_274\n        /* \"#utility.yul\":3258:3261   */\n      dup3\n        /* \"#utility.yul\":3169:3262   */\n      tag_275\n      jump\t// in\n    tag_274:\n        /* \"#utility.yul\":3287:3289   */\n      0x40\n        /* \"#utility.yul\":3282:3285   */\n      dup3\n        /* \"#utility.yul\":3278:3290   */\n      add\n        /* \"#utility.yul\":3271:3290   */\n      swap1\n      pop\n        /* \"#utility.yul\":3076:3296   */\n      swap2\n      swap1\n      pop\n      jump\t// out\n        /* \"#utility.yul\":3302:3668   */\n    tag_276:\n        /* \"#utility.yul\":3444:3447   */\n      0x00\n        /* \"#utility.yul\":3465:3532   */\n      tag_278\n        /* \"#utility.yul\":3529:3531   */\n      0x26\n        /* \"#utility.yul\":3524:3527   */\n      dup4\n        /* \"#utility.yul\":3465:3532   */\n      tag_261\n      jump\t// in\n    tag_278:\n        /* \"#utility.yul\":3458:3532   */\n      swap2\n      pop\n        /* \"#utility.yul\":3541:3634   */\n      tag_279\n        /* \"#utility.yul\":3630:3633   */\n      dup3\n        /* \"#utility.yul\":3541:3634   */\n      tag_280\n      jump\t// in\n    tag_279:\n        /* \"#utility.yul\":3659:3661   */\n      0x40\n        /* \"#utility.yul\":3654:3657   */\n      dup3\n        /* \"#utility.yul\":3650:3662   */\n      add\n        /* \"#utility.yul\":3643:3662   */\n      swap1\n      pop\n        /* \"#utility.yul\":3448:3668   */\n      swap2\n      swap1\n      pop\n      jump\t// out\n        /* \"#utility.yul\":3674:4040   */\n    tag_281:\n        /* \"#utility.yul\":3816:3819   */\n      0x00\n        /* \"#utility.yul\":3837:3904   */\n      tag_283\n        /* \"#utility.yul\":3901:3903   */\n      0x22\n        /* \"#utility.yul\":3896:3899   */\n      dup4\n        /* \"#utility.yul\":3837:3904   */\n      tag_261\n      jump\t// in\n    tag_283:\n        /* \"#utility.yul\":3830:3904   */\n      swap2\n      pop\n        /* \"#utility.yul\":3913:4006   */\n      tag_284\n        /* \"#utility.yul\":4002:4005   */\n      dup3\n        /* \"#utility.yul\":3913:4006   */\n      tag_285\n      jump\t// in\n    tag_284:\n        /* \"#utility.yul\":4031:4033   */\n      0x40\n        /* \"#utility.yul\":4026:4029   */\n      dup3\n        /* \"#utility.yul\":4022:4034   */\n      add\n        /* \"#utility.yul\":4015:4034   */\n      swap1\n      pop\n        /* \"#utility.yul\":3820:4040   */\n      swap2\n      swap1\n      pop\n      jump\t// out\n        /* \"#utility.yul\":4046:4412   */\n    tag_286:\n        /* \"#utility.yul\":4188:4191   */\n      0x00\n        /* \"#utility.yul\":4209:4276   */\n      tag_288\n        /* \"#utility.yul\":4273:4275   */\n      0x1d\n        /* \"#utility.yul\":4268:4271   */\n      dup4\n        /* \"#utility.yul\":4209:4276   */\n      tag_261\n      jump\t// in\n    tag_288:\n        /* \"#utility.yul\":4202:4276   */\n      swap2\n      pop\n        /* \"#utility.yul\":4285:4378   */\n      tag_289\n        /* \"#utility.yul\":4374:4377   */\n      dup3\n        /* \"#utility.yul\":4285:4378   */\n      tag_290\n      jump\t// in\n    tag_289:\n        /* \"#utility.yul\":4403:4405   */\n      0x20\n        /* \"#utility.yul\":4398:4401   */\n      dup3\n        /* \"#utility.yul\":4394:4406   */\n      add\n        /* \"#utility.yul\":4387:4406   */\n      swap1\n      pop\n        /* \"#utility.yul\":4192:4412   */\n      swap2\n      swap1\n      pop\n      jump\t// out\n        /* \"#utility.yul\":4418:4784   */\n    tag_291:\n        /* \"#utility.yul\":4560:4563   */\n      0x00\n        /* \"#utility.yul\":4581:4648   */\n      tag_293\n        /* \"#utility.yul\":4645:4647   */\n      0x26\n        /* \"#utility.yul\":4640:4643   */\n      dup4\n        /* \"#utility.yul\":4581:4648   */\n      tag_261\n      jump\t// in\n    tag_293:\n        /* \"#utility.yul\":4574:4648   */\n      swap2\n      pop\n        /* \"#utility.yul\":4657:4750   */\n      tag_294\n        /* \"#utility.yul\":4746:4749   */\n      dup3\n        /* \"#utility.yul\":4657:4750   */\n      tag_295\n      jump\t// in\n    tag_294:\n        /* \"#utility.yul\":4775:4777   */\n      0x40\n        /* \"#utility.yul\":4770:4773   */\n      dup3\n        /* \"#utility.yul\":4766:4778   */\n      add\n        /* \"#utility.yul\":4759:4778   */\n      swap1\n      pop\n        /* \"#utility.yul\":4564:4784   */\n      swap2\n      swap1\n      pop\n      jump\t// out\n        /* \"#utility.yul\":4790:5156   */\n    tag_296:\n        /* \"#utility.yul\":4932:4935   */\n      0x00\n        /* \"#utility.yul\":4953:5020   */\n      tag_298\n        /* \"#utility.yul\":5017:5019   */\n      0x20\n        /* \"#utility.yul\":5012:5015   */\n      dup4\n        /* \"#utility.yul\":4953:5020   */\n      tag_261\n      jump\t// in\n    tag_298:\n        /* \"#utility.yul\":4946:5020   */\n      swap2\n      pop\n        /* \"#utility.yul\":5029:5122   */\n      tag_299\n        /* \"#utility.yul\":5118:5121   */\n      dup3\n        /* \"#utility.yul\":5029:5122   */\n      tag_300\n      jump\t// in\n    tag_299:\n        /* \"#utility.yul\":5147:5149   */\n      0x20\n        /* \"#utility.yul\":5142:5145   */\n      dup3\n        /* \"#utility.yul\":5138:5150   */\n      add\n        /* \"#utility.yul\":5131:5150   */\n      swap1\n      pop\n        /* \"#utility.yul\":4936:5156   */\n      swap2\n      swap1\n      pop\n      jump\t// out\n        /* \"#utility.yul\":5162:5528   */\n    tag_301:\n        /* \"#utility.yul\":5304:5307   */\n      0x00\n        /* \"#utility.yul\":5325:5392   */\n      tag_303\n        /* \"#utility.yul\":5389:5391   */\n      0x25\n        /* \"#utility.yul\":5384:5387   */\n      dup4\n        /* \"#utility.yul\":5325:5392   */\n      tag_261\n      jump\t// in\n    tag_303:\n        /* \"#utility.yul\":5318:5392   */\n      swap2\n      pop\n        /* \"#utility.yul\":5401:5494   */\n      tag_304\n        /* \"#utility.yul\":5490:5493   */\n      dup3\n        /* \"#utility.yul\":5401:5494   */\n      tag_305\n      jump\t// in\n    tag_304:\n        /* \"#utility.yul\":5519:5521   */\n      0x40\n        /* \"#utility.yul\":5514:5517   */\n      dup3\n        /* \"#utility.yul\":5510:5522   */\n      add\n        /* \"#utility.yul\":5503:5522   */\n      swap1\n      pop\n        /* \"#utility.yul\":5308:5528   */\n      swap2\n      swap1\n      pop\n      jump\t// out\n        /* \"#utility.yul\":5534:5900   */\n    tag_306:\n        /* \"#utility.yul\":5676:5679   */\n      0x00\n        /* \"#utility.yul\":5697:5764   */\n      tag_308\n        /* \"#utility.yul\":5761:5763   */\n      0x24\n        /* \"#utility.yul\":5756:5759   */\n      dup4\n        /* \"#utility.yul\":5697:5764   */\n      tag_261\n      jump\t// in\n    tag_308:\n        /* \"#utility.yul\":5690:5764   */\n      swap2\n      pop\n        /* \"#utility.yul\":5773:5866   */\n      tag_309\n        /* \"#utility.yul\":5862:5865   */\n      dup3\n        /* \"#utility.yul\":5773:5866   */\n      tag_310\n      jump\t// in\n    tag_309:\n        /* \"#utility.yul\":5891:5893   */\n      0x40\n        /* \"#utility.yul\":5886:5889   */\n      dup3\n        /* \"#utility.yul\":5882:5894   */\n      add\n        /* \"#utility.yul\":5875:5894   */\n      swap1\n      pop\n        /* \"#utility.yul\":5680:5900   */\n      swap2\n      swap1\n      pop\n      jump\t// out\n        /* \"#utility.yul\":5906:6272   */\n    tag_311:\n        /* \"#utility.yul\":6048:6051   */\n      0x00\n        /* \"#utility.yul\":6069:6136   */\n      tag_313\n        /* \"#utility.yul\":6133:6135   */\n      0x25\n        /* \"#utility.yul\":6128:6131   */\n      dup4\n        /* \"#utility.yul\":6069:6136   */\n      tag_261\n      jump\t// in\n    tag_313:\n        /* \"#utility.yul\":6062:6136   */\n      swap2\n      pop\n        /* \"#utility.yul\":6145:6238   */\n      tag_314\n        /* \"#utility.yul\":6234:6237   */\n      dup3\n        /* \"#utility.yul\":6145:6238   */\n      tag_315\n      jump\t// in\n    tag_314:\n        /* \"#utility.yul\":6263:6265   */\n      0x40\n        /* \"#utility.yul\":6258:6261   */\n      dup3\n        /* \"#utility.yul\":6254:6266   */\n      add\n        /* \"#utility.yul\":6247:6266   */\n      swap1\n      pop\n        /* \"#utility.yul\":6052:6272   */\n      swap2\n      swap1\n      pop\n      jump\t// out\n        /* \"#utility.yul\":6278:6644   */\n    tag_316:\n        /* \"#utility.yul\":6420:6423   */\n      0x00\n        /* \"#utility.yul\":6441:6508   */\n      tag_318\n        /* \"#utility.yul\":6505:6507   */\n      0x1f\n        /* \"#utility.yul\":6500:6503   */\n      dup4\n        /* \"#utility.yul\":6441:6508   */\n      tag_261\n      jump\t// in\n    tag_318:\n        /* \"#utility.yul\":6434:6508   */\n      swap2\n      pop\n        /* \"#utility.yul\":6517:6610   */\n      tag_319\n        /* \"#utility.yul\":6606:6609   */\n      dup3\n        /* \"#utility.yul\":6517:6610   */\n      tag_320\n      jump\t// in\n    tag_319:\n        /* \"#utility.yul\":6635:6637   */\n      0x20\n        /* \"#utility.yul\":6630:6633   */\n      dup3\n        /* \"#utility.yul\":6626:6638   */\n      add\n        /* \"#utility.yul\":6619:6638   */\n      swap1\n      pop\n        /* \"#utility.yul\":6424:6644   */\n      swap2\n      swap1\n      pop\n      jump\t// out\n        /* \"#utility.yul\":6650:6768   */\n    tag_321:\n        /* \"#utility.yul\":6737:6761   */\n      tag_323\n        /* \"#utility.yul\":6755:6760   */\n      dup2\n        /* \"#utility.yul\":6737:6761   */\n      tag_324\n      jump\t// in\n    tag_323:\n        /* \"#utility.yul\":6732:6735   */\n      dup3\n        /* \"#utility.yul\":6725:6762   */\n      mstore\n        /* \"#utility.yul\":6715:6768   */\n      pop\n      pop\n      jump\t// out\n        /* \"#utility.yul\":6774:6886   */\n    tag_325:\n        /* \"#utility.yul\":6857:6879   */\n      tag_327\n        /* \"#utility.yul\":6873:6878   */\n      dup2\n        /* \"#utility.yul\":6857:6879   */\n      tag_328\n      jump\t// in\n    tag_327:\n        /* \"#utility.yul\":6852:6855   */\n      dup3\n        /* \"#utility.yul\":6845:6880   */\n      mstore\n        /* \"#utility.yul\":6835:6886   */\n      pop\n      pop\n      jump\t// out\n        /* \"#utility.yul\":6892:7114   */\n    tag_75:\n        /* \"#utility.yul\":6985:6989   */\n      0x00\n        /* \"#utility.yul\":7023:7025   */\n      0x20\n        /* \"#utility.yul\":7012:7021   */\n      dup3\n        /* \"#utility.yul\":7008:7026   */\n      add\n        /* \"#utility.yul\":7000:7026   */\n      swap1\n      pop\n        /* \"#utility.yul\":7036:7107   */\n      tag_330\n        /* \"#utility.yul\":7104:7105   */\n      0x00\n        /* \"#utility.yul\":7093:7102   */\n      dup4\n        /* \"#utility.yul\":7089:7106   */\n      add\n        /* \"#utility.yul\":7080:7086   */\n      dup5\n        /* \"#utility.yul\":7036:7107   */\n      tag_248\n      jump\t// in\n    tag_330:\n        /* \"#utility.yul\":6990:7114   */\n      swap3\n      swap2\n      pop\n      pop\n      jump\t// out\n        /* \"#utility.yul\":7120:7330   */\n    tag_32:\n        /* \"#utility.yul\":7207:7211   */\n      0x00\n        /* \"#utility.yul\":7245:7247   */\n      0x20\n        /* \"#utility.yul\":7234:7243   */\n      dup3\n        /* \"#utility.yul\":7230:7248   */\n      add\n        /* \"#utility.yul\":7222:7248   */\n      swap1\n      pop\n        /* \"#utility.yul\":7258:7323   */\n      tag_332\n        /* \"#utility.yul\":7320:7321   */\n      0x00\n        /* \"#utility.yul\":7309:7318   */\n      dup4\n        /* \"#utility.yul\":7305:7322   */\n      add\n        /* \"#utility.yul\":7296:7302   */\n      dup5\n        /* \"#utility.yul\":7258:7323   */\n      tag_252\n      jump\t// in\n    tag_332:\n        /* \"#utility.yul\":7212:7330   */\n      swap3\n      swap2\n      pop\n      pop\n      jump\t// out\n        /* \"#utility.yul\":7336:7649   */\n    tag_25:\n        /* \"#utility.yul\":7449:7453   */\n      0x00\n        /* \"#utility.yul\":7487:7489   */\n      0x20\n        /* \"#utility.yul\":7476:7485   */\n      dup3\n        /* \"#utility.yul\":7472:7490   */\n      add\n        /* \"#utility.yul\":7464:7490   */\n      swap1\n      pop\n        /* \"#utility.yul\":7536:7545   */\n      dup2\n        /* \"#utility.yul\":7530:7534   */\n      dup2\n        /* \"#utility.yul\":7526:7546   */\n      sub\n        /* \"#utility.yul\":7522:7523   */\n      0x00\n        /* \"#utility.yul\":7511:7520   */\n      dup4\n        /* \"#utility.yul\":7507:7524   */\n      add\n        /* \"#utility.yul\":7500:7547   */\n      mstore\n        /* \"#utility.yul\":7564:7642   */\n      tag_334\n        /* \"#utility.yul\":7637:7641   */\n      dup2\n        /* \"#utility.yul\":7628:7634   */\n      dup5\n        /* \"#utility.yul\":7564:7642   */\n      tag_256\n      jump\t// in\n    tag_334:\n        /* \"#utility.yul\":7556:7642   */\n      swap1\n      pop\n        /* \"#utility.yul\":7454:7649   */\n      swap3\n      swap2\n      pop\n      pop\n      jump\t// out\n        /* \"#utility.yul\":7655:8074   */\n    tag_201:\n        /* \"#utility.yul\":7821:7825   */\n      0x00\n        /* \"#utility.yul\":7859:7861   */\n      0x20\n        /* \"#utility.yul\":7848:7857   */\n      dup3\n        /* \"#utility.yul\":7844:7862   */\n      add\n        /* \"#utility.yul\":7836:7862   */\n      swap1\n      pop\n        /* \"#utility.yul\":7908:7917   */\n      dup2\n        /* \"#utility.yul\":7902:7906   */\n      dup2\n        /* \"#utility.yul\":7898:7918   */\n      sub\n        /* \"#utility.yul\":7894:7895   */\n      0x00\n        /* \"#utility.yul\":7883:7892   */\n      dup4\n        /* \"#utility.yul\":7879:7896   */\n      add\n        /* \"#utility.yul\":7872:7919   */\n      mstore\n        /* \"#utility.yul\":7936:8067   */\n      tag_336\n        /* \"#utility.yul\":8062:8066   */\n      dup2\n        /* \"#utility.yul\":7936:8067   */\n      tag_266\n      jump\t// in\n    tag_336:\n        /* \"#utility.yul\":7928:8067   */\n      swap1\n      pop\n        /* \"#utility.yul\":7826:8074   */\n      swap2\n      swap1\n      pop\n      jump\t// out\n        /* \"#utility.yul\":8080:8499   */\n    tag_146:\n        /* \"#utility.yul\":8246:8250   */\n      0x00\n        /* \"#utility.yul\":8284:8286   */\n      0x20\n        /* \"#utility.yul\":8273:8282   */\n      dup3\n        /* \"#utility.yul\":8269:8287   */\n      add\n        /* \"#utility.yul\":8261:8287   */\n      swap1\n      pop\n        /* \"#utility.yul\":8333:8342   */\n      dup2\n        /* \"#utility.yul\":8327:8331   */\n      dup2\n        /* \"#utility.yul\":8323:8343   */\n      sub\n        /* \"#utility.yul\":8319:8320   */\n      0x00\n        /* \"#utility.yul\":8308:8317   */\n      dup4\n        /* \"#utility.yul\":8304:8321   */\n      add\n        /* \"#utility.yul\":8297:8344   */\n      mstore\n        /* \"#utility.yul\":8361:8492   */\n      tag_338\n        /* \"#utility.yul\":8487:8491   */\n      dup2\n        /* \"#utility.yul\":8361:8492   */\n      tag_271\n      jump\t// in\n    tag_338:\n        /* \"#utility.yul\":8353:8492   */\n      swap1\n      pop\n        /* \"#utility.yul\":8251:8499   */\n      swap2\n      swap1\n      pop\n      jump\t// out\n        /* \"#utility.yul\":8505:8924   */\n    tag_177:\n        /* \"#utility.yul\":8671:8675   */\n      0x00\n        /* \"#utility.yul\":8709:8711   */\n      0x20\n        /* \"#utility.yul\":8698:8707   */\n      dup3\n        /* \"#utility.yul\":8694:8712   */\n      add\n        /* \"#utility.yul\":8686:8712   */\n      swap1\n      pop\n        /* \"#utility.yul\":8758:8767   */\n      dup2\n        /* \"#utility.yul\":8752:8756   */\n      dup2\n        /* \"#utility.yul\":8748:8768   */\n      sub\n        /* \"#utility.yul\":8744:8745   */\n      0x00\n        /* \"#utility.yul\":8733:8742   */\n      dup4\n        /* \"#utility.yul\":8729:8746   */\n      add\n        /* \"#utility.yul\":8722:8769   */\n      mstore\n        /* \"#utility.yul\":8786:8917   */\n      tag_340\n        /* \"#utility.yul\":8912:8916   */\n      dup2\n        /* \"#utility.yul\":8786:8917   */\n      tag_276\n      jump\t// in\n    tag_340:\n        /* \"#utility.yul\":8778:8917   */\n      swap1\n      pop\n        /* \"#utility.yul\":8676:8924   */\n      swap2\n      swap1\n      pop\n      jump\t// out\n        /* \"#utility.yul\":8930:9349   */\n    tag_186:\n        /* \"#utility.yul\":9096:9100   */\n      0x00\n        /* \"#utility.yul\":9134:9136   */\n      0x20\n        /* \"#utility.yul\":9123:9132   */\n      dup3\n        /* \"#utility.yul\":9119:9137   */\n      add\n        /* \"#utility.yul\":9111:9137   */\n      swap1\n      pop\n        /* \"#utility.yul\":9183:9192   */\n      dup2\n        /* \"#utility.yul\":9177:9181   */\n      dup2\n        /* \"#utility.yul\":9173:9193   */\n      sub\n        /* \"#utility.yul\":9169:9170   */\n      0x00\n        /* \"#utility.yul\":9158:9167   */\n      dup4\n        /* \"#utility.yul\":9154:9171   */\n      add\n        /* \"#utility.yul\":9147:9194   */\n      mstore\n        /* \"#utility.yul\":9211:9342   */\n      tag_342\n        /* \"#utility.yul\":9337:9341   */\n      dup2\n        /* \"#utility.yul\":9211:9342   */\n      tag_281\n      jump\t// in\n    tag_342:\n        /* \"#utility.yul\":9203:9342   */\n      swap1\n      pop\n        /* \"#utility.yul\":9101:9349   */\n      swap2\n      swap1\n      pop\n      jump\t// out\n        /* \"#utility.yul\":9355:9774   */\n    tag_193:\n        /* \"#utility.yul\":9521:9525   */\n      0x00\n        /* \"#utility.yul\":9559:9561   */\n      0x20\n        /* \"#utility.yul\":9548:9557   */\n      dup3\n        /* \"#utility.yul\":9544:9562   */\n      add\n        /* \"#utility.yul\":9536:9562   */\n      swap1\n      pop\n        /* \"#utility.yul\":9608:9617   */\n      dup2\n        /* \"#utility.yul\":9602:9606   */\n      dup2\n        /* \"#utility.yul\":9598:9618   */\n      sub\n        /* \"#utility.yul\":9594:9595   */\n      0x00\n        /* \"#utility.yul\":9583:9592   */\n      dup4\n        /* \"#utility.yul\":9579:9596   */\n      add\n        /* \"#utility.yul\":9572:9619   */\n      mstore\n        /* \"#utility.yul\":9636:9767   */\n      tag_344\n        /* \"#utility.yul\":9762:9766   */\n      dup2\n        /* \"#utility.yul\":9636:9767   */\n      tag_286\n      jump\t// in\n    tag_344:\n        /* \"#utility.yul\":9628:9767   */\n      swap1\n      pop\n        /* \"#utility.yul\":9526:9774   */\n      swap2\n      swap1\n      pop\n      jump\t// out\n        /* \"#utility.yul\":9780:10199   */\n    tag_206:\n        /* \"#utility.yul\":9946:9950   */\n      0x00\n        /* \"#utility.yul\":9984:9986   */\n      0x20\n        /* \"#utility.yul\":9973:9982   */\n      dup3\n        /* \"#utility.yul\":9969:9987   */\n      add\n        /* \"#utility.yul\":9961:9987   */\n      swap1\n      pop\n        /* \"#utility.yul\":10033:10042   */\n      dup2\n        /* \"#utility.yul\":10027:10031   */\n      dup2\n        /* \"#utility.yul\":10023:10043   */\n      sub\n        /* \"#utility.yul\":10019:10020   */\n      0x00\n        /* \"#utility.yul\":10008:10017   */\n      dup4\n        /* \"#utility.yul\":10004:10021   */\n      add\n        /* \"#utility.yul\":9997:10044   */\n      mstore\n        /* \"#utility.yul\":10061:10192   */\n      tag_346\n        /* \"#utility.yul\":10187:10191   */\n      dup2\n        /* \"#utility.yul\":10061:10192   */\n      tag_291\n      jump\t// in\n    tag_346:\n        /* \"#utility.yul\":10053:10192   */\n      swap1\n      pop\n        /* \"#utility.yul\":9951:10199   */\n      swap2\n      swap1\n      pop\n      jump\t// out\n        /* \"#utility.yul\":10205:10624   */\n    tag_130:\n        /* \"#utility.yul\":10371:10375   */\n      0x00\n        /* \"#utility.yul\":10409:10411   */\n      0x20\n        /* \"#utility.yul\":10398:10407   */\n      dup3\n        /* \"#utility.yul\":10394:10412   */\n      add\n        /* \"#utility.yul\":10386:10412   */\n      swap1\n      pop\n        /* \"#utility.yul\":10458:10467   */\n      dup2\n        /* \"#utility.yul\":10452:10456   */\n      dup2\n        /* \"#utility.yul\":10448:10468   */\n      sub\n        /* \"#utility.yul\":10444:10445   */\n      0x00\n        /* \"#utility.yul\":10433:10442   */\n      dup4\n        /* \"#utility.yul\":10429:10446   */\n      add\n        /* \"#utility.yul\":10422:10469   */\n      mstore\n        /* \"#utility.yul\":10486:10617   */\n      tag_348\n        /* \"#utility.yul\":10612:10616   */\n      dup2\n        /* \"#utility.yul\":10486:10617   */\n      tag_296\n      jump\t// in\n    tag_348:\n        /* \"#utility.yul\":10478:10617   */\n      swap1\n      pop\n        /* \"#utility.yul\":10376:10624   */\n      swap2\n      swap1\n      pop\n      jump\t// out\n        /* \"#utility.yul\":10630:11049   */\n    tag_198:\n        /* \"#utility.yul\":10796:10800   */\n      0x00\n        /* \"#utility.yul\":10834:10836   */\n      0x20\n        /* \"#utility.yul\":10823:10832   */\n      dup3\n        /* \"#utility.yul\":10819:10837   */\n      add\n        /* \"#utility.yul\":10811:10837   */\n      swap1\n      pop\n        /* \"#utility.yul\":10883:10892   */\n      dup2\n        /* \"#utility.yul\":10877:10881   */\n      dup2\n        /* \"#utility.yul\":10873:10893   */\n      sub\n        /* \"#utility.yul\":10869:10870   */\n      0x00\n        /* \"#utility.yul\":10858:10867   */\n      dup4\n        /* \"#utility.yul\":10854:10871   */\n      add\n        /* \"#utility.yul\":10847:10894   */\n      mstore\n        /* \"#utility.yul\":10911:11042   */\n      tag_350\n        /* \"#utility.yul\":11037:11041   */\n      dup2\n        /* \"#utility.yul\":10911:11042   */\n      tag_301\n      jump\t// in\n    tag_350:\n        /* \"#utility.yul\":10903:11042   */\n      swap1\n      pop\n        /* \"#utility.yul\":10801:11049   */\n      swap2\n      swap1\n      pop\n      jump\t// out\n        /* \"#utility.yul\":11055:11474   */\n    tag_183:\n        /* \"#utility.yul\":11221:11225   */\n      0x00\n        /* \"#utility.yul\":11259:11261   */\n      0x20\n        /* \"#utility.yul\":11248:11257   */\n      dup3\n        /* \"#utility.yul\":11244:11262   */\n      add\n        /* \"#utility.yul\":11236:11262   */\n      swap1\n      pop\n        /* \"#utility.yul\":11308:11317   */\n      dup2\n        /* \"#utility.yul\":11302:11306   */\n      dup2\n        /* \"#utility.yul\":11298:11318   */\n      sub\n        /* \"#utility.yul\":11294:11295   */\n      0x00\n        /* \"#utility.yul\":11283:11292   */\n      dup4\n        /* \"#utility.yul\":11279:11296   */\n      add\n        /* \"#utility.yul\":11272:11319   */\n      mstore\n        /* \"#utility.yul\":11336:11467   */\n      tag_352\n        /* \"#utility.yul\":11462:11466   */\n      dup2\n        /* \"#utility.yul\":11336:11467   */\n      tag_306\n      jump\t// in\n    tag_352:\n        /* \"#utility.yul\":11328:11467   */\n      swap1\n      pop\n        /* \"#utility.yul\":11226:11474   */\n      swap2\n      swap1\n      pop\n      jump\t// out\n        /* \"#utility.yul\":11480:11899   */\n    tag_163:\n        /* \"#utility.yul\":11646:11650   */\n      0x00\n        /* \"#utility.yul\":11684:11686   */\n      0x20\n        /* \"#utility.yul\":11673:11682   */\n      dup3\n        /* \"#utility.yul\":11669:11687   */\n      add\n        /* \"#utility.yul\":11661:11687   */\n      swap1\n      pop\n        /* \"#utility.yul\":11733:11742   */\n      dup2\n        /* \"#utility.yul\":11727:11731   */\n      dup2\n        /* \"#utility.yul\":11723:11743   */\n      sub\n        /* \"#utility.yul\":11719:11720   */\n      0x00\n        /* \"#utility.yul\":11708:11717   */\n      dup4\n        /* \"#utility.yul\":11704:11721   */\n      add\n        /* \"#utility.yul\":11697:11744   */\n      mstore\n        /* \"#utility.yul\":11761:11892   */\n      tag_354\n        /* \"#utility.yul\":11887:11891   */\n      dup2\n        /* \"#utility.yul\":11761:11892   */\n      tag_311\n      jump\t// in\n    tag_354:\n        /* \"#utility.yul\":11753:11892   */\n      swap1\n      pop\n        /* \"#utility.yul\":11651:11899   */\n      swap2\n      swap1\n      pop\n      jump\t// out\n        /* \"#utility.yul\":11905:12324   */\n    tag_214:\n        /* \"#utility.yul\":12071:12075   */\n      0x00\n        /* \"#utility.yul\":12109:12111   */\n      0x20\n        /* \"#utility.yul\":12098:12107   */\n      dup3\n        /* \"#utility.yul\":12094:12112   */\n      add\n        /* \"#utility.yul\":12086:12112   */\n      swap1\n      pop\n        /* \"#utility.yul\":12158:12167   */\n      dup2\n        /* \"#utility.yul\":12152:12156   */\n      dup2\n        /* \"#utility.yul\":12148:12168   */\n      sub\n        /* \"#utility.yul\":12144:12145   */\n      0x00\n        /* \"#utility.yul\":12133:12142   */\n      dup4\n        /* \"#utility.yul\":12129:12146   */\n      add\n        /* \"#utility.yul\":12122:12169   */\n      mstore\n        /* \"#utility.yul\":12186:12317   */\n      tag_356\n        /* \"#utility.yul\":12312:12316   */\n      dup2\n        /* \"#utility.yul\":12186:12317   */\n      tag_316\n      jump\t// in\n    tag_356:\n        /* \"#utility.yul\":12178:12317   */\n      swap1\n      pop\n        /* \"#utility.yul\":12076:12324   */\n      swap2\n      swap1\n      pop\n      jump\t// out\n        /* \"#utility.yul\":12330:12552   */\n    tag_37:\n        /* \"#utility.yul\":12423:12427   */\n      0x00\n        /* \"#utility.yul\":12461:12463   */\n      0x20\n        /* \"#utility.yul\":12450:12459   */\n      dup3\n        /* \"#utility.yul\":12446:12464   */\n      add\n        /* \"#utility.yul\":12438:12464   */\n      swap1\n      pop\n        /* \"#utility.yul\":12474:12545   */\n      tag_358\n        /* \"#utility.yul\":12542:12543   */\n      0x00\n        /* \"#utility.yul\":12531:12540   */\n      dup4\n        /* \"#utility.yul\":12527:12544   */\n      add\n        /* \"#utility.yul\":12518:12524   */\n      dup5\n        /* \"#utility.yul\":12474:12545   */\n      tag_321\n      jump\t// in\n    tag_358:\n        /* \"#utility.yul\":12428:12552   */\n      swap3\n      swap2\n      pop\n      pop\n      jump\t// out\n        /* \"#utility.yul\":12558:12772   */\n    tag_48:\n        /* \"#utility.yul\":12647:12651   */\n      0x00\n        /* \"#utility.yul\":12685:12687   */\n      0x20\n        /* \"#utility.yul\":12674:12683   */\n      dup3\n        /* \"#utility.yul\":12670:12688   */\n      add\n        /* \"#utility.yul\":12662:12688   */\n      swap1\n      pop\n        /* \"#utility.yul\":12698:12765   */\n      tag_360\n        /* \"#utility.yul\":12762:12763   */\n      0x00\n        /* \"#utility.yul\":12751:12760   */\n      dup4\n        /* \"#utility.yul\":12747:12764   */\n      add\n        /* \"#utility.yul\":12738:12744   */\n      dup5\n        /* \"#utility.yul\":12698:12765   */\n      tag_325\n      jump\t// in\n    tag_360:\n        /* \"#utility.yul\":12652:12772   */\n      swap3\n      swap2\n      pop\n      pop\n      jump\t// out\n        /* \"#utility.yul\":12778:12877   */\n    tag_259:\n        /* \"#utility.yul\":12830:12836   */\n      0x00\n        /* \"#utility.yul\":12864:12869   */\n      dup2\n        /* \"#utility.yul\":12858:12870   */\n      mload\n        /* \"#utility.yul\":12848:12870   */\n      swap1\n      pop\n        /* \"#utility.yul\":12837:12877   */\n      swap2\n      swap1\n      pop\n      jump\t// out\n        /* \"#utility.yul\":12883:13052   */\n    tag_261:\n        /* \"#utility.yul\":12967:12978   */\n      0x00\n        /* \"#utility.yul\":13001:13007   */\n      dup3\n        /* \"#utility.yul\":12996:12999   */\n      dup3\n        /* \"#utility.yul\":12989:13008   */\n      mstore\n        /* \"#utility.yul\":13041:13045   */\n      0x20\n        /* \"#utility.yul\":13036:13039   */\n      dup3\n        /* \"#utility.yul\":13032:13046   */\n      add\n        /* \"#utility.yul\":13017:13046   */\n      swap1\n      pop\n        /* \"#utility.yul\":12979:13052   */\n      swap3\n      swap2\n      pop\n      pop\n      jump\t// out\n        /* \"#utility.yul\":13058:13363   */\n    tag_124:\n        /* \"#utility.yul\":13098:13101   */\n      0x00\n        /* \"#utility.yul\":13117:13137   */\n      tag_364\n        /* \"#utility.yul\":13135:13136   */\n      dup3\n        /* \"#utility.yul\":13117:13137   */\n      tag_324\n      jump\t// in\n    tag_364:\n        /* \"#utility.yul\":13112:13137   */\n      swap2\n      pop\n        /* \"#utility.yul\":13151:13171   */\n      tag_365\n        /* \"#utility.yul\":13169:13170   */\n      dup4\n        /* \"#utility.yul\":13151:13171   */\n      tag_324\n      jump\t// in\n    tag_365:\n        /* \"#utility.yul\":13146:13171   */\n      swap3\n      pop\n        /* \"#utility.yul\":13305:13306   */\n      dup3\n        /* \"#utility.yul\":13237:13303   */\n      0xffffffffffffffffffffffffffffffffffffffffffffffffffffffffffffffff\n        /* \"#utility.yul\":13233:13307   */\n      sub\n        /* \"#utility.yul\":13230:13231   */\n      dup3\n        /* \"#utility.yul\":13227:13308   */\n      gt\n        /* \"#utility.yul\":13224:13226   */\n      iszero\n      tag_366\n      jumpi\n        /* \"#utility.yul\":13311:13329   */\n      tag_367\n      tag_368\n      jump\t// in\n    tag_367:\n        /* \"#utility.yul\":13224:13226   */\n    tag_366:\n        /* \"#utility.yul\":13355:13356   */\n      dup3\n        /* \"#utility.yul\":13352:13353   */\n      dup3\n        /* \"#utility.yul\":13348:13357   */\n      add\n        /* \"#utility.yul\":13341:13357   */\n      swap1\n      pop\n        /* \"#utility.yul\":13102:13363   */\n      swap3\n      swap2\n      pop\n      pop\n      jump\t// out\n        /* \"#utility.yul\":13369:13554   */\n    tag_150:\n        /* \"#utility.yul\":13409:13410   */\n      0x00\n        /* \"#utility.yul\":13426:13446   */\n      tag_370\n        /* \"#utility.yul\":13444:13445   */\n      dup3\n        /* \"#utility.yul\":13426:13446   */\n      tag_324\n      jump\t// in\n    tag_370:\n        /* \"#utility.yul\":13421:13446   */\n      swap2\n      pop\n        /* \"#utility.yul\":13460:13480   */\n      tag_371\n        /* \"#utility.yul\":13478:13479   */\n      dup4\n        /* \"#utility.yul\":13460:13480   */\n      tag_324\n      jump\t// in\n    tag_371:\n        /* \"#utility.yul\":13455:13480   */\n      swap3\n      pop\n        /* \"#utility.yul\":13499:13500   */\n      dup3\n        /* \"#utility.yul\":13489:13491   */\n      tag_372\n      jumpi\n        /* \"#utility.yul\":13504:13522   */\n      tag_373\n      tag_374\n      jump\t// in\n    tag_373:\n        /* \"#utility.yul\":13489:13491   */\n    tag_372:\n        /* \"#utility.yul\":13546:13547   */\n      dup3\n        /* \"#utility.yul\":13543:13544   */\n      dup3\n        /* \"#utility.yul\":13539:13548   */\n      div\n        /* \"#utility.yul\":13534:13548   */\n      swap1\n      pop\n        /* \"#utility.yul\":13411:13554   */\n      swap3\n      swap2\n      pop\n      pop\n      jump\t// out\n        /* \"#utility.yul\":13560:13908   */\n    tag_148:\n        /* \"#utility.yul\":13600:13607   */\n      0x00\n        /* \"#utility.yul\":13623:13643   */\n      tag_376\n        /* \"#utility.yul\":13641:13642   */\n      dup3\n        /* \"#utility.yul\":13623:13643   */\n      tag_324\n      jump\t// in\n    tag_376:\n        /* \"#utility.yul\":13618:13643   */\n      swap2\n      pop\n        /* \"#utility.yul\":13657:13677   */\n      tag_377\n        /* \"#utility.yul\":13675:13676   */\n      dup4\n        /* \"#utility.yul\":13657:13677   */\n      tag_324\n      jump\t// in\n    tag_377:\n        /* \"#utility.yul\":13652:13677   */\n      swap3\n      pop\n        /* \"#utility.yul\":13845:13846   */\n      dup2\n        /* \"#utility.yul\":13777:13843   */\n      0xffffffffffffffffffffffffffffffffffffffffffffffffffffffffffffffff\n        /* \"#utility.yul\":13773:13847   */\n      div\n        /* \"#utility.yul\":13770:13771   */\n      dup4\n        /* \"#utility.yul\":13767:13848   */\n      gt\n        /* \"#utility.yul\":13762:13763   */\n      dup3\n        /* \"#utility.yul\":13755:13764   */\n      iszero\n        /* \"#utility.yul\":13748:13765   */\n      iszero\n        /* \"#utility.yul\":13744:13849   */\n      and\n        /* \"#utility.yul\":13741:13743   */\n      iszero\n      tag_378\n      jumpi\n        /* \"#utility.yul\":13852:13870   */\n      tag_379\n      tag_368\n      jump\t// in\n    tag_379:\n        /* \"#utility.yul\":13741:13743   */\n    tag_378:\n        /* \"#utility.yul\":13900:13901   */\n      dup3\n        /* \"#utility.yul\":13897:13898   */\n      dup3\n        /* \"#utility.yul\":13893:13902   */\n      mul\n        /* \"#utility.yul\":13882:13902   */\n      swap1\n      pop\n        /* \"#utility.yul\":13608:13908   */\n      swap3\n      swap2\n      pop\n      pop\n      jump\t// out\n        /* \"#utility.yul\":13914:14010   */\n    tag_251:\n        /* \"#utility.yul\":13951:13958   */\n      0x00\n        /* \"#utility.yul\":13980:14004   */\n      tag_381\n        /* \"#utility.yul\":13998:14003   */\n      dup3\n        /* \"#utility.yul\":13980:14004   */\n      tag_382\n      jump\t// in\n    tag_381:\n        /* \"#utility.yul\":13969:14004   */\n      swap1\n      pop\n        /* \"#utility.yul\":13959:14010   */\n      swap2\n      swap1\n      pop\n      jump\t// out\n        /* \"#utility.yul\":14016:14106   */\n    tag_255:\n        /* \"#utility.yul\":14050:14057   */\n      0x00\n        /* \"#utility.yul\":14093:14098   */\n      dup2\n        /* \"#utility.yul\":14086:14099   */\n      iszero\n        /* \"#utility.yul\":14079:14100   */\n      iszero\n        /* \"#utility.yul\":14068:14100   */\n      swap1\n      pop\n        /* \"#utility.yul\":14058:14106   */\n      swap2\n      swap1\n      pop\n      jump\t// out\n        /* \"#utility.yul\":14112:14238   */\n    tag_382:\n        /* \"#utility.yul\":14149:14156   */\n      0x00\n        /* \"#utility.yul\":14189:14231   */\n      0xffffffffffffffffffffffffffffffffffffffff\n        /* \"#utility.yul\":14182:14187   */\n      dup3\n        /* \"#utility.yul\":14178:14232   */\n      and\n        /* \"#utility.yul\":14167:14232   */\n      swap1\n      pop\n        /* \"#utility.yul\":14157:14238   */\n      swap2\n      swap1\n      pop\n      jump\t// out\n        /* \"#utility.yul\":14244:14321   */\n    tag_324:\n        /* \"#utility.yul\":14281:14288   */\n      0x00\n        /* \"#utility.yul\":14310:14315   */\n      dup2\n        /* \"#utility.yul\":14299:14315   */\n      swap1\n      pop\n        /* \"#utility.yul\":14289:14321   */\n      swap2\n      swap1\n      pop\n      jump\t// out\n        /* \"#utility.yul\":14327:14413   */\n    tag_328:\n        /* \"#utility.yul\":14362:14369   */\n      0x00\n        /* \"#utility.yul\":14402:14406   */\n      0xff\n        /* \"#utility.yul\":14395:14400   */\n      dup3\n        /* \"#utility.yul\":14391:14407   */\n      and\n        /* \"#utility.yul\":14380:14407   */\n      swap1\n      pop\n        /* \"#utility.yul\":14370:14413   */\n      swap2\n      swap1\n      pop\n      jump\t// out\n        /* \"#utility.yul\":14419:14726   */\n    tag_263:\n        /* \"#utility.yul\":14487:14488   */\n      0x00\n        /* \"#utility.yul\":14497:14610   */\n    tag_388:\n        /* \"#utility.yul\":14511:14517   */\n      dup4\n        /* \"#utility.yul\":14508:14509   */\n      dup2\n        /* \"#utility.yul\":14505:14518   */\n      lt\n        /* \"#utility.yul\":14497:14610   */\n      iszero\n      tag_390\n      jumpi\n        /* \"#utility.yul\":14596:14597   */\n      dup1\n        /* \"#utility.yul\":14591:14594   */\n      dup3\n        /* \"#utility.yul\":14587:14598   */\n      add\n        /* \"#utility.yul\":14581:14599   */\n      mload\n        /* \"#utility.yul\":14577:14578   */\n      dup2\n        /* \"#utility.yul\":14572:14575   */\n      dup5\n        /* \"#utility.yul\":14568:14579   */\n      add\n        /* \"#utility.yul\":14561:14600   */\n      mstore\n        /* \"#utility.yul\":14533:14535   */\n      0x20\n        /* \"#utility.yul\":14530:14531   */\n      dup2\n        /* \"#utility.yul\":14526:14536   */\n      add\n        /* \"#utility.yul\":14521:14536   */\n      swap1\n      pop\n        /* \"#utility.yul\":14497:14610   */\n      jump(tag_388)\n    tag_390:\n        /* \"#utility.yul\":14628:14634   */\n      dup4\n        /* \"#utility.yul\":14625:14626   */\n      dup2\n        /* \"#utility.yul\":14622:14635   */\n      gt\n        /* \"#utility.yul\":14619:14621   */\n      iszero\n      tag_391\n      jumpi\n        /* \"#utility.yul\":14708:14709   */\n      0x00\n        /* \"#utility.yul\":14699:14705   */\n      dup5\n        /* \"#utility.yul\":14694:14697   */\n      dup5\n        /* \"#utility.yul\":14690:14706   */\n      add\n        /* \"#utility.yul\":14683:14710   */\n      mstore\n        /* \"#utility.yul\":14619:14621   */\n    tag_391:\n        /* \"#utility.yul\":14468:14726   */\n      pop\n      pop\n      pop\n      pop\n      jump\t// out\n        /* \"#utility.yul\":14732:15052   */\n    tag_102:\n        /* \"#utility.yul\":14776:14782   */\n      0x00\n        /* \"#utility.yul\":14813:14814   */\n      0x02\n        /* \"#utility.yul\":14807:14811   */\n      dup3\n        /* \"#utility.yul\":14803:14815   */\n      div\n        /* \"#utility.yul\":14793:14815   */\n      swap1\n      pop\n        /* \"#utility.yul\":14860:14861   */\n      0x01\n        /* \"#utility.yul\":14854:14858   */\n      dup3\n        /* \"#utility.yul\":14850:14862   */\n      and\n        /* \"#utility.yul\":14881:14899   */\n      dup1\n        /* \"#utility.yul\":14871:14873   */\n      tag_393\n      jumpi\n        /* \"#utility.yul\":14937:14941   */\n      0x7f\n        /* \"#utility.yul\":14929:14935   */\n      dup3\n        /* \"#utility.yul\":14925:14942   */\n      and\n        /* \"#utility.yul\":14915:14942   */\n      swap2\n      pop\n        /* \"#utility.yul\":14871:14873   */\n    tag_393:\n        /* \"#utility.yul\":14999:15001   */\n      0x20\n        /* \"#utility.yul\":14991:14997   */\n      dup3\n        /* \"#utility.yul\":14988:15002   */\n      lt\n        /* \"#utility.yul\":14968:14986   */\n      dup2\n        /* \"#utility.yul\":14965:15003   */\n      eq\n        /* \"#utility.yul\":14962:14964   */\n      iszero\n      tag_394\n      jumpi\n        /* \"#utility.yul\":15018:15036   */\n      tag_395\n      tag_396\n      jump\t// in\n    tag_395:\n        /* \"#utility.yul\":14962:14964   */\n    tag_394:\n        /* \"#utility.yul\":14783:15052   */\n      pop\n      swap2\n      swap1\n      pop\n      jump\t// out\n        /* \"#utility.yul\":15058:15238   */\n    tag_368:\n        /* \"#utility.yul\":15106:15183   */\n      0x4e487b7100000000000000000000000000000000000000000000000000000000\n        /* \"#utility.yul\":15103:15104   */\n      0x00\n        /* \"#utility.yul\":15096:15184   */\n      mstore\n        /* \"#utility.yul\":15203:15207   */\n      0x11\n        /* \"#utility.yul\":15200:15201   */\n      0x04\n        /* \"#utility.yul\":15193:15208   */\n      mstore\n        /* \"#utility.yul\":15227:15231   */\n      0x24\n        /* \"#utility.yul\":15224:15225   */\n      0x00\n        /* \"#utility.yul\":15217:15232   */\n      revert\n        /* \"#utility.yul\":15244:15424   */\n    tag_374:\n        /* \"#utility.yul\":15292:15369   */\n      0x4e487b7100000000000000000000000000000000000000000000000000000000\n        /* \"#utility.yul\":15289:15290   */\n      0x00\n        /* \"#utility.yul\":15282:15370   */\n      mstore\n        /* \"#utility.yul\":15389:15393   */\n      0x12\n        /* \"#utility.yul\":15386:15387   */\n      0x04\n        /* \"#utility.yul\":15379:15394   */\n      mstore\n        /* \"#utility.yul\":15413:15417   */\n      0x24\n        /* \"#utility.yul\":15410:15411   */\n      0x00\n        /* \"#utility.yul\":15403:15418   */\n      revert\n        /* \"#utility.yul\":15430:15610   */\n    tag_396:\n        /* \"#utility.yul\":15478:15555   */\n      0x4e487b7100000000000000000000000000000000000000000000000000000000\n        /* \"#utility.yul\":15475:15476   */\n      0x00\n        /* \"#utility.yul\":15468:15556   */\n      mstore\n        /* \"#utility.yul\":15575:15579   */\n      0x22\n        /* \"#utility.yul\":15572:15573   */\n      0x04\n        /* \"#utility.yul\":15565:15580   */\n      mstore\n        /* \"#utility.yul\":15599:15603   */\n      0x24\n        /* \"#utility.yul\":15596:15597   */\n      0x00\n        /* \"#utility.yul\":15589:15604   */\n      revert\n        /* \"#utility.yul\":15616:15718   */\n    tag_265:\n        /* \"#utility.yul\":15657:15663   */\n      0x00\n        /* \"#utility.yul\":15708:15710   */\n      0x1f\n        /* \"#utility.yul\":15704:15711   */\n      not\n        /* \"#utility.yul\":15699:15701   */\n      0x1f\n        /* \"#utility.yul\":15692:15697   */\n      dup4\n        /* \"#utility.yul\":15688:15702   */\n      add\n        /* \"#utility.yul\":15684:15712   */\n      and\n        /* \"#utility.yul\":15674:15712   */\n      swap1\n      pop\n        /* \"#utility.yul\":15664:15718   */\n      swap2\n      swap1\n      pop\n      jump\t// out\n        /* \"#utility.yul\":15724:15946   */\n    tag_270:\n        /* \"#utility.yul\":15864:15898   */\n      0x45524332303a207472616e7366657220746f20746865207a65726f2061646472\n        /* \"#utility.yul\":15860:15861   */\n      0x00\n        /* \"#utility.yul\":15852:15858   */\n      dup3\n        /* \"#utility.yul\":15848:15862   */\n      add\n        /* \"#utility.yul\":15841:15899   */\n      mstore\n        /* \"#utility.yul\":15933:15938   */\n      0x6573730000000000000000000000000000000000000000000000000000000000\n        /* \"#utility.yul\":15928:15930   */\n      0x20\n        /* \"#utility.yul\":15920:15926   */\n      dup3\n        /* \"#utility.yul\":15916:15931   */\n      add\n        /* \"#utility.yul\":15909:15939   */\n      mstore\n        /* \"#utility.yul\":15830:15946   */\n      pop\n      jump\t// out\n        /* \"#utility.yul\":15952:16172   */\n    tag_275:\n        /* \"#utility.yul\":16092:16126   */\n      0x596f752063616e6e6f74206d696e742052434e2077697468207a65726f204554\n        /* \"#utility.yul\":16088:16089   */\n      0x00\n        /* \"#utility.yul\":16080:16086   */\n      dup3\n        /* \"#utility.yul\":16076:16090   */\n      add\n        /* \"#utility.yul\":16069:16127   */\n      mstore\n        /* \"#utility.yul\":16161:16164   */\n      0x4800000000000000000000000000000000000000000000000000000000000000\n        /* \"#utility.yul\":16156:16158   */\n      0x20\n        /* \"#utility.yul\":16148:16154   */\n      dup3\n        /* \"#utility.yul\":16144:16159   */\n      add\n        /* \"#utility.yul\":16137:16165   */\n      mstore\n        /* \"#utility.yul\":16058:16172   */\n      pop\n      jump\t// out\n        /* \"#utility.yul\":16178:16403   */\n    tag_280:\n        /* \"#utility.yul\":16318:16352   */\n      0x4f776e61626c653a206e6577206f776e657220697320746865207a65726f2061\n        /* \"#utility.yul\":16314:16315   */\n      0x00\n        /* \"#utility.yul\":16306:16312   */\n      dup3\n        /* \"#utility.yul\":16302:16316   */\n      add\n        /* \"#utility.yul\":16295:16353   */\n      mstore\n        /* \"#utility.yul\":16387:16395   */\n      0x6464726573730000000000000000000000000000000000000000000000000000\n        /* \"#utility.yul\":16382:16384   */\n      0x20\n        /* \"#utility.yul\":16374:16380   */\n      dup3\n        /* \"#utility.yul\":16370:16385   */\n      add\n        /* \"#utility.yul\":16363:16396   */\n      mstore\n        /* \"#utility.yul\":16284:16403   */\n      pop\n      jump\t// out\n        /* \"#utility.yul\":16409:16630   */\n    tag_285:\n        /* \"#utility.yul\":16549:16583   */\n      0x45524332303a20617070726f766520746f20746865207a65726f206164647265\n        /* \"#utility.yul\":16545:16546   */\n      0x00\n        /* \"#utility.yul\":16537:16543   */\n      dup3\n        /* \"#utility.yul\":16533:16547   */\n      add\n        /* \"#utility.yul\":16526:16584   */\n      mstore\n        /* \"#utility.yul\":16618:16622   */\n      0x7373000000000000000000000000000000000000000000000000000000000000\n        /* \"#utility.yul\":16613:16615   */\n      0x20\n        /* \"#utility.yul\":16605:16611   */\n      dup3\n        /* \"#utility.yul\":16601:16616   */\n      add\n        /* \"#utility.yul\":16594:16623   */\n      mstore\n        /* \"#utility.yul\":16515:16630   */\n      pop\n      jump\t// out\n        /* \"#utility.yul\":16636:16815   */\n    tag_290:\n        /* \"#utility.yul\":16776:16807   */\n      0x45524332303a20696e73756666696369656e7420616c6c6f77616e6365000000\n        /* \"#utility.yul\":16772:16773   */\n      0x00\n        /* \"#utility.yul\":16764:16770   */\n      dup3\n        /* \"#utility.yul\":16760:16774   */\n      add\n        /* \"#utility.yul\":16753:16808   */\n      mstore\n        /* \"#utility.yul\":16742:16815   */\n      pop\n      jump\t// out\n        /* \"#utility.yul\":16821:17046   */\n    tag_295:\n        /* \"#utility.yul\":16961:16995   */\n      0x45524332303a207472616e7366657220616d6f756e7420657863656564732062\n        /* \"#utility.yul\":16957:16958   */\n      0x00\n        /* \"#utility.yul\":16949:16955   */\n      dup3\n        /* \"#utility.yul\":16945:16959   */\n      add\n        /* \"#utility.yul\":16938:16996   */\n      mstore\n        /* \"#utility.yul\":17030:17038   */\n      0x616c616e63650000000000000000000000000000000000000000000000000000\n        /* \"#utility.yul\":17025:17027   */\n      0x20\n        /* \"#utility.yul\":17017:17023   */\n      dup3\n        /* \"#utility.yul\":17013:17028   */\n      add\n        /* \"#utility.yul\":17006:17039   */\n      mstore\n        /* \"#utility.yul\":16927:17046   */\n      pop\n      jump\t// out\n        /* \"#utility.yul\":17052:17234   */\n    tag_300:\n        /* \"#utility.yul\":17192:17226   */\n      0x4f776e61626c653a2063616c6c6572206973206e6f7420746865206f776e6572\n        /* \"#utility.yul\":17188:17189   */\n      0x00\n        /* \"#utility.yul\":17180:17186   */\n      dup3\n        /* \"#utility.yul\":17176:17190   */\n      add\n        /* \"#utility.yul\":17169:17227   */\n      mstore\n        /* \"#utility.yul\":17158:17234   */\n      pop\n      jump\t// out\n        /* \"#utility.yul\":17240:17464   */\n    tag_305:\n        /* \"#utility.yul\":17380:17414   */\n      0x45524332303a207472616e736665722066726f6d20746865207a65726f206164\n        /* \"#utility.yul\":17376:17377   */\n      0x00\n        /* \"#utility.yul\":17368:17374   */\n      dup3\n        /* \"#utility.yul\":17364:17378   */\n      add\n        /* \"#utility.yul\":17357:17415   */\n      mstore\n        /* \"#utility.yul\":17449:17456   */\n      0x6472657373000000000000000000000000000000000000000000000000000000\n        /* \"#utility.yul\":17444:17446   */\n      0x20\n        /* \"#utility.yul\":17436:17442   */\n      dup3\n        /* \"#utility.yul\":17432:17447   */\n      add\n        /* \"#utility.yul\":17425:17457   */\n      mstore\n        /* \"#utility.yul\":17346:17464   */\n      pop\n      jump\t// out\n        /* \"#utility.yul\":17470:17693   */\n    tag_310:\n        /* \"#utility.yul\":17610:17644   */\n      0x45524332303a20617070726f76652066726f6d20746865207a65726f20616464\n        /* \"#utility.yul\":17606:17607   */\n      0x00\n        /* \"#utility.yul\":17598:17604   */\n      dup3\n        /* \"#utility.yul\":17594:17608   */\n      add\n        /* \"#utility.yul\":17587:17645   */\n      mstore\n        /* \"#utility.yul\":17679:17685   */\n      0x7265737300000000000000000000000000000000000000000000000000000000\n        /* \"#utility.yul\":17674:17676   */\n      0x20\n        /* \"#utility.yul\":17666:17672   */\n      dup3\n        /* \"#utility.yul\":17662:17677   */\n      add\n        /* \"#utility.yul\":17655:17686   */\n      mstore\n        /* \"#utility.yul\":17576:17693   */\n      pop\n      jump\t// out\n        /* \"#utility.yul\":17699:17923   */\n    tag_315:\n        /* \"#utility.yul\":17839:17873   */\n      0x45524332303a2064656372656173656420616c6c6f77616e63652062656c6f77\n        /* \"#utility.yul\":17835:17836   */\n      0x00\n        /* \"#utility.yul\":17827:17833   */\n      dup3\n        /* \"#utility.yul\":17823:17837   */\n      add\n        /* \"#utility.yul\":17816:17874   */\n      mstore\n        /* \"#utility.yul\":17908:17915   */\n      0x207a65726f000000000000000000000000000000000000000000000000000000\n        /* \"#utility.yul\":17903:17905   */\n      0x20\n        /* \"#utility.yul\":17895:17901   */\n      dup3\n        /* \"#utility.yul\":17891:17906   */\n      add\n        /* \"#utility.yul\":17884:17916   */\n      mstore\n        /* \"#utility.yul\":17805:17923   */\n      pop\n      jump\t// out\n        /* \"#utility.yul\":17929:18110   */\n    tag_320:\n        /* \"#utility.yul\":18069:18102   */\n      0x45524332303a206d696e7420746f20746865207a65726f206164647265737300\n        /* \"#utility.yul\":18065:18066   */\n      0x00\n        /* \"#utility.yul\":18057:18063   */\n      dup3\n        /* \"#utility.yul\":18053:18067   */\n      add\n        /* \"#utility.yul\":18046:18103   */\n      mstore\n        /* \"#utility.yul\":18035:18110   */\n      pop\n      jump\t// out\n        /* \"#utility.yul\":18116:18238   */\n    tag_227:\n        /* \"#utility.yul\":18189:18213   */\n      tag_413\n        /* \"#utility.yul\":18207:18212   */\n      dup2\n        /* \"#utility.yul\":18189:18213   */\n      tag_251\n      jump\t// in\n    tag_413:\n        /* \"#utility.yul\":18182:18187   */\n      dup2\n        /* \"#utility.yul\":18179:18214   */\n      eq\n        /* \"#utility.yul\":18169:18171   */\n      tag_414\n      jumpi\n        /* \"#utility.yul\":18228:18229   */\n      0x00\n        /* \"#utility.yul\":18225:18226   */\n      dup1\n        /* \"#utility.yul\":18218:18230   */\n      revert\n        /* \"#utility.yul\":18169:18171   */\n    tag_414:\n        /* \"#utility.yul\":18159:18238   */\n      pop\n      jump\t// out\n        /* \"#utility.yul\":18244:18366   */\n    tag_231:\n        /* \"#utility.yul\":18317:18341   */\n      tag_416\n        /* \"#utility.yul\":18335:18340   */\n      dup2\n        /* \"#utility.yul\":18317:18341   */\n      tag_324\n      jump\t// in\n    tag_416:\n        /* \"#utility.yul\":18310:18315   */\n      dup2\n        /* \"#utility.yul\":18307:18342   */\n      eq\n        /* \"#utility.yul\":18297:18299   */\n      tag_417\n      jumpi\n        /* \"#utility.yul\":18356:18357   */\n      0x00\n        /* \"#utility.yul\":18353:18354   */\n      dup1\n        /* \"#utility.yul\":18346:18358   */\n      revert\n        /* \"#utility.yul\":18297:18299   */\n    tag_417:\n        /* \"#utility.yul\":18287:18366   */\n      pop\n      jump\t// out\n\n    auxdata: 0xa264697066735822122039beb385f558064fd35a165a39c8503561a40face916f43c3ac8d332bda9a86f64736f6c63430008040033\n}\n",
				"bytecode": {
					"linkReferences": {},
					"object": "60806040523480156200001157600080fd5b506040518060400160405280600881526020017f52696368436f696e0000000000000000000000000000000000000000000000008152506040518060400160405280600381526020017f52434e000000000000000000000000000000000000000000000000000000000081525081600390805190602001906200009692919062000371565b508060049080519060200190620000af92919062000371565b505050620000d2620000c66200011760201b60201c565b6200011f60201b60201c565b6200011133620000e7620001e560201b60201c565b600a620000f5919062000561565b620f42406200010591906200069e565b620001ee60201b60201c565b620007e0565b600033905090565b6000600560009054906101000a900473ffffffffffffffffffffffffffffffffffffffff16905081600560006101000a81548173ffffffffffffffffffffffffffffffffffffffff021916908373ffffffffffffffffffffffffffffffffffffffff1602179055508173ffffffffffffffffffffffffffffffffffffffff168173ffffffffffffffffffffffffffffffffffffffff167f8be0079c531659141344cd1fd0a4f28419497f9722a3daafe3b4186f6b6457e060405160405180910390a35050565b60006012905090565b600073ffffffffffffffffffffffffffffffffffffffff168273ffffffffffffffffffffffffffffffffffffffff16141562000261576040517f08c379a0000000000000000000000000000000000000000000000000000000008152600401620002589062000459565b60405180910390fd5b62000275600083836200036760201b60201c565b8060026000828254620002899190620004a9565b92505081905550806000808473ffffffffffffffffffffffffffffffffffffffff1673ffffffffffffffffffffffffffffffffffffffff1681526020019081526020016000206000828254620002e09190620004a9565b925050819055508173ffffffffffffffffffffffffffffffffffffffff16600073ffffffffffffffffffffffffffffffffffffffff167fddf252ad1be2c89b69c2b068fc378daa952ba7f163c4a11628f55a4df523b3ef836040516200034791906200047b565b60405180910390a362000363600083836200036c60201b60201c565b5050565b505050565b505050565b8280546200037f9062000716565b90600052602060002090601f016020900481019282620003a35760008555620003ef565b82601f10620003be57805160ff1916838001178555620003ef565b82800160010185558215620003ef579182015b82811115620003ee578251825591602001919060010190620003d1565b5b509050620003fe919062000402565b5090565b5b808211156200041d57600081600090555060010162000403565b5090565b600062000430601f8362000498565b91506200043d82620007b7565b602082019050919050565b6200045381620006ff565b82525050565b60006020820190508181036000830152620004748162000421565b9050919050565b600060208201905062000492600083018462000448565b92915050565b600082825260208201905092915050565b6000620004b682620006ff565b9150620004c383620006ff565b9250827fffffffffffffffffffffffffffffffffffffffffffffffffffffffffffffffff03821115620004fb57620004fa6200074c565b5b828201905092915050565b6000808291508390505b6001851115620005585780860481111562000530576200052f6200074c565b5b6001851615620005405780820291505b80810290506200055085620007aa565b945062000510565b94509492505050565b60006200056e82620006ff565b91506200057b8362000709565b9250620005aa7fffffffffffffffffffffffffffffffffffffffffffffffffffffffffffffffff8484620005b2565b905092915050565b600082620005c4576001905062000697565b81620005d4576000905062000697565b8160018114620005ed5760028114620005f8576200062e565b600191505062000697565b60ff8411156200060d576200060c6200074c565b5b8360020a9150848211156200062757620006266200074c565b5b5062000697565b5060208310610133831016604e8410600b8410161715620006685782820a9050838111156200066257620006616200074c565b5b62000697565b62000677848484600162000506565b925090508184048111156200069157620006906200074c565b5b81810290505b9392505050565b6000620006ab82620006ff565b9150620006b883620006ff565b9250817fffffffffffffffffffffffffffffffffffffffffffffffffffffffffffffffff0483118215151615620006f457620006f36200074c565b5b828202905092915050565b6000819050919050565b600060ff82169050919050565b600060028204905060018216806200072f57607f821691505b602082108114156200074657620007456200077b565b5b50919050565b7f4e487b7100000000000000000000000000000000000000000000000000000000600052601160045260246000fd5b7f4e487b7100000000000000000000000000000000000000000000000000000000600052602260045260246000fd5b60008160011c9050919050565b7f45524332303a206d696e7420746f20746865207a65726f206164647265737300600082015250565b611c8980620007f06000396000f3fe6080604052600436106100f35760003560e01c8063715018a61161008a578063a457c2d711610059578063a457c2d714610333578063a9059cbb14610370578063dd62ed3e146103ad578063f2fde38b146103ea576100f3565b8063715018a6146102965780637e72fb52146102ad5780638da5cb5b146102dd57806395d89b4114610308576100f3565b8063313ce567116100c6578063313ce567146101c857806339509351146101f357806340c10f191461023057806370a0823114610259576100f3565b806306fdde03146100f8578063095ea7b31461012357806318160ddd1461016057806323b872dd1461018b575b600080fd5b34801561010457600080fd5b5061010d610413565b60405161011a9190611525565b60405180910390f35b34801561012f57600080fd5b5061014a600480360381019061014591906112bd565b6104a5565b604051610157919061150a565b60405180910390f35b34801561016c57600080fd5b506101756104c8565b60405161018291906116a7565b60405180910390f35b34801561019757600080fd5b506101b260048036038101906101ad919061126e565b6104d2565b6040516101bf919061150a565b60405180910390f35b3480156101d457600080fd5b506101dd610501565b6040516101ea91906116c2565b60405180910390f35b3480156101ff57600080fd5b5061021a600480360381019061021591906112bd565b61050a565b604051610227919061150a565b60405180910390f35b34801561023c57600080fd5b50610257600480360381019061025291906112bd565b6105b4565b005b34801561026557600080fd5b50610280600480360381019061027b9190611209565b61063e565b60405161028d91906116a7565b60405180910390f35b3480156102a257600080fd5b506102ab610686565b005b6102c760048036038101906102c29190611209565b61070e565b6040516102d491906116a7565b60405180910390f35b3480156102e957600080fd5b506102f2610787565b6040516102ff91906114ef565b60405180910390f35b34801561031457600080fd5b5061031d6107b1565b60405161032a9190611525565b60405180910390f35b34801561033f57600080fd5b5061035a600480360381019061035591906112bd565b610843565b604051610367919061150a565b60405180910390f35b34801561037c57600080fd5b50610397600480360381019061039291906112bd565b61092d565b6040516103a4919061150a565b60405180910390f35b3480156103b957600080fd5b506103d460048036038101906103cf9190611232565b610950565b6040516103e191906116a7565b60405180910390f35b3480156103f657600080fd5b50610411600480360381019061040c9190611209565b6109d7565b005b60606003805461042290611862565b80601f016020809104026020016040519081016040528092919081815260200182805461044e90611862565b801561049b5780601f106104705761010080835404028352916020019161049b565b820191906000526020600020905b81548152906001019060200180831161047e57829003601f168201915b5050505050905090565b6000806104b0610acf565b90506104bd818585610ad7565b600191505092915050565b6000600254905090565b6000806104dd610acf565b90506104ea858285610ca2565b6104f5858585610d2e565b60019150509392505050565b60006012905090565b600080610515610acf565b90506105a9818585600160008673ffffffffffffffffffffffffffffffffffffffff1673ffffffffffffffffffffffffffffffffffffffff16815260200190815260200160002060008973ffffffffffffffffffffffffffffffffffffffff1673ffffffffffffffffffffffffffffffffffffffff168152602001908152602001600020546105a491906116f9565b610ad7565b600191505092915050565b6105bc610acf565b73ffffffffffffffffffffffffffffffffffffffff166105da610787565b73ffffffffffffffffffffffffffffffffffffffff1614610630576040517f08c379a000000000000000000000000000000000000000000000000000000000815260040161062790611607565b60405180910390fd5b61063a8282610faf565b5050565b60008060008373ffffffffffffffffffffffffffffffffffffffff1673ffffffffffffffffffffffffffffffffffffffff168152602001908152602001600020549050919050565b61068e610acf565b73ffffffffffffffffffffffffffffffffffffffff166106ac610787565b73ffffffffffffffffffffffffffffffffffffffff1614610702576040517f08c379a00000000000000000000000000000000000000000000000000000000081526004016106f990611607565b60405180910390fd5b61070c600061110f565b565b6000803411610752576040517f08c379a000000000000000000000000000000000000000000000000000000000815260040161074990611567565b60405180910390fd5b6000670de0b6b3a76400006103e83461076b9190611780565b610775919061174f565b90506107818382610faf565b50919050565b6000600560009054906101000a900473ffffffffffffffffffffffffffffffffffffffff16905090565b6060600480546107c090611862565b80601f01602080910402602001604051908101604052809291908181526020018280546107ec90611862565b80156108395780601f1061080e57610100808354040283529160200191610839565b820191906000526020600020905b81548152906001019060200180831161081c57829003601f168201915b5050505050905090565b60008061084e610acf565b90506000600160008373ffffffffffffffffffffffffffffffffffffffff1673ffffffffffffffffffffffffffffffffffffffff16815260200190815260200160002060008673ffffffffffffffffffffffffffffffffffffffff1673ffffffffffffffffffffffffffffffffffffffff16815260200190815260200160002054905083811015610914576040517f08c379a000000000000000000000000000000000000000000000000000000000815260040161090b90611667565b60405180910390fd5b6109218286868403610ad7565b60019250505092915050565b600080610938610acf565b9050610945818585610d2e565b600191505092915050565b6000600160008473ffffffffffffffffffffffffffffffffffffffff1673ffffffffffffffffffffffffffffffffffffffff16815260200190815260200160002060008373ffffffffffffffffffffffffffffffffffffffff1673ffffffffffffffffffffffffffffffffffffffff16815260200190815260200160002054905092915050565b6109df610acf565b73ffffffffffffffffffffffffffffffffffffffff166109fd610787565b73ffffffffffffffffffffffffffffffffffffffff1614610a53576040517f08c379a0000000000000000000000000000000000000000000000000000000008152600401610a4a90611607565b60405180910390fd5b600073ffffffffffffffffffffffffffffffffffffffff168173ffffffffffffffffffffffffffffffffffffffff161415610ac3576040517f08c379a0000000000000000000000000000000000000000000000000000000008152600401610aba90611587565b60405180910390fd5b610acc8161110f565b50565b600033905090565b600073ffffffffffffffffffffffffffffffffffffffff168373ffffffffffffffffffffffffffffffffffffffff161415610b47576040517f08c379a0000000000000000000000000000000000000000000000000000000008152600401610b3e90611647565b60405180910390fd5b600073ffffffffffffffffffffffffffffffffffffffff168273ffffffffffffffffffffffffffffffffffffffff161415610bb7576040517f08c379a0000000000000000000000000000000000000000000000000000000008152600401610bae906115a7565b60405180910390fd5b80600160008573ffffffffffffffffffffffffffffffffffffffff1673ffffffffffffffffffffffffffffffffffffffff16815260200190815260200160002060008473ffffffffffffffffffffffffffffffffffffffff1673ffffffffffffffffffffffffffffffffffffffff168152602001908152602001600020819055508173ffffffffffffffffffffffffffffffffffffffff168373ffffffffffffffffffffffffffffffffffffffff167f8c5be1e5ebec7d5bd14f71427d1e84f3dd0314c0f7b2291e5b200ac8c7c3b92583604051610c9591906116a7565b60405180910390a3505050565b6000610cae8484610950565b90507fffffffffffffffffffffffffffffffffffffffffffffffffffffffffffffffff8114610d285781811015610d1a576040517f08c379a0000000000000000000000000000000000000000000000000000000008152600401610d11906115c7565b60405180910390fd5b610d278484848403610ad7565b5b50505050565b600073ffffffffffffffffffffffffffffffffffffffff168373ffffffffffffffffffffffffffffffffffffffff161415610d9e576040517f08c379a0000000000000000000000000000000000000000000000000000000008152600401610d9590611627565b60405180910390fd5b600073ffffffffffffffffffffffffffffffffffffffff168273ffffffffffffffffffffffffffffffffffffffff161415610e0e576040517f08c379a0000000000000000000000000000000000000000000000000000000008152600401610e0590611547565b60405180910390fd5b610e198383836111d5565b60008060008573ffffffffffffffffffffffffffffffffffffffff1673ffffffffffffffffffffffffffffffffffffffff16815260200190815260200160002054905081811015610e9f576040517f08c379a0000000000000000000000000000000000000000000000000000000008152600401610e96906115e7565b60405180910390fd5b8181036000808673ffffffffffffffffffffffffffffffffffffffff1673ffffffffffffffffffffffffffffffffffffffff16815260200190815260200160002081905550816000808573ffffffffffffffffffffffffffffffffffffffff1673ffffffffffffffffffffffffffffffffffffffff1681526020019081526020016000206000828254610f3291906116f9565b925050819055508273ffffffffffffffffffffffffffffffffffffffff168473ffffffffffffffffffffffffffffffffffffffff167fddf252ad1be2c89b69c2b068fc378daa952ba7f163c4a11628f55a4df523b3ef84604051610f9691906116a7565b60405180910390a3610fa98484846111da565b50505050565b600073ffffffffffffffffffffffffffffffffffffffff168273ffffffffffffffffffffffffffffffffffffffff16141561101f576040517f08c379a000000000000000000000000000000000000000000000000000000000815260040161101690611687565b60405180910390fd5b61102b600083836111d5565b806002600082825461103d91906116f9565b92505081905550806000808473ffffffffffffffffffffffffffffffffffffffff1673ffffffffffffffffffffffffffffffffffffffff168152602001908152602001600020600082825461109291906116f9565b925050819055508173ffffffffffffffffffffffffffffffffffffffff16600073ffffffffffffffffffffffffffffffffffffffff167fddf252ad1be2c89b69c2b068fc378daa952ba7f163c4a11628f55a4df523b3ef836040516110f791906116a7565b60405180910390a361110b600083836111da565b5050565b6000600560009054906101000a900473ffffffffffffffffffffffffffffffffffffffff16905081600560006101000a81548173ffffffffffffffffffffffffffffffffffffffff021916908373ffffffffffffffffffffffffffffffffffffffff1602179055508173ffffffffffffffffffffffffffffffffffffffff168173ffffffffffffffffffffffffffffffffffffffff167f8be0079c531659141344cd1fd0a4f28419497f9722a3daafe3b4186f6b6457e060405160405180910390a35050565b505050565b505050565b6000813590506111ee81611c25565b92915050565b60008135905061120381611c3c565b92915050565b60006020828403121561121b57600080fd5b6000611229848285016111df565b91505092915050565b6000806040838503121561124557600080fd5b6000611253858286016111df565b9250506020611264858286016111df565b9150509250929050565b60008060006060848603121561128357600080fd5b6000611291868287016111df565b93505060206112a2868287016111df565b92505060406112b3868287016111f4565b9150509250925092565b600080604083850312156112d057600080fd5b60006112de858286016111df565b92505060206112ef858286016111f4565b9150509250929050565b611302816117da565b82525050565b611311816117ec565b82525050565b6000611322826116dd565b61132c81856116e8565b935061133c81856020860161182f565b61134581611921565b840191505092915050565b600061135d6023836116e8565b915061136882611932565b604082019050919050565b60006113806021836116e8565b915061138b82611981565b604082019050919050565b60006113a36026836116e8565b91506113ae826119d0565b604082019050919050565b60006113c66022836116e8565b91506113d182611a1f565b604082019050919050565b60006113e9601d836116e8565b91506113f482611a6e565b602082019050919050565b600061140c6026836116e8565b915061141782611a97565b604082019050919050565b600061142f6020836116e8565b915061143a82611ae6565b602082019050919050565b60006114526025836116e8565b915061145d82611b0f565b604082019050919050565b60006114756024836116e8565b915061148082611b5e565b604082019050919050565b60006114986025836116e8565b91506114a382611bad565b604082019050919050565b60006114bb601f836116e8565b91506114c682611bfc565b602082019050919050565b6114da81611818565b82525050565b6114e981611822565b82525050565b600060208201905061150460008301846112f9565b92915050565b600060208201905061151f6000830184611308565b92915050565b6000602082019050818103600083015261153f8184611317565b905092915050565b6000602082019050818103600083015261156081611350565b9050919050565b6000602082019050818103600083015261158081611373565b9050919050565b600060208201905081810360008301526115a081611396565b9050919050565b600060208201905081810360008301526115c0816113b9565b9050919050565b600060208201905081810360008301526115e0816113dc565b9050919050565b60006020820190508181036000830152611600816113ff565b9050919050565b6000602082019050818103600083015261162081611422565b9050919050565b6000602082019050818103600083015261164081611445565b9050919050565b6000602082019050818103600083015261166081611468565b9050919050565b600060208201905081810360008301526116808161148b565b9050919050565b600060208201905081810360008301526116a0816114ae565b9050919050565b60006020820190506116bc60008301846114d1565b92915050565b60006020820190506116d760008301846114e0565b92915050565b600081519050919050565b600082825260208201905092915050565b600061170482611818565b915061170f83611818565b9250827fffffffffffffffffffffffffffffffffffffffffffffffffffffffffffffffff0382111561174457611743611894565b5b828201905092915050565b600061175a82611818565b915061176583611818565b925082611775576117746118c3565b5b828204905092915050565b600061178b82611818565b915061179683611818565b9250817fffffffffffffffffffffffffffffffffffffffffffffffffffffffffffffffff04831182151516156117cf576117ce611894565b5b828202905092915050565b60006117e5826117f8565b9050919050565b60008115159050919050565b600073ffffffffffffffffffffffffffffffffffffffff82169050919050565b6000819050919050565b600060ff82169050919050565b60005b8381101561184d578082015181840152602081019050611832565b8381111561185c576000848401525b50505050565b6000600282049050600182168061187a57607f821691505b6020821081141561188e5761188d6118f2565b5b50919050565b7f4e487b7100000000000000000000000000000000000000000000000000000000600052601160045260246000fd5b7f4e487b7100000000000000000000000000000000000000000000000000000000600052601260045260246000fd5b7f4e487b7100000000000000000000000000000000000000000000000000000000600052602260045260246000fd5b6000601f19601f8301169050919050565b7f45524332303a207472616e7366657220746f20746865207a65726f206164647260008201527f6573730000000000000000000000000000000000000000000000000000000000602082015250565b7f596f752063616e6e6f74206d696e742052434e2077697468207a65726f20455460008201527f4800000000000000000000000000000000000000000000000000000000000000602082015250565b7f4f776e61626c653a206e6577206f776e657220697320746865207a65726f206160008201527f6464726573730000000000000000000000000000000000000000000000000000602082015250565b7f45524332303a20617070726f766520746f20746865207a65726f20616464726560008201527f7373000000000000000000000000000000000000000000000000000000000000602082015250565b7f45524332303a20696e73756666696369656e7420616c6c6f77616e6365000000600082015250565b7f45524332303a207472616e7366657220616d6f756e742065786365656473206260008201527f616c616e63650000000000000000000000000000000000000000000000000000602082015250565b7f4f776e61626c653a2063616c6c6572206973206e6f7420746865206f776e6572600082015250565b7f45524332303a207472616e736665722066726f6d20746865207a65726f20616460008201527f6472657373000000000000000000000000000000000000000000000000000000602082015250565b7f45524332303a20617070726f76652066726f6d20746865207a65726f2061646460008201527f7265737300000000000000000000000000000000000000000000000000000000602082015250565b7f45524332303a2064656372656173656420616c6c6f77616e63652062656c6f7760008201527f207a65726f000000000000000000000000000000000000000000000000000000602082015250565b7f45524332303a206d696e7420746f20746865207a65726f206164647265737300600082015250565b611c2e816117da565b8114611c3957600080fd5b50565b611c4581611818565b8114611c5057600080fd5b5056fea264697066735822122039beb385f558064fd35a165a39c8503561a40face916f43c3ac8d332bda9a86f64736f6c63430008040033",
					"opcodes": "PUSH1 0x80 PUSH1 0x40 MSTORE CALLVALUE DUP1 ISZERO PUSH3 0x11 JUMPI PUSH1 0x0 DUP1 REVERT JUMPDEST POP PUSH1 0x40 MLOAD DUP1 PUSH1 0x40 ADD PUSH1 0x40 MSTORE DUP1 PUSH1 0x8 DUP2 MSTORE PUSH1 0x20 ADD PUSH32 0x52696368436F696E000000000000000000000000000000000000000000000000 DUP2 MSTORE POP PUSH1 0x40 MLOAD DUP1 PUSH1 0x40 ADD PUSH1 0x40 MSTORE DUP1 PUSH1 0x3 DUP2 MSTORE PUSH1 0x20 ADD PUSH32 0x52434E0000000000000000000000000000000000000000000000000000000000 DUP2 MSTORE POP DUP2 PUSH1 0x3 SWAP1 DUP1 MLOAD SWAP1 PUSH1 0x20 ADD SWAP1 PUSH3 0x96 SWAP3 SWAP2 SWAP1 PUSH3 0x371 JUMP JUMPDEST POP DUP1 PUSH1 0x4 SWAP1 DUP1 MLOAD SWAP1 PUSH1 0x20 ADD SWAP1 PUSH3 0xAF SWAP3 SWAP2 SWAP1 PUSH3 0x371 JUMP JUMPDEST POP POP POP PUSH3 0xD2 PUSH3 0xC6 PUSH3 0x117 PUSH1 0x20 SHL PUSH1 0x20 SHR JUMP JUMPDEST PUSH3 0x11F PUSH1 0x20 SHL PUSH1 0x20 SHR JUMP JUMPDEST PUSH3 0x111 CALLER PUSH3 0xE7 PUSH3 0x1E5 PUSH1 0x20 SHL PUSH1 0x20 SHR JUMP JUMPDEST PUSH1 0xA PUSH3 0xF5 SWAP2 SWAP1 PUSH3 0x561 JUMP JUMPDEST PUSH3 0xF4240 PUSH3 0x105 SWAP2 SWAP1 PUSH3 0x69E JUMP JUMPDEST PUSH3 0x1EE PUSH1 0x20 SHL PUSH1 0x20 SHR JUMP JUMPDEST PUSH3 0x7E0 JUMP JUMPDEST PUSH1 0x0 CALLER SWAP1 POP SWAP1 JUMP JUMPDEST PUSH1 0x0 PUSH1 0x5 PUSH1 0x0 SWAP1 SLOAD SWAP1 PUSH2 0x100 EXP SWAP1 DIV PUSH20 0xFFFFFFFFFFFFFFFFFFFFFFFFFFFFFFFFFFFFFFFF AND SWAP1 POP DUP2 PUSH1 0x5 PUSH1 0x0 PUSH2 0x100 EXP DUP2 SLOAD DUP2 PUSH20 0xFFFFFFFFFFFFFFFFFFFFFFFFFFFFFFFFFFFFFFFF MUL NOT AND SWAP1 DUP4 PUSH20 0xFFFFFFFFFFFFFFFFFFFFFFFFFFFFFFFFFFFFFFFF AND MUL OR SWAP1 SSTORE POP DUP2 PUSH20 0xFFFFFFFFFFFFFFFFFFFFFFFFFFFFFFFFFFFFFFFF AND DUP2 PUSH20 0xFFFFFFFFFFFFFFFFFFFFFFFFFFFFFFFFFFFFFFFF AND PUSH32 0x8BE0079C531659141344CD1FD0A4F28419497F9722A3DAAFE3B4186F6B6457E0 PUSH1 0x40 MLOAD PUSH1 0x40 MLOAD DUP1 SWAP2 SUB SWAP1 LOG3 POP POP JUMP JUMPDEST PUSH1 0x0 PUSH1 0x12 SWAP1 POP SWAP1 JUMP JUMPDEST PUSH1 0x0 PUSH20 0xFFFFFFFFFFFFFFFFFFFFFFFFFFFFFFFFFFFFFFFF AND DUP3 PUSH20 0xFFFFFFFFFFFFFFFFFFFFFFFFFFFFFFFFFFFFFFFF AND EQ ISZERO PUSH3 0x261 JUMPI PUSH1 0x40 MLOAD PUSH32 0x8C379A000000000000000000000000000000000000000000000000000000000 DUP2 MSTORE PUSH1 0x4 ADD PUSH3 0x258 SWAP1 PUSH3 0x459 JUMP JUMPDEST PUSH1 0x40 MLOAD DUP1 SWAP2 SUB SWAP1 REVERT JUMPDEST PUSH3 0x275 PUSH1 0x0 DUP4 DUP4 PUSH3 0x367 PUSH1 0x20 SHL PUSH1 0x20 SHR JUMP JUMPDEST DUP1 PUSH1 0x2 PUSH1 0x0 DUP3 DUP3 SLOAD PUSH3 0x289 SWAP2 SWAP1 PUSH3 0x4A9 JUMP JUMPDEST SWAP3 POP POP DUP2 SWAP1 SSTORE POP DUP1 PUSH1 0x0 DUP1 DUP5 PUSH20 0xFFFFFFFFFFFFFFFFFFFFFFFFFFFFFFFFFFFFFFFF AND PUSH20 0xFFFFFFFFFFFFFFFFFFFFFFFFFFFFFFFFFFFFFFFF AND DUP2 MSTORE PUSH1 0x20 ADD SWAP1 DUP2 MSTORE PUSH1 0x20 ADD PUSH1 0x0 KECCAK256 PUSH1 0x0 DUP3 DUP3 SLOAD PUSH3 0x2E0 SWAP2 SWAP1 PUSH3 0x4A9 JUMP JUMPDEST SWAP3 POP POP DUP2 SWAP1 SSTORE POP DUP2 PUSH20 0xFFFFFFFFFFFFFFFFFFFFFFFFFFFFFFFFFFFFFFFF AND PUSH1 0x0 PUSH20 0xFFFFFFFFFFFFFFFFFFFFFFFFFFFFFFFFFFFFFFFF AND PUSH32 0xDDF252AD1BE2C89B69C2B068FC378DAA952BA7F163C4A11628F55A4DF523B3EF DUP4 PUSH1 0x40 MLOAD PUSH3 0x347 SWAP2 SWAP1 PUSH3 0x47B JUMP JUMPDEST PUSH1 0x40 MLOAD DUP1 SWAP2 SUB SWAP1 LOG3 PUSH3 0x363 PUSH1 0x0 DUP4 DUP4 PUSH3 0x36C PUSH1 0x20 SHL PUSH1 0x20 SHR JUMP JUMPDEST POP POP JUMP JUMPDEST POP POP POP JUMP JUMPDEST POP POP POP JUMP JUMPDEST DUP3 DUP1 SLOAD PUSH3 0x37F SWAP1 PUSH3 0x716 JUMP JUMPDEST SWAP1 PUSH1 0x0 MSTORE PUSH1 0x20 PUSH1 0x0 KECCAK256 SWAP1 PUSH1 0x1F ADD PUSH1 0x20 SWAP1 DIV DUP2 ADD SWAP3 DUP3 PUSH3 0x3A3 JUMPI PUSH1 0x0 DUP6 SSTORE PUSH3 0x3EF JUMP JUMPDEST DUP3 PUSH1 0x1F LT PUSH3 0x3BE JUMPI DUP1 MLOAD PUSH1 0xFF NOT AND DUP4 DUP1 ADD OR DUP6 SSTORE PUSH3 0x3EF JUMP JUMPDEST DUP3 DUP1 ADD PUSH1 0x1 ADD DUP6 SSTORE DUP3 ISZERO PUSH3 0x3EF JUMPI SWAP2 DUP3 ADD JUMPDEST DUP3 DUP2 GT ISZERO PUSH3 0x3EE JUMPI DUP3 MLOAD DUP3 SSTORE SWAP2 PUSH1 0x20 ADD SWAP2 SWAP1 PUSH1 0x1 ADD SWAP1 PUSH3 0x3D1 JUMP JUMPDEST JUMPDEST POP SWAP1 POP PUSH3 0x3FE SWAP2 SWAP1 PUSH3 0x402 JUMP JUMPDEST POP SWAP1 JUMP JUMPDEST JUMPDEST DUP1 DUP3 GT ISZERO PUSH3 0x41D JUMPI PUSH1 0x0 DUP2 PUSH1 0x0 SWAP1 SSTORE POP PUSH1 0x1 ADD PUSH3 0x403 JUMP JUMPDEST POP SWAP1 JUMP JUMPDEST PUSH1 0x0 PUSH3 0x430 PUSH1 0x1F DUP4 PUSH3 0x498 JUMP JUMPDEST SWAP2 POP PUSH3 0x43D DUP3 PUSH3 0x7B7 JUMP JUMPDEST PUSH1 0x20 DUP3 ADD SWAP1 POP SWAP2 SWAP1 POP JUMP JUMPDEST PUSH3 0x453 DUP2 PUSH3 0x6FF JUMP JUMPDEST DUP3 MSTORE POP POP JUMP JUMPDEST PUSH1 0x0 PUSH1 0x20 DUP3 ADD SWAP1 POP DUP2 DUP2 SUB PUSH1 0x0 DUP4 ADD MSTORE PUSH3 0x474 DUP2 PUSH3 0x421 JUMP JUMPDEST SWAP1 POP SWAP2 SWAP1 POP JUMP JUMPDEST PUSH1 0x0 PUSH1 0x20 DUP3 ADD SWAP1 POP PUSH3 0x492 PUSH1 0x0 DUP4 ADD DUP5 PUSH3 0x448 JUMP JUMPDEST SWAP3 SWAP2 POP POP JUMP JUMPDEST PUSH1 0x0 DUP3 DUP3 MSTORE PUSH1 0x20 DUP3 ADD SWAP1 POP SWAP3 SWAP2 POP POP JUMP JUMPDEST PUSH1 0x0 PUSH3 0x4B6 DUP3 PUSH3 0x6FF JUMP JUMPDEST SWAP2 POP PUSH3 0x4C3 DUP4 PUSH3 0x6FF JUMP JUMPDEST SWAP3 POP DUP3 PUSH32 0xFFFFFFFFFFFFFFFFFFFFFFFFFFFFFFFFFFFFFFFFFFFFFFFFFFFFFFFFFFFFFFFF SUB DUP3 GT ISZERO PUSH3 0x4FB JUMPI PUSH3 0x4FA PUSH3 0x74C JUMP JUMPDEST JUMPDEST DUP3 DUP3 ADD SWAP1 POP SWAP3 SWAP2 POP POP JUMP JUMPDEST PUSH1 0x0 DUP1 DUP3 SWAP2 POP DUP4 SWAP1 POP JUMPDEST PUSH1 0x1 DUP6 GT ISZERO PUSH3 0x558 JUMPI DUP1 DUP7 DIV DUP2 GT ISZERO PUSH3 0x530 JUMPI PUSH3 0x52F PUSH3 0x74C JUMP JUMPDEST JUMPDEST PUSH1 0x1 DUP6 AND ISZERO PUSH3 0x540 JUMPI DUP1 DUP3 MUL SWAP2 POP JUMPDEST DUP1 DUP2 MUL SWAP1 POP PUSH3 0x550 DUP6 PUSH3 0x7AA JUMP JUMPDEST SWAP5 POP PUSH3 0x510 JUMP JUMPDEST SWAP5 POP SWAP5 SWAP3 POP POP POP JUMP JUMPDEST PUSH1 0x0 PUSH3 0x56E DUP3 PUSH3 0x6FF JUMP JUMPDEST SWAP2 POP PUSH3 0x57B DUP4 PUSH3 0x709 JUMP JUMPDEST SWAP3 POP PUSH3 0x5AA PUSH32 0xFFFFFFFFFFFFFFFFFFFFFFFFFFFFFFFFFFFFFFFFFFFFFFFFFFFFFFFFFFFFFFFF DUP5 DUP5 PUSH3 0x5B2 JUMP JUMPDEST SWAP1 POP SWAP3 SWAP2 POP POP JUMP JUMPDEST PUSH1 0x0 DUP3 PUSH3 0x5C4 JUMPI PUSH1 0x1 SWAP1 POP PUSH3 0x697 JUMP JUMPDEST DUP2 PUSH3 0x5D4 JUMPI PUSH1 0x0 SWAP1 POP PUSH3 0x697 JUMP JUMPDEST DUP2 PUSH1 0x1 DUP2 EQ PUSH3 0x5ED JUMPI PUSH1 0x2 DUP2 EQ PUSH3 0x5F8 JUMPI PUSH3 0x62E JUMP JUMPDEST PUSH1 0x1 SWAP2 POP POP PUSH3 0x697 JUMP JUMPDEST PUSH1 0xFF DUP5 GT ISZERO PUSH3 0x60D JUMPI PUSH3 0x60C PUSH3 0x74C JUMP JUMPDEST JUMPDEST DUP4 PUSH1 0x2 EXP SWAP2 POP DUP5 DUP3 GT ISZERO PUSH3 0x627 JUMPI PUSH3 0x626 PUSH3 0x74C JUMP JUMPDEST JUMPDEST POP PUSH3 0x697 JUMP JUMPDEST POP PUSH1 0x20 DUP4 LT PUSH2 0x133 DUP4 LT AND PUSH1 0x4E DUP5 LT PUSH1 0xB DUP5 LT AND OR ISZERO PUSH3 0x668 JUMPI DUP3 DUP3 EXP SWAP1 POP DUP4 DUP2 GT ISZERO PUSH3 0x662 JUMPI PUSH3 0x661 PUSH3 0x74C JUMP JUMPDEST JUMPDEST PUSH3 0x697 JUMP JUMPDEST PUSH3 0x677 DUP5 DUP5 DUP5 PUSH1 0x1 PUSH3 0x506 JUMP JUMPDEST SWAP3 POP SWAP1 POP DUP2 DUP5 DIV DUP2 GT ISZERO PUSH3 0x691 JUMPI PUSH3 0x690 PUSH3 0x74C JUMP JUMPDEST JUMPDEST DUP2 DUP2 MUL SWAP1 POP JUMPDEST SWAP4 SWAP3 POP POP POP JUMP JUMPDEST PUSH1 0x0 PUSH3 0x6AB DUP3 PUSH3 0x6FF JUMP JUMPDEST SWAP2 POP PUSH3 0x6B8 DUP4 PUSH3 0x6FF JUMP JUMPDEST SWAP3 POP DUP2 PUSH32 0xFFFFFFFFFFFFFFFFFFFFFFFFFFFFFFFFFFFFFFFFFFFFFFFFFFFFFFFFFFFFFFFF DIV DUP4 GT DUP3 ISZERO ISZERO AND ISZERO PUSH3 0x6F4 JUMPI PUSH3 0x6F3 PUSH3 0x74C JUMP JUMPDEST JUMPDEST DUP3 DUP3 MUL SWAP1 POP SWAP3 SWAP2 POP POP JUMP JUMPDEST PUSH1 0x0 DUP2 SWAP1 POP SWAP2 SWAP1 POP JUMP JUMPDEST PUSH1 0x0 PUSH1 0xFF DUP3 AND SWAP1 POP SWAP2 SWAP1 POP JUMP JUMPDEST PUSH1 0x0 PUSH1 0x2 DUP3 DIV SWAP1 POP PUSH1 0x1 DUP3 AND DUP1 PUSH3 0x72F JUMPI PUSH1 0x7F DUP3 AND SWAP2 POP JUMPDEST PUSH1 0x20 DUP3 LT DUP2 EQ ISZERO PUSH3 0x746 JUMPI PUSH3 0x745 PUSH3 0x77B JUMP JUMPDEST JUMPDEST POP SWAP2 SWAP1 POP JUMP JUMPDEST PUSH32 0x4E487B7100000000000000000000000000000000000000000000000000000000 PUSH1 0x0 MSTORE PUSH1 0x11 PUSH1 0x4 MSTORE PUSH1 0x24 PUSH1 0x0 REVERT JUMPDEST PUSH32 0x4E487B7100000000000000000000000000000000000000000000000000000000 PUSH1 0x0 MSTORE PUSH1 0x22 PUSH1 0x4 MSTORE PUSH1 0x24 PUSH1 0x0 REVERT JUMPDEST PUSH1 0x0 DUP2 PUSH1 0x1 SHR SWAP1 POP SWAP2 SWAP1 POP JUMP JUMPDEST PUSH32 0x45524332303A206D696E7420746F20746865207A65726F206164647265737300 PUSH1 0x0 DUP3 ADD MSTORE POP JUMP JUMPDEST PUSH2 0x1C89 DUP1 PUSH3 0x7F0 PUSH1 0x0 CODECOPY PUSH1 0x0 RETURN INVALID PUSH1 0x80 PUSH1 0x40 MSTORE PUSH1 0x4 CALLDATASIZE LT PUSH2 0xF3 JUMPI PUSH1 0x0 CALLDATALOAD PUSH1 0xE0 SHR DUP1 PUSH4 0x715018A6 GT PUSH2 0x8A JUMPI DUP1 PUSH4 0xA457C2D7 GT PUSH2 0x59 JUMPI DUP1 PUSH4 0xA457C2D7 EQ PUSH2 0x333 JUMPI DUP1 PUSH4 0xA9059CBB EQ PUSH2 0x370 JUMPI DUP1 PUSH4 0xDD62ED3E EQ PUSH2 0x3AD JUMPI DUP1 PUSH4 0xF2FDE38B EQ PUSH2 0x3EA JUMPI PUSH2 0xF3 JUMP JUMPDEST DUP1 PUSH4 0x715018A6 EQ PUSH2 0x296 JUMPI DUP1 PUSH4 0x7E72FB52 EQ PUSH2 0x2AD JUMPI DUP1 PUSH4 0x8DA5CB5B EQ PUSH2 0x2DD JUMPI DUP1 PUSH4 0x95D89B41 EQ PUSH2 0x308 JUMPI PUSH2 0xF3 JUMP JUMPDEST DUP1 PUSH4 0x313CE567 GT PUSH2 0xC6 JUMPI DUP1 PUSH4 0x313CE567 EQ PUSH2 0x1C8 JUMPI DUP1 PUSH4 0x39509351 EQ PUSH2 0x1F3 JUMPI DUP1 PUSH4 0x40C10F19 EQ PUSH2 0x230 JUMPI DUP1 PUSH4 0x70A08231 EQ PUSH2 0x259 JUMPI PUSH2 0xF3 JUMP JUMPDEST DUP1 PUSH4 0x6FDDE03 EQ PUSH2 0xF8 JUMPI DUP1 PUSH4 0x95EA7B3 EQ PUSH2 0x123 JUMPI DUP1 PUSH4 0x18160DDD EQ PUSH2 0x160 JUMPI DUP1 PUSH4 0x23B872DD EQ PUSH2 0x18B JUMPI JUMPDEST PUSH1 0x0 DUP1 REVERT JUMPDEST CALLVALUE DUP1 ISZERO PUSH2 0x104 JUMPI PUSH1 0x0 DUP1 REVERT JUMPDEST POP PUSH2 0x10D PUSH2 0x413 JUMP JUMPDEST PUSH1 0x40 MLOAD PUSH2 0x11A SWAP2 SWAP1 PUSH2 0x1525 JUMP JUMPDEST PUSH1 0x40 MLOAD DUP1 SWAP2 SUB SWAP1 RETURN JUMPDEST CALLVALUE DUP1 ISZERO PUSH2 0x12F JUMPI PUSH1 0x0 DUP1 REVERT JUMPDEST POP PUSH2 0x14A PUSH1 0x4 DUP1 CALLDATASIZE SUB DUP2 ADD SWAP1 PUSH2 0x145 SWAP2 SWAP1 PUSH2 0x12BD JUMP JUMPDEST PUSH2 0x4A5 JUMP JUMPDEST PUSH1 0x40 MLOAD PUSH2 0x157 SWAP2 SWAP1 PUSH2 0x150A JUMP JUMPDEST PUSH1 0x40 MLOAD DUP1 SWAP2 SUB SWAP1 RETURN JUMPDEST CALLVALUE DUP1 ISZERO PUSH2 0x16C JUMPI PUSH1 0x0 DUP1 REVERT JUMPDEST POP PUSH2 0x175 PUSH2 0x4C8 JUMP JUMPDEST PUSH1 0x40 MLOAD PUSH2 0x182 SWAP2 SWAP1 PUSH2 0x16A7 JUMP JUMPDEST PUSH1 0x40 MLOAD DUP1 SWAP2 SUB SWAP1 RETURN JUMPDEST CALLVALUE DUP1 ISZERO PUSH2 0x197 JUMPI PUSH1 0x0 DUP1 REVERT JUMPDEST POP PUSH2 0x1B2 PUSH1 0x4 DUP1 CALLDATASIZE SUB DUP2 ADD SWAP1 PUSH2 0x1AD SWAP2 SWAP1 PUSH2 0x126E JUMP JUMPDEST PUSH2 0x4D2 JUMP JUMPDEST PUSH1 0x40 MLOAD PUSH2 0x1BF SWAP2 SWAP1 PUSH2 0x150A JUMP JUMPDEST PUSH1 0x40 MLOAD DUP1 SWAP2 SUB SWAP1 RETURN JUMPDEST CALLVALUE DUP1 ISZERO PUSH2 0x1D4 JUMPI PUSH1 0x0 DUP1 REVERT JUMPDEST POP PUSH2 0x1DD PUSH2 0x501 JUMP JUMPDEST PUSH1 0x40 MLOAD PUSH2 0x1EA SWAP2 SWAP1 PUSH2 0x16C2 JUMP JUMPDEST PUSH1 0x40 MLOAD DUP1 SWAP2 SUB SWAP1 RETURN JUMPDEST CALLVALUE DUP1 ISZERO PUSH2 0x1FF JUMPI PUSH1 0x0 DUP1 REVERT JUMPDEST POP PUSH2 0x21A PUSH1 0x4 DUP1 CALLDATASIZE SUB DUP2 ADD SWAP1 PUSH2 0x215 SWAP2 SWAP1 PUSH2 0x12BD JUMP JUMPDEST PUSH2 0x50A JUMP JUMPDEST PUSH1 0x40 MLOAD PUSH2 0x227 SWAP2 SWAP1 PUSH2 0x150A JUMP JUMPDEST PUSH1 0x40 MLOAD DUP1 SWAP2 SUB SWAP1 RETURN JUMPDEST CALLVALUE DUP1 ISZERO PUSH2 0x23C JUMPI PUSH1 0x0 DUP1 REVERT JUMPDEST POP PUSH2 0x257 PUSH1 0x4 DUP1 CALLDATASIZE SUB DUP2 ADD SWAP1 PUSH2 0x252 SWAP2 SWAP1 PUSH2 0x12BD JUMP JUMPDEST PUSH2 0x5B4 JUMP JUMPDEST STOP JUMPDEST CALLVALUE DUP1 ISZERO PUSH2 0x265 JUMPI PUSH1 0x0 DUP1 REVERT JUMPDEST POP PUSH2 0x280 PUSH1 0x4 DUP1 CALLDATASIZE SUB DUP2 ADD SWAP1 PUSH2 0x27B SWAP2 SWAP1 PUSH2 0x1209 JUMP JUMPDEST PUSH2 0x63E JUMP JUMPDEST PUSH1 0x40 MLOAD PUSH2 0x28D SWAP2 SWAP1 PUSH2 0x16A7 JUMP JUMPDEST PUSH1 0x40 MLOAD DUP1 SWAP2 SUB SWAP1 RETURN JUMPDEST CALLVALUE DUP1 ISZERO PUSH2 0x2A2 JUMPI PUSH1 0x0 DUP1 REVERT JUMPDEST POP PUSH2 0x2AB PUSH2 0x686 JUMP JUMPDEST STOP JUMPDEST PUSH2 0x2C7 PUSH1 0x4 DUP1 CALLDATASIZE SUB DUP2 ADD SWAP1 PUSH2 0x2C2 SWAP2 SWAP1 PUSH2 0x1209 JUMP JUMPDEST PUSH2 0x70E JUMP JUMPDEST PUSH1 0x40 MLOAD PUSH2 0x2D4 SWAP2 SWAP1 PUSH2 0x16A7 JUMP JUMPDEST PUSH1 0x40 MLOAD DUP1 SWAP2 SUB SWAP1 RETURN JUMPDEST CALLVALUE DUP1 ISZERO PUSH2 0x2E9 JUMPI PUSH1 0x0 DUP1 REVERT JUMPDEST POP PUSH2 0x2F2 PUSH2 0x787 JUMP JUMPDEST PUSH1 0x40 MLOAD PUSH2 0x2FF SWAP2 SWAP1 PUSH2 0x14EF JUMP JUMPDEST PUSH1 0x40 MLOAD DUP1 SWAP2 SUB SWAP1 RETURN JUMPDEST CALLVALUE DUP1 ISZERO PUSH2 0x314 JUMPI PUSH1 0x0 DUP1 REVERT JUMPDEST POP PUSH2 0x31D PUSH2 0x7B1 JUMP JUMPDEST PUSH1 0x40 MLOAD PUSH2 0x32A SWAP2 SWAP1 PUSH2 0x1525 JUMP JUMPDEST PUSH1 0x40 MLOAD DUP1 SWAP2 SUB SWAP1 RETURN JUMPDEST CALLVALUE DUP1 ISZERO PUSH2 0x33F JUMPI PUSH1 0x0 DUP1 REVERT JUMPDEST POP PUSH2 0x35A PUSH1 0x4 DUP1 CALLDATASIZE SUB DUP2 ADD SWAP1 PUSH2 0x355 SWAP2 SWAP1 PUSH2 0x12BD JUMP JUMPDEST PUSH2 0x843 JUMP JUMPDEST PUSH1 0x40 MLOAD PUSH2 0x367 SWAP2 SWAP1 PUSH2 0x150A JUMP JUMPDEST PUSH1 0x40 MLOAD DUP1 SWAP2 SUB SWAP1 RETURN JUMPDEST CALLVALUE DUP1 ISZERO PUSH2 0x37C JUMPI PUSH1 0x0 DUP1 REVERT JUMPDEST POP PUSH2 0x397 PUSH1 0x4 DUP1 CALLDATASIZE SUB DUP2 ADD SWAP1 PUSH2 0x392 SWAP2 SWAP1 PUSH2 0x12BD JUMP JUMPDEST PUSH2 0x92D JUMP JUMPDEST PUSH1 0x40 MLOAD PUSH2 0x3A4 SWAP2 SWAP1 PUSH2 0x150A JUMP JUMPDEST PUSH1 0x40 MLOAD DUP1 SWAP2 SUB SWAP1 RETURN JUMPDEST CALLVALUE DUP1 ISZERO PUSH2 0x3B9 JUMPI PUSH1 0x0 DUP1 REVERT JUMPDEST POP PUSH2 0x3D4 PUSH1 0x4 DUP1 CALLDATASIZE SUB DUP2 ADD SWAP1 PUSH2 0x3CF SWAP2 SWAP1 PUSH2 0x1232 JUMP JUMPDEST PUSH2 0x950 JUMP JUMPDEST PUSH1 0x40 MLOAD PUSH2 0x3E1 SWAP2 SWAP1 PUSH2 0x16A7 JUMP JUMPDEST PUSH1 0x40 MLOAD DUP1 SWAP2 SUB SWAP1 RETURN JUMPDEST CALLVALUE DUP1 ISZERO PUSH2 0x3F6 JUMPI PUSH1 0x0 DUP1 REVERT JUMPDEST POP PUSH2 0x411 PUSH1 0x4 DUP1 CALLDATASIZE SUB DUP2 ADD SWAP1 PUSH2 0x40C SWAP2 SWAP1 PUSH2 0x1209 JUMP JUMPDEST PUSH2 0x9D7 JUMP JUMPDEST STOP JUMPDEST PUSH1 0x60 PUSH1 0x3 DUP1 SLOAD PUSH2 0x422 SWAP1 PUSH2 0x1862 JUMP JUMPDEST DUP1 PUSH1 0x1F ADD PUSH1 0x20 DUP1 SWAP2 DIV MUL PUSH1 0x20 ADD PUSH1 0x40 MLOAD SWAP1 DUP2 ADD PUSH1 0x40 MSTORE DUP1 SWAP3 SWAP2 SWAP1 DUP2 DUP2 MSTORE PUSH1 0x20 ADD DUP3 DUP1 SLOAD PUSH2 0x44E SWAP1 PUSH2 0x1862 JUMP JUMPDEST DUP1 ISZERO PUSH2 0x49B JUMPI DUP1 PUSH1 0x1F LT PUSH2 0x470 JUMPI PUSH2 0x100 DUP1 DUP4 SLOAD DIV MUL DUP4 MSTORE SWAP2 PUSH1 0x20 ADD SWAP2 PUSH2 0x49B JUMP JUMPDEST DUP3 ADD SWAP2 SWAP1 PUSH1 0x0 MSTORE PUSH1 0x20 PUSH1 0x0 KECCAK256 SWAP1 JUMPDEST DUP2 SLOAD DUP2 MSTORE SWAP1 PUSH1 0x1 ADD SWAP1 PUSH1 0x20 ADD DUP1 DUP4 GT PUSH2 0x47E JUMPI DUP3 SWAP1 SUB PUSH1 0x1F AND DUP3 ADD SWAP2 JUMPDEST POP POP POP POP POP SWAP1 POP SWAP1 JUMP JUMPDEST PUSH1 0x0 DUP1 PUSH2 0x4B0 PUSH2 0xACF JUMP JUMPDEST SWAP1 POP PUSH2 0x4BD DUP2 DUP6 DUP6 PUSH2 0xAD7 JUMP JUMPDEST PUSH1 0x1 SWAP2 POP POP SWAP3 SWAP2 POP POP JUMP JUMPDEST PUSH1 0x0 PUSH1 0x2 SLOAD SWAP1 POP SWAP1 JUMP JUMPDEST PUSH1 0x0 DUP1 PUSH2 0x4DD PUSH2 0xACF JUMP JUMPDEST SWAP1 POP PUSH2 0x4EA DUP6 DUP3 DUP6 PUSH2 0xCA2 JUMP JUMPDEST PUSH2 0x4F5 DUP6 DUP6 DUP6 PUSH2 0xD2E JUMP JUMPDEST PUSH1 0x1 SWAP2 POP POP SWAP4 SWAP3 POP POP POP JUMP JUMPDEST PUSH1 0x0 PUSH1 0x12 SWAP1 POP SWAP1 JUMP JUMPDEST PUSH1 0x0 DUP1 PUSH2 0x515 PUSH2 0xACF JUMP JUMPDEST SWAP1 POP PUSH2 0x5A9 DUP2 DUP6 DUP6 PUSH1 0x1 PUSH1 0x0 DUP7 PUSH20 0xFFFFFFFFFFFFFFFFFFFFFFFFFFFFFFFFFFFFFFFF AND PUSH20 0xFFFFFFFFFFFFFFFFFFFFFFFFFFFFFFFFFFFFFFFF AND DUP2 MSTORE PUSH1 0x20 ADD SWAP1 DUP2 MSTORE PUSH1 0x20 ADD PUSH1 0x0 KECCAK256 PUSH1 0x0 DUP10 PUSH20 0xFFFFFFFFFFFFFFFFFFFFFFFFFFFFFFFFFFFFFFFF AND PUSH20 0xFFFFFFFFFFFFFFFFFFFFFFFFFFFFFFFFFFFFFFFF AND DUP2 MSTORE PUSH1 0x20 ADD SWAP1 DUP2 MSTORE PUSH1 0x20 ADD PUSH1 0x0 KECCAK256 SLOAD PUSH2 0x5A4 SWAP2 SWAP1 PUSH2 0x16F9 JUMP JUMPDEST PUSH2 0xAD7 JUMP JUMPDEST PUSH1 0x1 SWAP2 POP POP SWAP3 SWAP2 POP POP JUMP JUMPDEST PUSH2 0x5BC PUSH2 0xACF JUMP JUMPDEST PUSH20 0xFFFFFFFFFFFFFFFFFFFFFFFFFFFFFFFFFFFFFFFF AND PUSH2 0x5DA PUSH2 0x787 JUMP JUMPDEST PUSH20 0xFFFFFFFFFFFFFFFFFFFFFFFFFFFFFFFFFFFFFFFF AND EQ PUSH2 0x630 JUMPI PUSH1 0x40 MLOAD PUSH32 0x8C379A000000000000000000000000000000000000000000000000000000000 DUP2 MSTORE PUSH1 0x4 ADD PUSH2 0x627 SWAP1 PUSH2 0x1607 JUMP JUMPDEST PUSH1 0x40 MLOAD DUP1 SWAP2 SUB SWAP1 REVERT JUMPDEST PUSH2 0x63A DUP3 DUP3 PUSH2 0xFAF JUMP JUMPDEST POP POP JUMP JUMPDEST PUSH1 0x0 DUP1 PUSH1 0x0 DUP4 PUSH20 0xFFFFFFFFFFFFFFFFFFFFFFFFFFFFFFFFFFFFFFFF AND PUSH20 0xFFFFFFFFFFFFFFFFFFFFFFFFFFFFFFFFFFFFFFFF AND DUP2 MSTORE PUSH1 0x20 ADD SWAP1 DUP2 MSTORE PUSH1 0x20 ADD PUSH1 0x0 KECCAK256 SLOAD SWAP1 POP SWAP2 SWAP1 POP JUMP JUMPDEST PUSH2 0x68E PUSH2 0xACF JUMP JUMPDEST PUSH20 0xFFFFFFFFFFFFFFFFFFFFFFFFFFFFFFFFFFFFFFFF AND PUSH2 0x6AC PUSH2 0x787 JUMP JUMPDEST PUSH20 0xFFFFFFFFFFFFFFFFFFFFFFFFFFFFFFFFFFFFFFFF AND EQ PUSH2 0x702 JUMPI PUSH1 0x40 MLOAD PUSH32 0x8C379A000000000000000000000000000000000000000000000000000000000 DUP2 MSTORE PUSH1 0x4 ADD PUSH2 0x6F9 SWAP1 PUSH2 0x1607 JUMP JUMPDEST PUSH1 0x40 MLOAD DUP1 SWAP2 SUB SWAP1 REVERT JUMPDEST PUSH2 0x70C PUSH1 0x0 PUSH2 0x110F JUMP JUMPDEST JUMP JUMPDEST PUSH1 0x0 DUP1 CALLVALUE GT PUSH2 0x752 JUMPI PUSH1 0x40 MLOAD PUSH32 0x8C379A000000000000000000000000000000000000000000000000000000000 DUP2 MSTORE PUSH1 0x4 ADD PUSH2 0x749 SWAP1 PUSH2 0x1567 JUMP JUMPDEST PUSH1 0x40 MLOAD DUP1 SWAP2 SUB SWAP1 REVERT JUMPDEST PUSH1 0x0 PUSH8 0xDE0B6B3A7640000 PUSH2 0x3E8 CALLVALUE PUSH2 0x76B SWAP2 SWAP1 PUSH2 0x1780 JUMP JUMPDEST PUSH2 0x775 SWAP2 SWAP1 PUSH2 0x174F JUMP JUMPDEST SWAP1 POP PUSH2 0x781 DUP4 DUP3 PUSH2 0xFAF JUMP JUMPDEST POP SWAP2 SWAP1 POP JUMP JUMPDEST PUSH1 0x0 PUSH1 0x5 PUSH1 0x0 SWAP1 SLOAD SWAP1 PUSH2 0x100 EXP SWAP1 DIV PUSH20 0xFFFFFFFFFFFFFFFFFFFFFFFFFFFFFFFFFFFFFFFF AND SWAP1 POP SWAP1 JUMP JUMPDEST PUSH1 0x60 PUSH1 0x4 DUP1 SLOAD PUSH2 0x7C0 SWAP1 PUSH2 0x1862 JUMP JUMPDEST DUP1 PUSH1 0x1F ADD PUSH1 0x20 DUP1 SWAP2 DIV MUL PUSH1 0x20 ADD PUSH1 0x40 MLOAD SWAP1 DUP2 ADD PUSH1 0x40 MSTORE DUP1 SWAP3 SWAP2 SWAP1 DUP2 DUP2 MSTORE PUSH1 0x20 ADD DUP3 DUP1 SLOAD PUSH2 0x7EC SWAP1 PUSH2 0x1862 JUMP JUMPDEST DUP1 ISZERO PUSH2 0x839 JUMPI DUP1 PUSH1 0x1F LT PUSH2 0x80E JUMPI PUSH2 0x100 DUP1 DUP4 SLOAD DIV MUL DUP4 MSTORE SWAP2 PUSH1 0x20 ADD SWAP2 PUSH2 0x839 JUMP JUMPDEST DUP3 ADD SWAP2 SWAP1 PUSH1 0x0 MSTORE PUSH1 0x20 PUSH1 0x0 KECCAK256 SWAP1 JUMPDEST DUP2 SLOAD DUP2 MSTORE SWAP1 PUSH1 0x1 ADD SWAP1 PUSH1 0x20 ADD DUP1 DUP4 GT PUSH2 0x81C JUMPI DUP3 SWAP1 SUB PUSH1 0x1F AND DUP3 ADD SWAP2 JUMPDEST POP POP POP POP POP SWAP1 POP SWAP1 JUMP JUMPDEST PUSH1 0x0 DUP1 PUSH2 0x84E PUSH2 0xACF JUMP JUMPDEST SWAP1 POP PUSH1 0x0 PUSH1 0x1 PUSH1 0x0 DUP4 PUSH20 0xFFFFFFFFFFFFFFFFFFFFFFFFFFFFFFFFFFFFFFFF AND PUSH20 0xFFFFFFFFFFFFFFFFFFFFFFFFFFFFFFFFFFFFFFFF AND DUP2 MSTORE PUSH1 0x20 ADD SWAP1 DUP2 MSTORE PUSH1 0x20 ADD PUSH1 0x0 KECCAK256 PUSH1 0x0 DUP7 PUSH20 0xFFFFFFFFFFFFFFFFFFFFFFFFFFFFFFFFFFFFFFFF AND PUSH20 0xFFFFFFFFFFFFFFFFFFFFFFFFFFFFFFFFFFFFFFFF AND DUP2 MSTORE PUSH1 0x20 ADD SWAP1 DUP2 MSTORE PUSH1 0x20 ADD PUSH1 0x0 KECCAK256 SLOAD SWAP1 POP DUP4 DUP2 LT ISZERO PUSH2 0x914 JUMPI PUSH1 0x40 MLOAD PUSH32 0x8C379A000000000000000000000000000000000000000000000000000000000 DUP2 MSTORE PUSH1 0x4 ADD PUSH2 0x90B SWAP1 PUSH2 0x1667 JUMP JUMPDEST PUSH1 0x40 MLOAD DUP1 SWAP2 SUB SWAP1 REVERT JUMPDEST PUSH2 0x921 DUP3 DUP7 DUP7 DUP5 SUB PUSH2 0xAD7 JUMP JUMPDEST PUSH1 0x1 SWAP3 POP POP POP SWAP3 SWAP2 POP POP JUMP JUMPDEST PUSH1 0x0 DUP1 PUSH2 0x938 PUSH2 0xACF JUMP JUMPDEST SWAP1 POP PUSH2 0x945 DUP2 DUP6 DUP6 PUSH2 0xD2E JUMP JUMPDEST PUSH1 0x1 SWAP2 POP POP SWAP3 SWAP2 POP POP JUMP JUMPDEST PUSH1 0x0 PUSH1 0x1 PUSH1 0x0 DUP5 PUSH20 0xFFFFFFFFFFFFFFFFFFFFFFFFFFFFFFFFFFFFFFFF AND PUSH20 0xFFFFFFFFFFFFFFFFFFFFFFFFFFFFFFFFFFFFFFFF AND DUP2 MSTORE PUSH1 0x20 ADD SWAP1 DUP2 MSTORE PUSH1 0x20 ADD PUSH1 0x0 KECCAK256 PUSH1 0x0 DUP4 PUSH20 0xFFFFFFFFFFFFFFFFFFFFFFFFFFFFFFFFFFFFFFFF AND PUSH20 0xFFFFFFFFFFFFFFFFFFFFFFFFFFFFFFFFFFFFFFFF AND DUP2 MSTORE PUSH1 0x20 ADD SWAP1 DUP2 MSTORE PUSH1 0x20 ADD PUSH1 0x0 KECCAK256 SLOAD SWAP1 POP SWAP3 SWAP2 POP POP JUMP JUMPDEST PUSH2 0x9DF PUSH2 0xACF JUMP JUMPDEST PUSH20 0xFFFFFFFFFFFFFFFFFFFFFFFFFFFFFFFFFFFFFFFF AND PUSH2 0x9FD PUSH2 0x787 JUMP JUMPDEST PUSH20 0xFFFFFFFFFFFFFFFFFFFFFFFFFFFFFFFFFFFFFFFF AND EQ PUSH2 0xA53 JUMPI PUSH1 0x40 MLOAD PUSH32 0x8C379A000000000000000000000000000000000000000000000000000000000 DUP2 MSTORE PUSH1 0x4 ADD PUSH2 0xA4A SWAP1 PUSH2 0x1607 JUMP JUMPDEST PUSH1 0x40 MLOAD DUP1 SWAP2 SUB SWAP1 REVERT JUMPDEST PUSH1 0x0 PUSH20 0xFFFFFFFFFFFFFFFFFFFFFFFFFFFFFFFFFFFFFFFF AND DUP2 PUSH20 0xFFFFFFFFFFFFFFFFFFFFFFFFFFFFFFFFFFFFFFFF AND EQ ISZERO PUSH2 0xAC3 JUMPI PUSH1 0x40 MLOAD PUSH32 0x8C379A000000000000000000000000000000000000000000000000000000000 DUP2 MSTORE PUSH1 0x4 ADD PUSH2 0xABA SWAP1 PUSH2 0x1587 JUMP JUMPDEST PUSH1 0x40 MLOAD DUP1 SWAP2 SUB SWAP1 REVERT JUMPDEST PUSH2 0xACC DUP2 PUSH2 0x110F JUMP JUMPDEST POP JUMP JUMPDEST PUSH1 0x0 CALLER SWAP1 POP SWAP1 JUMP JUMPDEST PUSH1 0x0 PUSH20 0xFFFFFFFFFFFFFFFFFFFFFFFFFFFFFFFFFFFFFFFF AND DUP4 PUSH20 0xFFFFFFFFFFFFFFFFFFFFFFFFFFFFFFFFFFFFFFFF AND EQ ISZERO PUSH2 0xB47 JUMPI PUSH1 0x40 MLOAD PUSH32 0x8C379A000000000000000000000000000000000000000000000000000000000 DUP2 MSTORE PUSH1 0x4 ADD PUSH2 0xB3E SWAP1 PUSH2 0x1647 JUMP JUMPDEST PUSH1 0x40 MLOAD DUP1 SWAP2 SUB SWAP1 REVERT JUMPDEST PUSH1 0x0 PUSH20 0xFFFFFFFFFFFFFFFFFFFFFFFFFFFFFFFFFFFFFFFF AND DUP3 PUSH20 0xFFFFFFFFFFFFFFFFFFFFFFFFFFFFFFFFFFFFFFFF AND EQ ISZERO PUSH2 0xBB7 JUMPI PUSH1 0x40 MLOAD PUSH32 0x8C379A000000000000000000000000000000000000000000000000000000000 DUP2 MSTORE PUSH1 0x4 ADD PUSH2 0xBAE SWAP1 PUSH2 0x15A7 JUMP JUMPDEST PUSH1 0x40 MLOAD DUP1 SWAP2 SUB SWAP1 REVERT JUMPDEST DUP1 PUSH1 0x1 PUSH1 0x0 DUP6 PUSH20 0xFFFFFFFFFFFFFFFFFFFFFFFFFFFFFFFFFFFFFFFF AND PUSH20 0xFFFFFFFFFFFFFFFFFFFFFFFFFFFFFFFFFFFFFFFF AND DUP2 MSTORE PUSH1 0x20 ADD SWAP1 DUP2 MSTORE PUSH1 0x20 ADD PUSH1 0x0 KECCAK256 PUSH1 0x0 DUP5 PUSH20 0xFFFFFFFFFFFFFFFFFFFFFFFFFFFFFFFFFFFFFFFF AND PUSH20 0xFFFFFFFFFFFFFFFFFFFFFFFFFFFFFFFFFFFFFFFF AND DUP2 MSTORE PUSH1 0x20 ADD SWAP1 DUP2 MSTORE PUSH1 0x20 ADD PUSH1 0x0 KECCAK256 DUP2 SWAP1 SSTORE POP DUP2 PUSH20 0xFFFFFFFFFFFFFFFFFFFFFFFFFFFFFFFFFFFFFFFF AND DUP4 PUSH20 0xFFFFFFFFFFFFFFFFFFFFFFFFFFFFFFFFFFFFFFFF AND PUSH32 0x8C5BE1E5EBEC7D5BD14F71427D1E84F3DD0314C0F7B2291E5B200AC8C7C3B925 DUP4 PUSH1 0x40 MLOAD PUSH2 0xC95 SWAP2 SWAP1 PUSH2 0x16A7 JUMP JUMPDEST PUSH1 0x40 MLOAD DUP1 SWAP2 SUB SWAP1 LOG3 POP POP POP JUMP JUMPDEST PUSH1 0x0 PUSH2 0xCAE DUP5 DUP5 PUSH2 0x950 JUMP JUMPDEST SWAP1 POP PUSH32 0xFFFFFFFFFFFFFFFFFFFFFFFFFFFFFFFFFFFFFFFFFFFFFFFFFFFFFFFFFFFFFFFF DUP2 EQ PUSH2 0xD28 JUMPI DUP2 DUP2 LT ISZERO PUSH2 0xD1A JUMPI PUSH1 0x40 MLOAD PUSH32 0x8C379A000000000000000000000000000000000000000000000000000000000 DUP2 MSTORE PUSH1 0x4 ADD PUSH2 0xD11 SWAP1 PUSH2 0x15C7 JUMP JUMPDEST PUSH1 0x40 MLOAD DUP1 SWAP2 SUB SWAP1 REVERT JUMPDEST PUSH2 0xD27 DUP5 DUP5 DUP5 DUP5 SUB PUSH2 0xAD7 JUMP JUMPDEST JUMPDEST POP POP POP POP JUMP JUMPDEST PUSH1 0x0 PUSH20 0xFFFFFFFFFFFFFFFFFFFFFFFFFFFFFFFFFFFFFFFF AND DUP4 PUSH20 0xFFFFFFFFFFFFFFFFFFFFFFFFFFFFFFFFFFFFFFFF AND EQ ISZERO PUSH2 0xD9E JUMPI PUSH1 0x40 MLOAD PUSH32 0x8C379A000000000000000000000000000000000000000000000000000000000 DUP2 MSTORE PUSH1 0x4 ADD PUSH2 0xD95 SWAP1 PUSH2 0x1627 JUMP JUMPDEST PUSH1 0x40 MLOAD DUP1 SWAP2 SUB SWAP1 REVERT JUMPDEST PUSH1 0x0 PUSH20 0xFFFFFFFFFFFFFFFFFFFFFFFFFFFFFFFFFFFFFFFF AND DUP3 PUSH20 0xFFFFFFFFFFFFFFFFFFFFFFFFFFFFFFFFFFFFFFFF AND EQ ISZERO PUSH2 0xE0E JUMPI PUSH1 0x40 MLOAD PUSH32 0x8C379A000000000000000000000000000000000000000000000000000000000 DUP2 MSTORE PUSH1 0x4 ADD PUSH2 0xE05 SWAP1 PUSH2 0x1547 JUMP JUMPDEST PUSH1 0x40 MLOAD DUP1 SWAP2 SUB SWAP1 REVERT JUMPDEST PUSH2 0xE19 DUP4 DUP4 DUP4 PUSH2 0x11D5 JUMP JUMPDEST PUSH1 0x0 DUP1 PUSH1 0x0 DUP6 PUSH20 0xFFFFFFFFFFFFFFFFFFFFFFFFFFFFFFFFFFFFFFFF AND PUSH20 0xFFFFFFFFFFFFFFFFFFFFFFFFFFFFFFFFFFFFFFFF AND DUP2 MSTORE PUSH1 0x20 ADD SWAP1 DUP2 MSTORE PUSH1 0x20 ADD PUSH1 0x0 KECCAK256 SLOAD SWAP1 POP DUP2 DUP2 LT ISZERO PUSH2 0xE9F JUMPI PUSH1 0x40 MLOAD PUSH32 0x8C379A000000000000000000000000000000000000000000000000000000000 DUP2 MSTORE PUSH1 0x4 ADD PUSH2 0xE96 SWAP1 PUSH2 0x15E7 JUMP JUMPDEST PUSH1 0x40 MLOAD DUP1 SWAP2 SUB SWAP1 REVERT JUMPDEST DUP2 DUP2 SUB PUSH1 0x0 DUP1 DUP7 PUSH20 0xFFFFFFFFFFFFFFFFFFFFFFFFFFFFFFFFFFFFFFFF AND PUSH20 0xFFFFFFFFFFFFFFFFFFFFFFFFFFFFFFFFFFFFFFFF AND DUP2 MSTORE PUSH1 0x20 ADD SWAP1 DUP2 MSTORE PUSH1 0x20 ADD PUSH1 0x0 KECCAK256 DUP2 SWAP1 SSTORE POP DUP2 PUSH1 0x0 DUP1 DUP6 PUSH20 0xFFFFFFFFFFFFFFFFFFFFFFFFFFFFFFFFFFFFFFFF AND PUSH20 0xFFFFFFFFFFFFFFFFFFFFFFFFFFFFFFFFFFFFFFFF AND DUP2 MSTORE PUSH1 0x20 ADD SWAP1 DUP2 MSTORE PUSH1 0x20 ADD PUSH1 0x0 KECCAK256 PUSH1 0x0 DUP3 DUP3 SLOAD PUSH2 0xF32 SWAP2 SWAP1 PUSH2 0x16F9 JUMP JUMPDEST SWAP3 POP POP DUP2 SWAP1 SSTORE POP DUP3 PUSH20 0xFFFFFFFFFFFFFFFFFFFFFFFFFFFFFFFFFFFFFFFF AND DUP5 PUSH20 0xFFFFFFFFFFFFFFFFFFFFFFFFFFFFFFFFFFFFFFFF AND PUSH32 0xDDF252AD1BE2C89B69C2B068FC378DAA952BA7F163C4A11628F55A4DF523B3EF DUP5 PUSH1 0x40 MLOAD PUSH2 0xF96 SWAP2 SWAP1 PUSH2 0x16A7 JUMP JUMPDEST PUSH1 0x40 MLOAD DUP1 SWAP2 SUB SWAP1 LOG3 PUSH2 0xFA9 DUP5 DUP5 DUP5 PUSH2 0x11DA JUMP JUMPDEST POP POP POP POP JUMP JUMPDEST PUSH1 0x0 PUSH20 0xFFFFFFFFFFFFFFFFFFFFFFFFFFFFFFFFFFFFFFFF AND DUP3 PUSH20 0xFFFFFFFFFFFFFFFFFFFFFFFFFFFFFFFFFFFFFFFF AND EQ ISZERO PUSH2 0x101F JUMPI PUSH1 0x40 MLOAD PUSH32 0x8C379A000000000000000000000000000000000000000000000000000000000 DUP2 MSTORE PUSH1 0x4 ADD PUSH2 0x1016 SWAP1 PUSH2 0x1687 JUMP JUMPDEST PUSH1 0x40 MLOAD DUP1 SWAP2 SUB SWAP1 REVERT JUMPDEST PUSH2 0x102B PUSH1 0x0 DUP4 DUP4 PUSH2 0x11D5 JUMP JUMPDEST DUP1 PUSH1 0x2 PUSH1 0x0 DUP3 DUP3 SLOAD PUSH2 0x103D SWAP2 SWAP1 PUSH2 0x16F9 JUMP JUMPDEST SWAP3 POP POP DUP2 SWAP1 SSTORE POP DUP1 PUSH1 0x0 DUP1 DUP5 PUSH20 0xFFFFFFFFFFFFFFFFFFFFFFFFFFFFFFFFFFFFFFFF AND PUSH20 0xFFFFFFFFFFFFFFFFFFFFFFFFFFFFFFFFFFFFFFFF AND DUP2 MSTORE PUSH1 0x20 ADD SWAP1 DUP2 MSTORE PUSH1 0x20 ADD PUSH1 0x0 KECCAK256 PUSH1 0x0 DUP3 DUP3 SLOAD PUSH2 0x1092 SWAP2 SWAP1 PUSH2 0x16F9 JUMP JUMPDEST SWAP3 POP POP DUP2 SWAP1 SSTORE POP DUP2 PUSH20 0xFFFFFFFFFFFFFFFFFFFFFFFFFFFFFFFFFFFFFFFF AND PUSH1 0x0 PUSH20 0xFFFFFFFFFFFFFFFFFFFFFFFFFFFFFFFFFFFFFFFF AND PUSH32 0xDDF252AD1BE2C89B69C2B068FC378DAA952BA7F163C4A11628F55A4DF523B3EF DUP4 PUSH1 0x40 MLOAD PUSH2 0x10F7 SWAP2 SWAP1 PUSH2 0x16A7 JUMP JUMPDEST PUSH1 0x40 MLOAD DUP1 SWAP2 SUB SWAP1 LOG3 PUSH2 0x110B PUSH1 0x0 DUP4 DUP4 PUSH2 0x11DA JUMP JUMPDEST POP POP JUMP JUMPDEST PUSH1 0x0 PUSH1 0x5 PUSH1 0x0 SWAP1 SLOAD SWAP1 PUSH2 0x100 EXP SWAP1 DIV PUSH20 0xFFFFFFFFFFFFFFFFFFFFFFFFFFFFFFFFFFFFFFFF AND SWAP1 POP DUP2 PUSH1 0x5 PUSH1 0x0 PUSH2 0x100 EXP DUP2 SLOAD DUP2 PUSH20 0xFFFFFFFFFFFFFFFFFFFFFFFFFFFFFFFFFFFFFFFF MUL NOT AND SWAP1 DUP4 PUSH20 0xFFFFFFFFFFFFFFFFFFFFFFFFFFFFFFFFFFFFFFFF AND MUL OR SWAP1 SSTORE POP DUP2 PUSH20 0xFFFFFFFFFFFFFFFFFFFFFFFFFFFFFFFFFFFFFFFF AND DUP2 PUSH20 0xFFFFFFFFFFFFFFFFFFFFFFFFFFFFFFFFFFFFFFFF AND PUSH32 0x8BE0079C531659141344CD1FD0A4F28419497F9722A3DAAFE3B4186F6B6457E0 PUSH1 0x40 MLOAD PUSH1 0x40 MLOAD DUP1 SWAP2 SUB SWAP1 LOG3 POP POP JUMP JUMPDEST POP POP POP JUMP JUMPDEST POP POP POP JUMP JUMPDEST PUSH1 0x0 DUP2 CALLDATALOAD SWAP1 POP PUSH2 0x11EE DUP2 PUSH2 0x1C25 JUMP JUMPDEST SWAP3 SWAP2 POP POP JUMP JUMPDEST PUSH1 0x0 DUP2 CALLDATALOAD SWAP1 POP PUSH2 0x1203 DUP2 PUSH2 0x1C3C JUMP JUMPDEST SWAP3 SWAP2 POP POP JUMP JUMPDEST PUSH1 0x0 PUSH1 0x20 DUP3 DUP5 SUB SLT ISZERO PUSH2 0x121B JUMPI PUSH1 0x0 DUP1 REVERT JUMPDEST PUSH1 0x0 PUSH2 0x1229 DUP5 DUP3 DUP6 ADD PUSH2 0x11DF JUMP JUMPDEST SWAP2 POP POP SWAP3 SWAP2 POP POP JUMP JUMPDEST PUSH1 0x0 DUP1 PUSH1 0x40 DUP4 DUP6 SUB SLT ISZERO PUSH2 0x1245 JUMPI PUSH1 0x0 DUP1 REVERT JUMPDEST PUSH1 0x0 PUSH2 0x1253 DUP6 DUP3 DUP7 ADD PUSH2 0x11DF JUMP JUMPDEST SWAP3 POP POP PUSH1 0x20 PUSH2 0x1264 DUP6 DUP3 DUP7 ADD PUSH2 0x11DF JUMP JUMPDEST SWAP2 POP POP SWAP3 POP SWAP3 SWAP1 POP JUMP JUMPDEST PUSH1 0x0 DUP1 PUSH1 0x0 PUSH1 0x60 DUP5 DUP7 SUB SLT ISZERO PUSH2 0x1283 JUMPI PUSH1 0x0 DUP1 REVERT JUMPDEST PUSH1 0x0 PUSH2 0x1291 DUP7 DUP3 DUP8 ADD PUSH2 0x11DF JUMP JUMPDEST SWAP4 POP POP PUSH1 0x20 PUSH2 0x12A2 DUP7 DUP3 DUP8 ADD PUSH2 0x11DF JUMP JUMPDEST SWAP3 POP POP PUSH1 0x40 PUSH2 0x12B3 DUP7 DUP3 DUP8 ADD PUSH2 0x11F4 JUMP JUMPDEST SWAP2 POP POP SWAP3 POP SWAP3 POP SWAP3 JUMP JUMPDEST PUSH1 0x0 DUP1 PUSH1 0x40 DUP4 DUP6 SUB SLT ISZERO PUSH2 0x12D0 JUMPI PUSH1 0x0 DUP1 REVERT JUMPDEST PUSH1 0x0 PUSH2 0x12DE DUP6 DUP3 DUP7 ADD PUSH2 0x11DF JUMP JUMPDEST SWAP3 POP POP PUSH1 0x20 PUSH2 0x12EF DUP6 DUP3 DUP7 ADD PUSH2 0x11F4 JUMP JUMPDEST SWAP2 POP POP SWAP3 POP SWAP3 SWAP1 POP JUMP JUMPDEST PUSH2 0x1302 DUP2 PUSH2 0x17DA JUMP JUMPDEST DUP3 MSTORE POP POP JUMP JUMPDEST PUSH2 0x1311 DUP2 PUSH2 0x17EC JUMP JUMPDEST DUP3 MSTORE POP POP JUMP JUMPDEST PUSH1 0x0 PUSH2 0x1322 DUP3 PUSH2 0x16DD JUMP JUMPDEST PUSH2 0x132C DUP2 DUP6 PUSH2 0x16E8 JUMP JUMPDEST SWAP4 POP PUSH2 0x133C DUP2 DUP6 PUSH1 0x20 DUP7 ADD PUSH2 0x182F JUMP JUMPDEST PUSH2 0x1345 DUP2 PUSH2 0x1921 JUMP JUMPDEST DUP5 ADD SWAP2 POP POP SWAP3 SWAP2 POP POP JUMP JUMPDEST PUSH1 0x0 PUSH2 0x135D PUSH1 0x23 DUP4 PUSH2 0x16E8 JUMP JUMPDEST SWAP2 POP PUSH2 0x1368 DUP3 PUSH2 0x1932 JUMP JUMPDEST PUSH1 0x40 DUP3 ADD SWAP1 POP SWAP2 SWAP1 POP JUMP JUMPDEST PUSH1 0x0 PUSH2 0x1380 PUSH1 0x21 DUP4 PUSH2 0x16E8 JUMP JUMPDEST SWAP2 POP PUSH2 0x138B DUP3 PUSH2 0x1981 JUMP JUMPDEST PUSH1 0x40 DUP3 ADD SWAP1 POP SWAP2 SWAP1 POP JUMP JUMPDEST PUSH1 0x0 PUSH2 0x13A3 PUSH1 0x26 DUP4 PUSH2 0x16E8 JUMP JUMPDEST SWAP2 POP PUSH2 0x13AE DUP3 PUSH2 0x19D0 JUMP JUMPDEST PUSH1 0x40 DUP3 ADD SWAP1 POP SWAP2 SWAP1 POP JUMP JUMPDEST PUSH1 0x0 PUSH2 0x13C6 PUSH1 0x22 DUP4 PUSH2 0x16E8 JUMP JUMPDEST SWAP2 POP PUSH2 0x13D1 DUP3 PUSH2 0x1A1F JUMP JUMPDEST PUSH1 0x40 DUP3 ADD SWAP1 POP SWAP2 SWAP1 POP JUMP JUMPDEST PUSH1 0x0 PUSH2 0x13E9 PUSH1 0x1D DUP4 PUSH2 0x16E8 JUMP JUMPDEST SWAP2 POP PUSH2 0x13F4 DUP3 PUSH2 0x1A6E JUMP JUMPDEST PUSH1 0x20 DUP3 ADD SWAP1 POP SWAP2 SWAP1 POP JUMP JUMPDEST PUSH1 0x0 PUSH2 0x140C PUSH1 0x26 DUP4 PUSH2 0x16E8 JUMP JUMPDEST SWAP2 POP PUSH2 0x1417 DUP3 PUSH2 0x1A97 JUMP JUMPDEST PUSH1 0x40 DUP3 ADD SWAP1 POP SWAP2 SWAP1 POP JUMP JUMPDEST PUSH1 0x0 PUSH2 0x142F PUSH1 0x20 DUP4 PUSH2 0x16E8 JUMP JUMPDEST SWAP2 POP PUSH2 0x143A DUP3 PUSH2 0x1AE6 JUMP JUMPDEST PUSH1 0x20 DUP3 ADD SWAP1 POP SWAP2 SWAP1 POP JUMP JUMPDEST PUSH1 0x0 PUSH2 0x1452 PUSH1 0x25 DUP4 PUSH2 0x16E8 JUMP JUMPDEST SWAP2 POP PUSH2 0x145D DUP3 PUSH2 0x1B0F JUMP JUMPDEST PUSH1 0x40 DUP3 ADD SWAP1 POP SWAP2 SWAP1 POP JUMP JUMPDEST PUSH1 0x0 PUSH2 0x1475 PUSH1 0x24 DUP4 PUSH2 0x16E8 JUMP JUMPDEST SWAP2 POP PUSH2 0x1480 DUP3 PUSH2 0x1B5E JUMP JUMPDEST PUSH1 0x40 DUP3 ADD SWAP1 POP SWAP2 SWAP1 POP JUMP JUMPDEST PUSH1 0x0 PUSH2 0x1498 PUSH1 0x25 DUP4 PUSH2 0x16E8 JUMP JUMPDEST SWAP2 POP PUSH2 0x14A3 DUP3 PUSH2 0x1BAD JUMP JUMPDEST PUSH1 0x40 DUP3 ADD SWAP1 POP SWAP2 SWAP1 POP JUMP JUMPDEST PUSH1 0x0 PUSH2 0x14BB PUSH1 0x1F DUP4 PUSH2 0x16E8 JUMP JUMPDEST SWAP2 POP PUSH2 0x14C6 DUP3 PUSH2 0x1BFC JUMP JUMPDEST PUSH1 0x20 DUP3 ADD SWAP1 POP SWAP2 SWAP1 POP JUMP JUMPDEST PUSH2 0x14DA DUP2 PUSH2 0x1818 JUMP JUMPDEST DUP3 MSTORE POP POP JUMP JUMPDEST PUSH2 0x14E9 DUP2 PUSH2 0x1822 JUMP JUMPDEST DUP3 MSTORE POP POP JUMP JUMPDEST PUSH1 0x0 PUSH1 0x20 DUP3 ADD SWAP1 POP PUSH2 0x1504 PUSH1 0x0 DUP4 ADD DUP5 PUSH2 0x12F9 JUMP JUMPDEST SWAP3 SWAP2 POP POP JUMP JUMPDEST PUSH1 0x0 PUSH1 0x20 DUP3 ADD SWAP1 POP PUSH2 0x151F PUSH1 0x0 DUP4 ADD DUP5 PUSH2 0x1308 JUMP JUMPDEST SWAP3 SWAP2 POP POP JUMP JUMPDEST PUSH1 0x0 PUSH1 0x20 DUP3 ADD SWAP1 POP DUP2 DUP2 SUB PUSH1 0x0 DUP4 ADD MSTORE PUSH2 0x153F DUP2 DUP5 PUSH2 0x1317 JUMP JUMPDEST SWAP1 POP SWAP3 SWAP2 POP POP JUMP JUMPDEST PUSH1 0x0 PUSH1 0x20 DUP3 ADD SWAP1 POP DUP2 DUP2 SUB PUSH1 0x0 DUP4 ADD MSTORE PUSH2 0x1560 DUP2 PUSH2 0x1350 JUMP JUMPDEST SWAP1 POP SWAP2 SWAP1 POP JUMP JUMPDEST PUSH1 0x0 PUSH1 0x20 DUP3 ADD SWAP1 POP DUP2 DUP2 SUB PUSH1 0x0 DUP4 ADD MSTORE PUSH2 0x1580 DUP2 PUSH2 0x1373 JUMP JUMPDEST SWAP1 POP SWAP2 SWAP1 POP JUMP JUMPDEST PUSH1 0x0 PUSH1 0x20 DUP3 ADD SWAP1 POP DUP2 DUP2 SUB PUSH1 0x0 DUP4 ADD MSTORE PUSH2 0x15A0 DUP2 PUSH2 0x1396 JUMP JUMPDEST SWAP1 POP SWAP2 SWAP1 POP JUMP JUMPDEST PUSH1 0x0 PUSH1 0x20 DUP3 ADD SWAP1 POP DUP2 DUP2 SUB PUSH1 0x0 DUP4 ADD MSTORE PUSH2 0x15C0 DUP2 PUSH2 0x13B9 JUMP JUMPDEST SWAP1 POP SWAP2 SWAP1 POP JUMP JUMPDEST PUSH1 0x0 PUSH1 0x20 DUP3 ADD SWAP1 POP DUP2 DUP2 SUB PUSH1 0x0 DUP4 ADD MSTORE PUSH2 0x15E0 DUP2 PUSH2 0x13DC JUMP JUMPDEST SWAP1 POP SWAP2 SWAP1 POP JUMP JUMPDEST PUSH1 0x0 PUSH1 0x20 DUP3 ADD SWAP1 POP DUP2 DUP2 SUB PUSH1 0x0 DUP4 ADD MSTORE PUSH2 0x1600 DUP2 PUSH2 0x13FF JUMP JUMPDEST SWAP1 POP SWAP2 SWAP1 POP JUMP JUMPDEST PUSH1 0x0 PUSH1 0x20 DUP3 ADD SWAP1 POP DUP2 DUP2 SUB PUSH1 0x0 DUP4 ADD MSTORE PUSH2 0x1620 DUP2 PUSH2 0x1422 JUMP JUMPDEST SWAP1 POP SWAP2 SWAP1 POP JUMP JUMPDEST PUSH1 0x0 PUSH1 0x20 DUP3 ADD SWAP1 POP DUP2 DUP2 SUB PUSH1 0x0 DUP4 ADD MSTORE PUSH2 0x1640 DUP2 PUSH2 0x1445 JUMP JUMPDEST SWAP1 POP SWAP2 SWAP1 POP JUMP JUMPDEST PUSH1 0x0 PUSH1 0x20 DUP3 ADD SWAP1 POP DUP2 DUP2 SUB PUSH1 0x0 DUP4 ADD MSTORE PUSH2 0x1660 DUP2 PUSH2 0x1468 JUMP JUMPDEST SWAP1 POP SWAP2 SWAP1 POP JUMP JUMPDEST PUSH1 0x0 PUSH1 0x20 DUP3 ADD SWAP1 POP DUP2 DUP2 SUB PUSH1 0x0 DUP4 ADD MSTORE PUSH2 0x1680 DUP2 PUSH2 0x148B JUMP JUMPDEST SWAP1 POP SWAP2 SWAP1 POP JUMP JUMPDEST PUSH1 0x0 PUSH1 0x20 DUP3 ADD SWAP1 POP DUP2 DUP2 SUB PUSH1 0x0 DUP4 ADD MSTORE PUSH2 0x16A0 DUP2 PUSH2 0x14AE JUMP JUMPDEST SWAP1 POP SWAP2 SWAP1 POP JUMP JUMPDEST PUSH1 0x0 PUSH1 0x20 DUP3 ADD SWAP1 POP PUSH2 0x16BC PUSH1 0x0 DUP4 ADD DUP5 PUSH2 0x14D1 JUMP JUMPDEST SWAP3 SWAP2 POP POP JUMP JUMPDEST PUSH1 0x0 PUSH1 0x20 DUP3 ADD SWAP1 POP PUSH2 0x16D7 PUSH1 0x0 DUP4 ADD DUP5 PUSH2 0x14E0 JUMP JUMPDEST SWAP3 SWAP2 POP POP JUMP JUMPDEST PUSH1 0x0 DUP2 MLOAD SWAP1 POP SWAP2 SWAP1 POP JUMP JUMPDEST PUSH1 0x0 DUP3 DUP3 MSTORE PUSH1 0x20 DUP3 ADD SWAP1 POP SWAP3 SWAP2 POP POP JUMP JUMPDEST PUSH1 0x0 PUSH2 0x1704 DUP3 PUSH2 0x1818 JUMP JUMPDEST SWAP2 POP PUSH2 0x170F DUP4 PUSH2 0x1818 JUMP JUMPDEST SWAP3 POP DUP3 PUSH32 0xFFFFFFFFFFFFFFFFFFFFFFFFFFFFFFFFFFFFFFFFFFFFFFFFFFFFFFFFFFFFFFFF SUB DUP3 GT ISZERO PUSH2 0x1744 JUMPI PUSH2 0x1743 PUSH2 0x1894 JUMP JUMPDEST JUMPDEST DUP3 DUP3 ADD SWAP1 POP SWAP3 SWAP2 POP POP JUMP JUMPDEST PUSH1 0x0 PUSH2 0x175A DUP3 PUSH2 0x1818 JUMP JUMPDEST SWAP2 POP PUSH2 0x1765 DUP4 PUSH2 0x1818 JUMP JUMPDEST SWAP3 POP DUP3 PUSH2 0x1775 JUMPI PUSH2 0x1774 PUSH2 0x18C3 JUMP JUMPDEST JUMPDEST DUP3 DUP3 DIV SWAP1 POP SWAP3 SWAP2 POP POP JUMP JUMPDEST PUSH1 0x0 PUSH2 0x178B DUP3 PUSH2 0x1818 JUMP JUMPDEST SWAP2 POP PUSH2 0x1796 DUP4 PUSH2 0x1818 JUMP JUMPDEST SWAP3 POP DUP2 PUSH32 0xFFFFFFFFFFFFFFFFFFFFFFFFFFFFFFFFFFFFFFFFFFFFFFFFFFFFFFFFFFFFFFFF DIV DUP4 GT DUP3 ISZERO ISZERO AND ISZERO PUSH2 0x17CF JUMPI PUSH2 0x17CE PUSH2 0x1894 JUMP JUMPDEST JUMPDEST DUP3 DUP3 MUL SWAP1 POP SWAP3 SWAP2 POP POP JUMP JUMPDEST PUSH1 0x0 PUSH2 0x17E5 DUP3 PUSH2 0x17F8 JUMP JUMPDEST SWAP1 POP SWAP2 SWAP1 POP JUMP JUMPDEST PUSH1 0x0 DUP2 ISZERO ISZERO SWAP1 POP SWAP2 SWAP1 POP JUMP JUMPDEST PUSH1 0x0 PUSH20 0xFFFFFFFFFFFFFFFFFFFFFFFFFFFFFFFFFFFFFFFF DUP3 AND SWAP1 POP SWAP2 SWAP1 POP JUMP JUMPDEST PUSH1 0x0 DUP2 SWAP1 POP SWAP2 SWAP1 POP JUMP JUMPDEST PUSH1 0x0 PUSH1 0xFF DUP3 AND SWAP1 POP SWAP2 SWAP1 POP JUMP JUMPDEST PUSH1 0x0 JUMPDEST DUP4 DUP2 LT ISZERO PUSH2 0x184D JUMPI DUP1 DUP3 ADD MLOAD DUP2 DUP5 ADD MSTORE PUSH1 0x20 DUP2 ADD SWAP1 POP PUSH2 0x1832 JUMP JUMPDEST DUP4 DUP2 GT ISZERO PUSH2 0x185C JUMPI PUSH1 0x0 DUP5 DUP5 ADD MSTORE JUMPDEST POP POP POP POP JUMP JUMPDEST PUSH1 0x0 PUSH1 0x2 DUP3 DIV SWAP1 POP PUSH1 0x1 DUP3 AND DUP1 PUSH2 0x187A JUMPI PUSH1 0x7F DUP3 AND SWAP2 POP JUMPDEST PUSH1 0x20 DUP3 LT DUP2 EQ ISZERO PUSH2 0x188E JUMPI PUSH2 0x188D PUSH2 0x18F2 JUMP JUMPDEST JUMPDEST POP SWAP2 SWAP1 POP JUMP JUMPDEST PUSH32 0x4E487B7100000000000000000000000000000000000000000000000000000000 PUSH1 0x0 MSTORE PUSH1 0x11 PUSH1 0x4 MSTORE PUSH1 0x24 PUSH1 0x0 REVERT JUMPDEST PUSH32 0x4E487B7100000000000000000000000000000000000000000000000000000000 PUSH1 0x0 MSTORE PUSH1 0x12 PUSH1 0x4 MSTORE PUSH1 0x24 PUSH1 0x0 REVERT JUMPDEST PUSH32 0x4E487B7100000000000000000000000000000000000000000000000000000000 PUSH1 0x0 MSTORE PUSH1 0x22 PUSH1 0x4 MSTORE PUSH1 0x24 PUSH1 0x0 REVERT JUMPDEST PUSH1 0x0 PUSH1 0x1F NOT PUSH1 0x1F DUP4 ADD AND SWAP1 POP SWAP2 SWAP1 POP JUMP JUMPDEST PUSH32 0x45524332303A207472616E7366657220746F20746865207A65726F2061646472 PUSH1 0x0 DUP3 ADD MSTORE PUSH32 0x6573730000000000000000000000000000000000000000000000000000000000 PUSH1 0x20 DUP3 ADD MSTORE POP JUMP JUMPDEST PUSH32 0x596F752063616E6E6F74206D696E742052434E2077697468207A65726F204554 PUSH1 0x0 DUP3 ADD MSTORE PUSH32 0x4800000000000000000000000000000000000000000000000000000000000000 PUSH1 0x20 DUP3 ADD MSTORE POP JUMP JUMPDEST PUSH32 0x4F776E61626C653A206E6577206F776E657220697320746865207A65726F2061 PUSH1 0x0 DUP3 ADD MSTORE PUSH32 0x6464726573730000000000000000000000000000000000000000000000000000 PUSH1 0x20 DUP3 ADD MSTORE POP JUMP JUMPDEST PUSH32 0x45524332303A20617070726F766520746F20746865207A65726F206164647265 PUSH1 0x0 DUP3 ADD MSTORE PUSH32 0x7373000000000000000000000000000000000000000000000000000000000000 PUSH1 0x20 DUP3 ADD MSTORE POP JUMP JUMPDEST PUSH32 0x45524332303A20696E73756666696369656E7420616C6C6F77616E6365000000 PUSH1 0x0 DUP3 ADD MSTORE POP JUMP JUMPDEST PUSH32 0x45524332303A207472616E7366657220616D6F756E7420657863656564732062 PUSH1 0x0 DUP3 ADD MSTORE PUSH32 0x616C616E63650000000000000000000000000000000000000000000000000000 PUSH1 0x20 DUP3 ADD MSTORE POP JUMP JUMPDEST PUSH32 0x4F776E61626C653A2063616C6C6572206973206E6F7420746865206F776E6572 PUSH1 0x0 DUP3 ADD MSTORE POP JUMP JUMPDEST PUSH32 0x45524332303A207472616E736665722066726F6D20746865207A65726F206164 PUSH1 0x0 DUP3 ADD MSTORE PUSH32 0x6472657373000000000000000000000000000000000000000000000000000000 PUSH1 0x20 DUP3 ADD MSTORE POP JUMP JUMPDEST PUSH32 0x45524332303A20617070726F76652066726F6D20746865207A65726F20616464 PUSH1 0x0 DUP3 ADD MSTORE PUSH32 0x7265737300000000000000000000000000000000000000000000000000000000 PUSH1 0x20 DUP3 ADD MSTORE POP JUMP JUMPDEST PUSH32 0x45524332303A2064656372656173656420616C6C6F77616E63652062656C6F77 PUSH1 0x0 DUP3 ADD MSTORE PUSH32 0x207A65726F000000000000000000000000000000000000000000000000000000 PUSH1 0x20 DUP3 ADD MSTORE POP JUMP JUMPDEST PUSH32 0x45524332303A206D696E7420746F20746865207A65726F206164647265737300 PUSH1 0x0 DUP3 ADD MSTORE POP JUMP JUMPDEST PUSH2 0x1C2E DUP2 PUSH2 0x17DA JUMP JUMPDEST DUP2 EQ PUSH2 0x1C39 JUMPI PUSH1 0x0 DUP1 REVERT JUMPDEST POP JUMP JUMPDEST PUSH2 0x1C45 DUP2 PUSH2 0x1818 JUMP JUMPDEST DUP2 EQ PUSH2 0x1C50 JUMPI PUSH1 0x0 DUP1 REVERT JUMPDEST POP JUMP INVALID LOG2 PUSH5 0x6970667358 0x22 SLT KECCAK256 CODECOPY 0xBE 0xB3 DUP6 CREATE2 PC MOD 0x4F 0xD3 GAS AND GAS CODECOPY 0xC8 POP CALLDATALOAD PUSH2 0xA40F 0xAC 0xE9 AND DELEGATECALL EXTCODECOPY GASPRICE 0xC8 0xD3 ORIGIN 0xBD 0xA9 0xA8 PUSH16 0x64736F6C634300080400330000000000 "
				},
				"gasEstimates": {
					"creation": {
						"codeDepositCost": "1461000",
						"executionCost": "infinite",
						"totalCost": "infinite"
					},
					"external": {
						"allowance(address,address)": "infinite",
						"approve(address,uint256)": "infinite",
						"balanceOf(address)": "1630",
						"buyToken(address)": "infinite",
						"decimals()": "366",
						"decreaseAllowance(address,uint256)": "infinite",
						"increaseAllowance(address,uint256)": "infinite",
						"mint(address,uint256)": "infinite",
						"name()": "infinite",
						"owner()": "1289",
						"renounceOwnership()": "24397",
						"symbol()": "infinite",
						"totalSupply()": "1205",
						"transfer(address,uint256)": "infinite",
						"transferFrom(address,address,uint256)": "infinite",
						"transferOwnership(address)": "24811"
					}
				},
				"methodIdentifiers": {
					"allowance(address,address)": "dd62ed3e",
					"approve(address,uint256)": "095ea7b3",
					"balanceOf(address)": "70a08231",
					"buyToken(address)": "7e72fb52",
					"decimals()": "313ce567",
					"decreaseAllowance(address,uint256)": "a457c2d7",
					"increaseAllowance(address,uint256)": "39509351",
					"mint(address,uint256)": "40c10f19",
					"name()": "06fdde03",
					"owner()": "8da5cb5b",
					"renounceOwnership()": "715018a6",
					"symbol()": "95d89b41",
					"totalSupply()": "18160ddd",
					"transfer(address,uint256)": "a9059cbb",
					"transferFrom(address,address,uint256)": "23b872dd",
					"transferOwnership(address)": "f2fde38b"
				}
			},
			"userdoc": {
				"kind": "user",
				"methods": {},
				"version": 1
			}
		}
	}
}